:020000040800F2
:100000000050002089470008D9470008D947000858
:10001000D9470008D9470008D94700080000000068
:10002000000000000000000000000000B10F000808
:10003000D947000800000000B1100008F9100008BE
:10004000D9470008D9470008D9470008D947000810
:10005000D9470008D947000851280008752800082A
:1000600099280008BD280008E1280008D9470008A1
:10007000D9470008D9470008D9470008D9470008E0
:10008000D9470008D947000809210008D9470008C6
:10009000B9240008CD240008E1240008052900083F
:1000A000653600081D36000889360008413600080C
:1000B000ED2C0008CD2D00089D2E0008D947000822
:1000C000D9470008D9470008D94700084534000837
:1000D000D94700080D3C0008213C0008353C0008C9
:1000E000AD290008D947000800000000D9470008E2
:1000F000D9470008D9470008D9470008D947000860
:10010000D9470008D9470008D9470008D94700084F
:10011000D9470008D9470008D9470008D94700083F
:10012000D9470008D9470008D9470008D94700082F
:1001300010B5054C237833B9044B13B10448AFF321
:1001400000800123237010BD240000200000000067
:100150003448000808B5034B1BB103490348AFF30B
:10016000008008BD0000000028000020344800087E
:1001700080B483B000AF78607B6803F108027B68CD
:100180005A607B684FF0FF329A607B6803F1080287
:100190007B68DA607B6803F108027B681A617B6820
:1001A00000221A6000BF0C37BD4680BC704780B487
:1001B00083B000AF78607B6800221A6100BF0C3703
:1001C000BD4680BC704780B485B000AF78603960B0
:1001D0007B685B68FB603B68FA685A60FB689A68FA
:1001E0003B689A60FB689B683A685A60FB683A68AB
:1001F0009A603B687A681A617B681B685A1C7B6846
:100200001A6000BF1437BD4680BC704780B485B00B
:1002100000AF78607B681B69FB607B685B687A680D
:1002200092689A607B689B687A6852685A60FB683B
:100230005B687A689A4203D17B689A68FB685A6067
:100240007B6800221A61FB681B685A1EFB681A60F3
:10025000FB681B6818461437BD4680BC704780B5E4
:100260008CB004AFF860B9603B601346FB80FB883C
:100270009B00184600F07CFF78617B69002B13D04F
:10028000542000F075FFF861FB69002B08D0542260
:100290000021F86904F0A1FAFB697A691A6305E0A4
:1002A000786900F0B7FF01E00023FB61FB69002BD8
:1002B00013D0FA8800230393FB690293FB6A01932E
:1002C000BB6A00933B68B968F86800F00EF8F869FB
:1002D00000F074F80123BB6102E04FF0FF33BB6113
:1002E000BB6918462037BD4680BD80B586B000AFDB
:1002F000F860B9607A603B60BB6A1A6B7B6803F197
:100300008043013B9B0013443B613B6923F007039F
:100310003B61BB68002B1ED000237B6112E0BA68F2
:100320007B6913441978BA6A7B69134434330A46EB
:100330001A70BA687B6913441B78002B06D07B695E
:1003400001337B617B690F2BE9D900E000BFBB6AF9
:10035000002283F843203B6A042B01D904233B622B
:10036000BB6A3A6ADA62BB6A3A6A5A64BB6A0433A5
:100370001846FFF71CFFBB6A18331846FFF717FF34
:10038000BB6ABA6A1A613B6AC3F10502BB6A9A6129
:10039000BB6ABA6A5A623A68F968386900F0BEFD09
:1003A0000246BB6A1A607B6A002B02D07B6ABA6A7B
:1003B0001A6000BF1837BD4680BD000080B584B00C
:1003C00000AF786000F03AFE3E4B1B6801333D4AB7
:1003D00013603D4B1B68002B09D13B4A7B681360BF
:1003E000384B1B68012B10D100F000FD0DE0374B9E
:1003F0001B68002B09D1344B1B68DA6A7B68DB6A07
:100400009A4202D8304A7B681360314B1B68013333
:100410002F4A13607B68DB6A01229A402D4B1B68D0
:1004200013432C4A13607B68DA6A2B4913469B00FE
:1004300013449B000B4404331B68FB607B68FA6821
:100440009A60FB689A687B68DA60FB689B687A68E8
:1004500004325A607B681A1DFB689A607B68DA6A0E
:1004600013469B0013449B001B4A1A447B685A6145
:100470007B68DA6A184913469B0013449B000B44BF
:100480001B68591C144813469B0013449B000344EB
:10049000196000F0EDFD0D4B1B68002B0ED00A4BD0
:1004A0001B68DA6A7B68DB6A9A4207D20B4B4FF013
:1004B00080521A60BFF34F8FBFF36F8F00BF1037AA
:1004C000BD4680BD1801002040000020240100200E
:1004D00034010020200100204400002004ED00E051
:1004E00080B588B000AF786039600023FB613B685D
:1004F000042B01D904233B6000F0A0FD7B68002B96
:1005000002D1554B1B6800E07B68BB61BB695B6C2B
:100510007B617A693B689A4200F098803A687B690F
:100520009A420DD94C4B1B68BA699A420FD04A4B7C
:100530001B68DB6A3A689A4209D30123FB6106E033
:10054000454B1B68BA699A4201D10123FB61BB6923
:10055000DB6A3B61BB695A6CBB69DB6A9A4202D1B8
:10056000BB693A68DA62BB693A685A64BB699B69DD
:10057000002B04DB3B68C3F10502BB699A61BB69D0
:1005800059693A6913469B0013449B00334A13444C
:10059000994250D1BB6904331846FFF737FE034632
:1005A000002B09D101223B6902FA03F3DA432C4BF9
:1005B0001B6813402A4A1360BB69DB6A01229A4018
:1005C000274B1B681343264A1360BB69DA6A234929
:1005D00013469B0013449B000B4404331B68FB60D1
:1005E000BB69FA689A60FB689A68BB69DA60FB6865
:1005F0009B68BA6904325A60BB691A1DFB689A602D
:10060000BB69DA6A13469B0013449B00134A1A44E1
:10061000BB695A61BB69DA6A104913469B001344EF
:100620009B000B441B68591C0C4813469B00134449
:100630009B0003441960FB69002B07D0094B4FF066
:1006400080521A60BFF34F8FBFF36F8F00F010FD21
:1006500000BF2037BD4680BD400000204400002080
:100660002001002004ED00E080B584B000AF786088
:1006700000F0E4FC7B68002B02D13B4B1B6800E0E0
:100680007B68BB60BB6804331846FFF7BFFD0346B9
:10069000002B15D1BB68DA6A344913469B0013441A
:1006A0009B000B441B68002B0AD1BB68DB6A01224C
:1006B00002FA03F3DA432E4B1B6813402C4A1360F3
:1006C000BB689B6A002B04D0BB6818331846FFF741
:1006D0009DFDBB68043319462648FFF774FD0023CF
:1006E000FB6010E0BA68FB68134450331B78DBB240
:1006F000012B05D1BA68FB681344503300221A70ED
:10070000FB680133FB60FB68002BEBDD00F0B0FC05
:10071000194B1B68002B05D000F090FC00F0E4FBA7
:1007200000F0A6FC104B1B68BA689A4218D1124B15
:100730001B68002B08D0114B4FF080521A60BFF39A
:100740004F8FBFF36F8F0BE00A4B1A680C4B1B687F
:100750009A4203D1044B00221A6001E000F0E8FA4B
:1007600000BF1037BD4680BD40000020440000207F
:1007700020010020040100202401002004ED00E0FD
:100780001801002080B485B000AF78600023FB60C2
:100790007B68BB60BB685B69094A93420AD1BB684E
:1007A0009B6A084A934205D0BB689B6A002B01D123
:1007B0000123FB60FB6818461437BD4680BC7047B8
:1007C00004010020D800002080B584B000AF78601C
:1007D0007B68FB60344B1B68FA689A425FD0FB6809
:1007E000002B5CD000F02AFCF868FFF7CBFF034633
:1007F000002B52D0FB6804331846FFF707FDFB6857
:10080000DB6A01229A40294B1B681343274A136075
:10081000FB68DA6A264913469B0013449B000B448D
:1008200004331B68BB60FB68BA689A60BB689A684F
:10083000FB68DA60BB689B68FA6804325A60FB6840
:100840001A1DBB689A60FB68DA6A13469B00134462
:100850009B00174A1A44FB685A61FB68DA6A14491C
:1008600013469B0013449B000B441B68591C104803
:1008700013469B0013449B0003441960FB68DA6A2B
:10088000094B1B68DB6A9A4207D30A4B4FF0805230
:100890001A60BFF34F8FBFF36F8F00F0E9FB00BF0B
:1008A0001037BD4680BD00BF400000202001002061
:1008B0004400002004ED00E080B584B002AF154B89
:1008C00001930023009300234FF4807212491348D0
:1008D000FFF7C5FC78607B68012B15D14FF0BF0393
:1008E00083F31188BFF36F8FBFF34F8F3B6000BF5F
:1008F0000B4B4FF0FF321A600A4B01221A600A4B71
:1009000000221A6000F07AFB084B1B6800BF083712
:10091000BD4680BD3C0100204C480008BD0D0008CC
:1009200038010020240100201C01002000000020CC
:1009300080B400AF044B1B680133034A136000BF4F
:10094000BD4680BC704700BF4001002080B586B026
:1009500000AF00237B6100233B6100F06FFB684B1D
:100960001B68013B664A1360654B1B68002B40F017
:10097000C080644B1B68002B00F0BB808AE0624B98
:10098000DB68DB687B617B699B6ABB607B69DB69D9
:100990007A69126A9A607B691B6A7A69D2695A60BD
:1009A000BB685A687B6918339A4203D17B691A6A1B
:1009B000BB685A607B6900229A62BB681B685A1E3A
:1009C000BB681A607B695B697B607B699B687A693D
:1009D000D2689A607B69DB687A6992685A607B6842
:1009E0005A687B6904339A4203D17B69DA687B6871
:1009F0005A607B6900225A617B681B685A1E7B68BB
:100A00001A607B69DB6A01229A40404B1B681343E2
:100A10003E4A13607B69DA6A3D4913469B001344E2
:100A20009B000B4404331B683B607B693A689A6007
:100A30003B689A687B69DA603B689B687A69043234
:100A40005A607B691A1D3B689A607B69DA6A1346B3
:100A50009B0013449B002E4A1A447B695A617B69B0
:100A6000DA6A2B4913469B0013449B000B441B6816
:100A7000591C274813469B0013449B0003441960EC
:100A80007B69DA6A234B1B68DB6A9A4202D3224BEA
:100A900001221A601C4B1B68002B7FF470AF7B692E
:100AA000002B01D000F020FA1C4B1B68FB60FB6898
:100AB000002B10D000F036F80346002B02D0164B66
:100AC00001221A60FB68013BFB60FB68002BF1D13F
:100AD000124B00221A60104B1B68002B09D0012317
:100AE0003B610F4B4FF080521A60BFF34F8FBFF343
:100AF0006F8F00F0BDFA3B6918461837BD4680BDC0
:100B00004001002018010020D80000202001002012
:100B100044000020400000202C010020280100207B
:100B200004ED00E080B588B000AF0023FB61754B99
:100B30001B68002B40F0DC80734B1B680133BB61EA
:100B4000714ABB691360BB69002B10D16F4B1B68E6
:100B50007B616F4B1B686D4A13606D4A7B69136044
:100B60006C4B1B6801336B4A136000F0BDF96A4B94
:100B70001B68BA699A42C0F0A680644B1B681B6868
:100B8000002B04D1644B4FF0FF321A609BE05F4BA7
:100B90001B68DB68DB683B613B695B68FB60BA69CB
:100BA000FB689A4203D25C4AFB6813608BE03B69A6
:100BB0005B69BB603B699B683A69D2689A603B6934
:100BC000DB683A6992685A60BB685A683B690433CB
:100BD0009A4203D13B69DA68BB685A603B690022DC
:100BE0005A61BB681B685A1EBB681A603B699B6AE6
:100BF000002B1ED03B699B6A7B603B69DB693A69CD
:100C0000126A9A603B691B6A3A69D2695A607B68CA
:100C10005A683B6918339A4203D13B691A6A7B6868
:100C20005A603B6900229A627B681B685A1E7B6887
:100C30001A603B69DB6A01229A40384B1B681343F8
:100C4000364A13603B69DA6A354913469B00134400
:100C50009B000B4404331B683B603B693A689A6015
:100C60003B689A683B69DA603B689B683A69043282
:100C70005A603B691A1D3B689A603B69DA6A134601
:100C80009B0013449B00264A1A443B695A613B6906
:100C9000DA6A234913469B0013449B000B441B68EC
:100CA000591C1F4813469B0013449B0003441960C2
:100CB0003B69DA6A1B4B1B68DB6A9A427FF65DAFC1
:100CC0000123FB6159E7174B1B68DA6A1449134685
:100CD0009B0013449B000B441B68012B01D901238B
:100CE000FB61114B1B68002B07D00123FB6104E063
:100CF0000E4B1B6801330D4A1360FB691846203701
:100D0000BD4680BD400100201C010020D000002015
:100D1000D4000020300100203801002020010020F4
:100D200044000020400000202C0100202801002069
:100D300080B485B000AF1C4B1B68002B03D01B4B4D
:100D400001221A602AE0194B00221A60184B1B6816
:100D50007B607B68B3FA83F3FB70FB78C3F11F03FE
:100D6000FB60FA6813469B0013449B00114A13442E
:100D7000BB60BB685B685A68BB685A60BB685A68EE
:100D8000BB6808339A4204D1BB685B685A68BB6889
:100D90005A60BB685B68DB68074A136000BF1437A2
:100DA000BD4680BC704700BF400100202C010020E0
:100DB00020010020440000204000002080B582B0C7
:100DC00000AF786000F052F8064B1B68012BF9D990
:100DD000054B4FF080521A60BFF34F8FBFF36F8FF8
:100DE000F0E700BF4400002004ED00E080B582B0D1
:100DF00000AF00237B600CE07A6813469B0013442D
:100E00009B00124A13441846FFF7B2F97B6801337E
:100E10007B607B68042BEFD90D48FFF7A9F90D48DB
:100E2000FFF7A6F90C48FFF7A3F90C48FFF7A0F964
:100E30000B48FFF79DF90B4B054A1A600A4B054A10
:100E40001A6000BF0837BD4680BD00BF44000020C7
:100E5000A8000020BC000020D8000020EC000020EA
:100E600004010020D0000020D400002080B582B012
:100E700000AF19E000F0E2F8104BDB68DB687B6044
:100E80007B6804331846FFF7C1F90D4B1B68013B23
:100E90000B4A13600B4B1B68013B0A4A136000F0BE
:100EA000E7F8786800F010F8064B1B68002BE1D1DA
:100EB00000BF00BF0837BD4680BD00BFEC0000206A
:100EC000180100200001002080B582B000AF7860DA
:100ED0007B681B6B184600F09DF9786800F09AF962
:100EE00000BF0837BD4680BD80B400AF094B1B680A
:100EF0001B68002B04D1084B4FF0FF321A6005E04D
:100F0000044B1B68DB681B68034A136000BFBD46C7
:100F100080BC7047D00000203801002080B485B02C
:100F200000AFF860B9607A60FB68043BFB60FB6867
:100F30004FF080721A60FB68043BFB60BB6823F0D3
:100F40000102FB681A60FB68043BFB60084AFB680F
:100F50001A60FB68143BFB607A68FB681A60FB68E8
:100F6000203BFB60FB6818461437BD4680BC7047C9
:100F7000750F000880B483B000AF00233B604FF0D2
:100F8000BF0383F31188BFF36F8FBFF34F8F7B6075
:100F900000BF00BF3B68002BFCD000BF00BF0C3778
:100FA000BD4680BC7047000000000000000000004B
:100FB000074B19680868B0E8F00F80F30988BFF3A1
:100FC0006F8F4FF0000080F311884EF00D0E7047C8
:100FD0004000002000BF00BF06480068006880F3A2
:100FE000088862B661B6BFF34F8FBFF36F8F00DF23
:100FF00000BF000008ED00E000BF00BF80B500AFFB
:101000000C4B1B680B4A43F47F031360094B1B68AE
:10101000084A43F07F43136000F090F8064B00222B
:101020001A60FFF7D9FFFFF783FEFFF7A3FF002346
:10103000184680BD20ED00E00400002080B483B09D
:1010400000AF4FF0BF0383F31188BFF36F8FBFF37F
:101050004F8F7B6000BF054B1B680133034A136051
:1010600000BF0C37BD4680BC704700BF04000020A5
:1010700080B483B000AF0A4B1B68013B084A136081
:10108000074B1B68002B05D100237B607B6883F333
:10109000118800BF00BF0C37BD4680BC704700BF41
:1010A000040000200000000000000000000000001C
:1010B000EFF30980BFF36F8F0D4B1A6820E9F00F33
:1010C00010602DE908404FF0BF0080F31188FFF752
:1010D0002FFE4FF0000080F31188BDE8084019682A
:1010E0000868B0E8F00F80F30988BFF36F8F70478E
:1010F0004000002000BF00BF80B582B000AF4FF0BD
:10110000BF0383F31188BFF36F8FBFF34F8F7B60F3
:1011100000BFFFF707FD0346002B03D0064B4FF03F
:1011200080521A6000233B603B6883F3118800BF44
:1011300000BF0837BD4680BD04ED00E080B400AFBD
:10114000084B00221A60084B00221A60074B46F633
:101150005F521A60034B07221A6000BFBD4680BC75
:10116000704700BF10E000E018E000E014E000E08D
:1011700080B584B000AF78600023FB607B6803F02B
:101180000703002B0ED07B6823F0070308337A682F
:101190009A4205D27B6823F0070308337B6001E0A5
:1011A00000237B60FFF7C4FB174B1B68002B05D1A6
:1011B000164B23F007031A46134B1A607B68002B6B
:1011C0001BD0134B1A687B68134443F67762934233
:1011D00013D80F4B1A687B681A440D4B1B689A4250
:1011E0000BD9094B1A680A4B1B681344FB60084B68
:1011F0001A687B681344064A1360FFF7A7FBFB6875
:1012000018461037BD4680BDC83F00204B01002066
:10121000C43F002080B483B000AF786000BF0C37BB
:10122000BD4680BC7047000080B584B000AF144B51
:101230001B68FB6007F10C031946124801F030FCF3
:10124000114B1B68FB6007F10C0319460D4801F0B8
:1012500027FC0E4B1B68FB6007F10C03194609487D
:1012600001F01EFC0A4B1B68FB6007F10C031946DA
:10127000044801F015FC00BF1037BD4680BD00BF1B
:101280005448000800080140584800085C4800081D
:101290006048000880B500AF01211F4801F012FD31
:1012A0000346002B14D10C211B4801F00BFD034613
:1012B000002B0DD10B21184801F004FD0346002B33
:1012C00006D10821144801F0FDFC0346002B20D074
:1012D0001E2002F017FA01210F4801F0F3FC03462B
:1012E000002B14D10C210C4801F0ECFC0346002B20
:1012F0000DD10B21084801F0E5FC0346002B06D177
:101300000821054801F0DEFC0346002B01D0012333
:1013100000E00023184680BD0008014080B500AF02
:10132000624B1B6803F02003002B00F0BC80604B75
:101330001B78002B0DD15D4802F0A8FB0346592B0A
:1013400040F0B1805A4B1B780133DAB2584B1A7017
:10135000A9E0574B1B78012B0DD1544802F096FBA6
:101360000346592B40F09F80514B1B780133DAB272
:101370004F4B1A7097E04E4B1B78022B10D14C4B01
:101380001B780133DAB24A4B1A704A4B00221A809A
:10139000464802F07BFB03461A46464B1A8082E021
:1013A000434B1B78032B14D1414B1B780133DAB22A
:1013B0003F4B1A703D4802F069FB03461B021AB20C
:1013C0003C4B1B881BB213431BB29AB2394B1A8099
:1013D00069E0374B1B78042B10D1354B1B78013358
:1013E000DAB2334B1A70344B00221A802F4802F0C5
:1013F0004DFB03461A46304B1A8054E02C4B1B78A9
:10140000052B14D12A4B1B780133DAB2284B1A7002
:10141000264802F03BFB03461B021AB2264B1B88F0
:101420001BB213431BB29AB2234B1A803BE0204BF2
:101430001B78062B10D11E4B1B780133DAB21C4BE4
:101440001A701E4B00221A80184802F01FFB034638
:101450001A461A4B1A8026E0154B1B78072B14D11D
:10146000134B1B780133DAB2114B1A700F4802F09C
:101470000DFB03461B021AB2104B1B881BB2134311
:101480001BB29AB20D4B1A800DE0094B1B78082B4A
:1014900009D1064802F0FAFA0346DAB2084B1A708C
:1014A000034B00221A7000BF80BD00BF00480040FF
:1014B000D33F0020CC3F0020CE3F0020D03F002073
:1014C000D23F002090B587B000AF03460A46FB71BB
:1014D0001346BB718E4B07F108040FCB84E80F0055
:1014E00007F1080319468B4802F024F95A2189486C
:1014F00002F08CFA0821874802F088FA0621854814
:1015000002F084FA0021834802F080FAC221814867
:1015100002F07CFA01217F4802F078FA00217D4830
:1015200002F074FA00217B4802F070FAFB79022B7A
:1015300048D0022B57DC002B02D0012B19D052E0EF
:101540005A21744802F062FA0621724802F05EFAEB
:101550000321704802F05AFA64216E4802F056FAEC
:1015600000216C4802F052FA00216A4802F04EFA5B
:1015700039E05A21674802F049FA0621654802F02D
:1015800045FA0321634802F041FA0021614802F064
:101590003DFA00215F4802F039FA00215D4802F06F
:1015A00035FA5A215B4802F031FA0421594802F019
:1015B0002DFA0421574802F029FA0021554802F07B
:1015C00025FA10E05A21534802F020FA042151482C
:1015D00002F01CFA3B214F4802F018FA00214D4856
:1015E00002F014FA00BFBB79052B00F28D8001A236
:1015F00052F823F00D16000837160008611600088F
:101600008B160008B5160008DF1600085A2141485D
:1016100002F0FCF905213F4802F0F8F905213D48A8
:1016200002F0F4F901213B4802F0F0F900213948B9
:1016300002F0ECF968E05A21364802F0E7F905219A
:10164000344802F0E3F90521324802F0DFF90221C3
:10165000304802F0DBF900212E4802F0D7F953E0C0
:101660005A212C4802F0D2F905212A4802F0CEF97D
:101670000521284802F0CAF90621264802F0C6F9D9
:101680000021244802F0C2F93EE05A21214802F02C
:10169000BDF905211F4802F0B9F905211D4802F0E6
:1016A000B5F907211B4802F0B1F90021194802F0F1
:1016B000ADF929E05A21174802F0A8F9052115488B
:1016C00002F0A4F90521134802F0A0F908211148FD
:1016D00002F09CF900210F4802F098F914E05A2119
:1016E0000C4802F093F905210A4802F08FF9052110
:1016F000084802F08BF90921064802F087F9002119
:10170000044802F083F900BF00BF1C37BD4690BDFE
:10171000644800080048004080B58CB004AF034620
:10172000FB7107F1100300221A605A609A60DA60B8
:1017300001233B7401237B74344B1B68FB6007F16E
:1017400010031946324801F075FC07F10C031946E5
:10175000304801F0A5F90323BB8107F10C031946BA
:101760002C4801F09DF9012204212A4801F082FA57
:1017700000220221274801F07DFA782001F0C2FF03
:1017800001220221234801F075FA782001F0BAFF06
:10179000012000F01BF9782001F0B4FF112000F0C7
:1017A00015F96E2001F0AEFF3A2000F00FF9FB7939
:1017B000184600F02DF9782001F0A4FF362000F043
:1017C00005F9782001F09EFF802000F021F97820B3
:1017D00001F098FFB42000F0F9F8002000F018F9AB
:1017E000292000F0F3F8782001F08CFFFF2302930A
:1017F000FF230193FF2300937F2300229F210020DA
:1018000000F0A1F800BF2037BD4680BD7448000835
:10181000003001400008014090B583B000AF04469D
:10182000084611461A462346FB800346BB800B46FA
:101830007B8013463B802A2000F0C8F87B881B0A77
:101840009BB2DBB2184600F0E3F87B88DBB21846A7
:1018500000F0DEF83B881B0A9BB2DBB2184600F0B2
:10186000D7F83B88DBB2184600F0D2F82B2000F006
:10187000ADF8FB881B0A9BB2DBB2184600F0C8F833
:10188000FB88DBB2184600F0C3F8BB881B0A9BB28A
:10189000DBB2184600F0BCF8BB88DBB2184600F09B
:1018A000B7F800BF0C37BD4690BD90B587B000AF0C
:1018B0000446084611461A462346FB800346BB8071
:1018C0000B467B8013463B80BB885A1CFB88D31A8F
:1018D0003A88511C7A888A1A02FB03F33B61002381
:1018E000FB730023BB7300237B733B887A88B98822
:1018F000F888FFF791FF2C2000F068F800237B6147
:1019000016E07B695B00BA6A13441B881B0A9BB212
:10191000DBB2184600F07CF87B695B00BA6A1344BE
:101920001B88DBB2184600F073F87B6901337B61DA
:101930007A693B699A42E4D3002000F047F800BF7F
:101940001C37BD4690BD90B585B000AF0446084633
:1019500011461A462346FB800346BB800B467B801C
:1019600013463B80BB885A1CFB88D31A3A88511C0B
:101970007A888A1A02FB03F3BB603B887A88B988AD
:10198000F888FFF749FF2C2000F020F80023FB60C7
:1019900011E097F82030184600F03AF897F8243014
:1019A000184600F035F897F82830184600F030F85F
:1019B000FB680133FB60FA68BB689A42E9D30020F8
:1019C00000F004F800BF1437BD4690BD80B582B06A
:1019D00000AF0346FB71002204210B4801F04AF9D5
:1019E00000220321084801F045F9FB791946074810
:1019F00001F0E0FB01220421034801F03BF900BFA4
:101A00000837BD4680BD00BF0008014000300140DE
:101A100080B582B000AF0346FB71002204210B4861
:101A200001F028F901220321084801F023F9FB798C
:101A30001946074801F0BEFB01220421034801F0CA
:101A400019F900BF0837BD4680BD00BF000801403E
:101A50000030014080B584B002AF0346FB71FB79D2
:101A6000083B0B2B42D801A252F823F0C51A0008FC
:101A70009D1A0008ED1A0008ED1A0008ED1A00087A
:101A8000ED1A0008ED1A0008ED1A0008B11A000856
:101A9000ED1A0008ED1A0008D91A00081A4B009335
:101AA00071230E2281211E20FFF7FFFE002326E076
:101AB000164B009371230E2281211E20FFF7F5FEA5
:101AC00000231CE0124B009371230E2281211E2063
:101AD000FFF7EBFE002312E00E4B009371230E2262
:101AE00081211E20FFF7E1FE002308E00A4B00934E
:101AF00071230E2281211E20FFF7D7FE01231846F5
:101B00000837BD4680BD00BF84490008E4330108A2
:101B1000C4E50008A49700080482010880B400AF5F
:101B2000FEE7000080B590B000AF0346FB710023D4
:101B3000BB87002387F83E30002387F83F30FB79CE
:101B40000F2B00F2D78001A252F823F08D1B000862
:101B5000AB1B0008C91B0008E71B0008051C000898
:101B6000231C0008411C00085F1C00087D1C0008A5
:101B70009B1C0008F51C0008F51C0008F51C00085B
:101B8000F51C0008B91C0008D71C00080023BB87FF
:101B9000002387F83E30002387F83F3007F13C03ED
:101BA0001946584800F07CFFA7E00123BB870023BB
:101BB00087F83E30002387F83F3007F13C03194691
:101BC000504800F06DFF98E00223BB87002387F8A0
:101BD0003E30002387F83F3007F13C03194649485F
:101BE00000F05EFF89E00323BB87002387F83E30C7
:101BF000002387F83F3007F13C031946414800F0C5
:101C00004FFF7AE00423BB87002387F83E30002390
:101C100087F83F3007F13C0319463A4800F040FF8F
:101C20006BE00523BB87002387F83E30002387F84D
:101C30003F3007F13C031946324800F031FF5CE0C9
:101C40000623BB87002387F83E30002387F83F3008
:101C500007F13C0319462B4800F022FF4DE0072313
:101C6000BB87002387F83E30002387F83F3007F119
:101C70003C031946234800F013FF3EE00023BB87D6
:101C8000002387F83E30002387F83F3007F13C03FC
:101C900019461D4800F004FF2FE00123BB870023F5
:101CA00087F83E30002387F83F3007F13C031946A0
:101CB000154800F0F5FE20E00423BB87002387F8D9
:101CC0003E30002387F83F3007F13C0319460F48A8
:101CD00000F0E6FE11E00523BB87002387F83E30C5
:101CE000002387F83F3007F13C031946074800F00E
:101CF000D7FE02E0FFF712FF00BF00BF4037BD462E
:101D000080BD00BF00080140000C014000100140F0
:101D100080B582B000AF786039603B681B78092BD2
:101D200005D93B681B780D2B01D8012377E17B682F
:101D30009A4A934213D13B681B781946984A0B463E
:101D40005B000B449B0013443A6807CA83E8070012
:101D5000944B9B69934A43F40073936113E03B688F
:101D60001B7819468E4A0B465B000B449B001344BC
:101D7000C0333A6807CA83E807008A4B9B69894ADF
:101D800043F4806393613B681B781846FFF7CAFEF3
:101D90007A68936843F0010393600A2001F086FC9F
:101DA0007A68936843F00103936001F02FF90346CA
:101DB0007D4AA2FB03239B0C1C2B14D01C2B19D88F
:101DC000082B02D0102B07D014E0764B5B68754AC5
:101DD00023F44043536014E0724B5B68714A23F470
:101DE000404353600DE06F4B5B686E4A23F4404301
:101DF000536006E06B4B5B686A4A43F400435360F0
:101E000000BF7A68936843F0040393607A6893682C
:101E10006FF3CB2393603B681B780F2B00F2A880F5
:101E200001A252F823F000BF691E00087F1E0008BF
:101E3000951E0008AB1E0008C11E0008D71E000832
:101E4000ED1E0008031F0008191F00082F1F0008BF
:101E5000711F0008711F0008711F0008711F000822
:101E6000451F00085B1F00083B689B7803F00703D1
:101E7000D9B27A68136961F3020313617BE03B68AE
:101E80009B7803F00703D9B27A68136961F3C5033D
:101E9000136170E03B689B7803F00703D9B27A685E
:101EA000136961F38813136165E03B689B7803F065
:101EB0000703D9B27A68136961F34B2313615AE0BF
:101EC0003B689B7803F00703D9B27A68136961F322
:101ED0000E3313614FE03B689B7803F00703D9B2E0
:101EE0007A68136961F3D133136144E03B689B78EE
:101EF00003F00703D9B27A68136961F3944313615D
:101F000039E03B689B7803F00703D9B27A6813691C
:101F100061F3575313612EE03B689B7803F007038E
:101F2000D9B27A68136961F31A63136123E03B68DD
:101F30009B7803F00703D9B27A68136961F3DD6314
:101F4000136118E03B689B7803F00703D9B27A6805
:101F5000D36861F30E33D3600DE03B689B7803F0E8
:101F60000703D9B27A68D36861F3D133D36002E052
:101F7000FFF7D4FD00BF3B685B78002B02D0012B3C
:101F800006D013E07A6893686FF34103936010E022
:101F90007A68936843F0020393600AE000240140EA
:101FA000D43F00200010024083DE1B43FFF7B6FD44
:101FB00000BF3B685B681B7803F00103DBB2002BBA
:101FC00022D07A68536843F4000353603B681B785F
:101FD00003F01F03D9B27A68536861F304035360B6
:101FE0003B68DB78012B05D17A68536843F04003E6
:101FF000536004E07A6853686FF3861353607A681D
:10200000536843F4007353607A68936843F4603311
:1020100093607A68936843F48013936000231846B2
:102020000837BD4680BD00BF80B487B000AFF86000
:102030000B467A60FB7200237B61FB68304A934257
:1020400008D1FA7A13465B0013449B002D4A1344CF
:102050007B6108E0FA7A13465B0013449B00C033AF
:10206000284A13447B61FB680022DA62FB68002285
:102070001A63FB6800225A637B691B7803F01F0315
:10208000D9B2FA68536B61F3040353637B695B78DD
:10209000002B0CD1FA68936843F48013936000BF5F
:1020A000FB681B68C3F34003DBB2002BF8D07B69ED
:1020B000DB78002B08D0FB68DB6C9AB27B681A8057
:1020C0007B6802337B6016E00023FB740AE0FB6848
:1020D000DB6C9AB27B681A807B6802337B60FB7C86
:1020E0000133FB74FB68DB6AC3F30353DBB21A46AC
:1020F000FB7C9342EBD900BF1C37BD4680BC7047C8
:1021000000240140D43F002080B500AF134B1B6872
:10211000C3F34003DBB2012B0FD1104B5B6BC3F356
:102120000403DBB219460E4A0B465B000B449B00CE
:10213000134408331B6898470EE00A4B5B6BC3F3EC
:102140000403DBB21946064A0B465B000B449B00B6
:102150001344C8331B68984700BF80BD002401406A
:10216000D43F00200028014080B400AFFEE700000B
:1021700080B582B000AF0A4B1B687B603B1D1946DF
:10218000084800F08DFC084B1B687B603B1D19461E
:10219000044800F085FC00BF0837BD4680BD00BF85
:1021A00078480008000801407C48000880B582B0EB
:1021B00000AF7860844B7A6807CA83E80700834BD6
:1021C000DB69824A43F00073D361FFF7D1FF804B94
:1021D0005B68C3F30003DBB2002B1FD17C4B5B6851
:1021E000C3F34003DBB2012B18D1794A13686FF3B4
:1021F00041031360764A136843F00103136000BF84
:10220000734B5B68C3F30003DBB2012BF8D1704B57
:102210005B68C3F34003DBB2002BF1D17B681B7812
:10222000002B05D06A4A136843F04003136004E0B2
:10223000674A13686FF3861313607B685B78002B23
:1022400005D0634A136843F01003136004E0604A4A
:1022500013686FF3041313605D4A13686FF382030E
:1022600013607B689B78002B05D0594A136843F0B4
:102270000803136004E0564A13686FF3C303136046
:1022800000F0B0FE0346534A934203D0524A9342B1
:1022900023D045E07B68DB78032B3ED801A252F8BF
:1022A00023F000BFB5220008BF220008C9220008A1
:1022B000D1220008464B4FF4A022DA610CE0444BD7
:1022C0004FF4E012DA6107E0414B444ADA6103E07F
:1022D0003F4B434ADA6100BF1FE07B68DB78032B8A
:1022E0001DD801A252F823F0F922000801230008AA
:1022F0000923000811230008354B3A4ADA610BE044
:10230000334B394ADA6107E0314B384ADA6103E08E
:102310002F4B374ADA6100BF01E000BF00E000BF89
:102320007B681B79032B37D801A252F823F000BF3A
:1023300041230008572300086D2300088323000869
:10234000234AD3696FF3DF73D361214AD3696FF3F3
:102350009E73D36123E01E4AD36943F00043D361E7
:102360001B4AD3696FF39E73D36118E0184AD3698F
:102370006FF3DF73D361164AD36943F08043D361AF
:102380000DE0134AD36943F00043D361104AD36987
:1023900043F08043D36102E0FFF7E6FE00BF7B68B5
:1023A0005B79002B28D00A4A536943F0020353613A
:1023B000074A536943F0100353610E4B1B680D4AE3
:1023C00043F44013136027E0544100200010024002
:1023D0000064004000127A0000366E0101001C000B
:1023E00004001C000100090002001C0005001C0084
:1023F0000E001C0000E100E0224A53696FF3410324
:102400005361204A53696FF3041353611E4B1B68D9
:102410001D4A43F4401313601A4A536943F480631E
:102420005361184A536943F400435361174B1B68C7
:10243000164A43F480031360124B5B68C3F3000336
:10244000DBB2012B18D10F4B5B68C3F34003DBB247
:10245000002B11D10B4A13686FF341031360094A33
:1024600013686FF30003136000BF064B5B68C3F390
:102470000003DBB2012BF8D0002318460837BD4615
:1024800080BD00BF0064004080E100E000E100E0AA
:1024900080B400AF074B1B69064A43F00073136119
:1024A000044B1B69034A23F00073136100BFBD4650
:1024B00080BC70470010024080B500AF024B9B68A3
:1024C000984700BF80BD00BF5441002080B500AFD9
:1024D000024B9B68984700BF80BD00BF544100205D
:1024E00080B500AFFFF7D4FF0248FFF75FFE00BFE3
:1024F00080BD00BF5441002080B483B000AF0346CC
:10250000FB71FB790F2B54D801A252F823F000BFC6
:10251000512500085F2500086D2500087B2500086F
:1025200089250008972500089725000897250008A9
:102530009725000897250008A5250008A52500086F
:10254000A5250008A5250008A5250008A525000843
:102550001A4B1B68194A43F04003136029E0174BDC
:102560001B68164A43F08003136022E0134B1B687C
:10257000124A43F4807313601BE0104B1B680F4A30
:1025800043F40073136014E00C4B1B680B4A43F4D4
:10259000806313600DE0094B1B68084A43F4000395
:1025A000136006E0064B1B68054A43F48073136012
:1025B00000BF00BF0C37BD4680BC704700E100E0A3
:1025C00004E100E080B483B000AF0346FB71FB7907
:1025D0000F2B54D801A252F823F000BF1D2600088B
:1025E0002B26000839260008472600085526000833
:1025F0006326000863260008632600086326000897
:10260000632600087126000871260008712600085C
:102610007126000871260008712600081A4B1B68F5
:10262000194A23F04003136029E0174B1B68164A30
:1026300023F08003136022E0134B1B68124A23F43B
:10264000807313601BE0104B1B680F4A23F4007368
:10265000136014E00C4B1B680B4A23F48063136077
:102660000DE0094B1B68084A23F40003136006E0E1
:10267000064B1B68054A23F48073136000BF00BF3C
:102680000C37BD4680BC704700E100E004E100E08B
:1026900080B584B000AF7860654B9B69644A43F0B5
:1026A000010393617B681B889B089BB2FB737B686B
:1026B0001B88DBB203F00303DBB29B00BB73002378
:1026C000BB607B681B893B810123BB727B685B68B5
:1026D00007F108021146184600F0E2F97B681B7BFF
:1026E000002B0BD1534BDB687A681288114601220C
:1026F0008A4011464F4A0B43D36029E07B681B7B1D
:10270000012B0BD14B4B9B687A6812881146012232
:102710008A401146474A0B43936019E07B681B7B54
:10272000022B15D1434BDB687A68128811460122CF
:102730008A4011463F4A0B43D3603E4B9B687A6800
:102740001288114601228A4011463A4A0B4393608F
:10275000394AFB7B023352F82320BB7B0F2101FA5D
:1027600003F3DB4318463449FB7B0240023341F854
:102770002320314AFB7B023352F823207B685B68BD
:102780002E498B4216D07B685B682D498B420FD057
:102790007B685B682B498B4208D07B685B682A4961
:1027A0008B4201D1042306E0002304E0032302E06E
:1027B000012300E00023B97B8B4018461E49FB7BB8
:1027C0000243023341F823207B681B8819467B684B
:1027D0001B691E4A42F821307B685B7B012B11D1BB
:1027E000144B1B687A681288114601228A401146F0
:1027F000104A0B4313607B681B88DBB21846FFF757
:102800007BFE11E00B4B1B687A681288114601228F
:102810008A40D2431146074A0B4013607B681B88ED
:10282000DBB21846FFF7CEFE00BF1037BD4680BDB5
:102830000010024000040140000001400008014077
:10284000000C0140001001400014014060410020D4
:1028500080B500AF054B1B689847054B5B69044A80
:1028600043F00103536100BF80BD00BF6041002001
:102870000004014080B500AF054B5B689847054BED
:102880005B69044A43F00203536100BF80BD00BF8F
:10289000604100200004014080B500AF054B9B68FB
:1028A0009847054B5B69044A43F00403536100BF3A
:1028B00080BD00BF604100200004014080B500AF32
:1028C000054BDB689847054B5B69044A43F00803F6
:1028D000536100BF80BD00BF604100200004014083
:1028E00080B500AF054B1B699847054B5B69044AEF
:1028F00043F01003536100BF80BD00BF6041002062
:102900000004014080B500AF264B5B6903F0200353
:10291000002B08D0234B5B69224A43F0200353610C
:10292000214B5B6998471F4B5B6903F04003002B09
:1029300008D01C4B5B691B4A43F0400353611A4BA0
:102940009B699847174B5B6903F08003002B08D005
:10295000144B5B69134A43F080035361124BDB69EC
:102960009847104B5B6903F48073002B08D00D4B24
:102970005B690C4A43F4807353610B4B1B6A9847A5
:10298000084B5B6903F40073002B08D0054B5B69AF
:10299000044A43F400735361034B5B6A984700BFDA
:1029A00080BD00BF000401406041002080B500AF41
:1029B0002D4B5B6903F48063002B08D02A4B5B69C5
:1029C000294A43F480635361284B9B6A9847264BFE
:1029D0005B6903F40063002B08D0234B5B69224A38
:1029E00043F400635361214BDB6A98471E4B5B69DC
:1029F00003F48053002B08D01B4B5B691A4A43F445
:102A000080535361194B1B6B9847174B5B6903F459
:102A10000053002B08D0144B5B69134A43F4005356
:102A20005361124B5B6B98470F4B5B6903F4804318
:102A3000002B08D00C4B5B690B4A43F48043536175
:102A40000A4B9B6B9847084B5B6903F40043002BD0
:102A500008D0054B5B69044A43F400435361034BC0
:102A6000DB6B984700BF80BD00040140604100203F
:102A700080B485B000AF0346FB80FB88072B03D8EA
:102A8000FB889B009BB204E0FB88083B9BB29B0049
:102A90009BB2FB81FB8918461437BD4680BC70474A
:102AA00090B585B000AF786039607B686B4A93421F
:102AB00006D16B4B9B696A4A43F0040393612AE099
:102AC0007B68684A934206D1654B9B69644A43F030
:102AD000080393611FE07B68634A934206D1604B11
:102AE0009B695F4A43F01003936114E07B685F4A7F
:102AF000934206D15A4B9B69594A43F02003936194
:102B000009E07B685A4A934205D1554B9B69544A68
:102B100043F0400393613B681B889BB2072B01D8AD
:102B20007B6801E07B680433FB603B681B889BB2D9
:102B30001846FFF79DFF03461A460F239340DA43DA
:102B4000FB681B681A40FB681A603B689B78DBB225
:102B5000002B0ED03B689B78DBB2012B09D03B6881
:102B60009B78DBB2022B04D03B689B78DBB2032B53
:102B700056D13B689B78DBB2032B1CD13B681B888A
:102B80009BB21846FFF774FF03461A46082303FA60
:102B900002F2FB681B681A43FB681A603B681B88DB
:102BA0009BB21A4601239340DA437B68DB681A40E4
:102BB0007B68DA604DE03B689B78DBB2022B1CD16E
:102BC0003B681B889BB21846FFF752FF03461A4624
:102BD000082303FA02F2FB681B681A43FB681A60B9
:102BE0003B681B889BB21A46012303FA02F27B68FA
:102BF000DB681A437B68DA602BE03B689B78DBB2CA
:102C00009C003B681B889BB21846FFF731FF0346C8
:102C100004FA03F2FB681B681A43FB681A6018E0A9
:102C20003B689B78DBB2043B9B003A68D278D2B217
:102C300043EA02043B681B889BB21846FFF718FF63
:102C4000034604FA03F2FB681B681A43FB681A6028
:102C500000BF00BF1437BD4690BD00BF0008014053
:102C600000100240000C014000100140001401401F
:102C70000018014080B483B000AF78600B467B80C1
:102C800013467B707B78DBB2012B0BD17B889BB228
:102C90001A46012303FA02F27B68DB681A437B6859
:102CA000DA600AE07B889BB21A4601239340DA433C
:102CB0007B68DB681A407B68DA6000BF0C37BD4672
:102CC00080BC704780B483B000AF78600B467B80D7
:102CD0007B689B687A8892B2D3409BB203F0010371
:102CE0009BB218460C37BD4680BC704780B582B099
:102CF00000AF4FF080431B69C3F30003DBB2002B2E
:102D00000BD07A68137843F0010313704FF08042C0
:102D100013696FF3000313614EE04FF080431B69AA
:102D2000C3F34003DBB2002B0BD07A68137843F077
:102D3000020313704FF0804213696FF34103136174
:102D40003AE04FF080431B69C3F38003DBB2002BF2
:102D50000BD07A68137843F0040313704FF080426D
:102D600013696FF38203136126E04FF080431B6900
:102D7000C3F3C003DBB2002B0BD07A68137843F0A7
:102D8000080313704FF0804213696FF3C30313619C
:102D900012E04FF080431B69C3F30013DBB2002B3A
:102DA0000AD07A68137843F0100313704FF0804212
:102DB00013696FF304131361034BDB68786898475A
:102DC00000BF0837BD4680BD9C41002080B582B061
:102DD00000AF304B1B69C3F30003DBB2002B0AD0FA
:102DE0007A68137843F0010313702A4A13696FF36A
:102DF0000003136146E0274B1B69C3F34003DBB2BA
:102E0000002B0AD07A68137843F002031370214A2A
:102E100013696FF34103136134E01E4B1B69C3F365
:102E20008003DBB2002B0AD07A68137843F00403E6
:102E30001370184A13696FF38203136122E0154B74
:102E40001B69C3F3C003DBB2002B0AD07A68137886
:102E500043F0080313700F4A13696FF3C303136140
:102E600010E00C4B1B69C3F30013DBB2002B09D03D
:102E70007A68137843F010031370064A13696FF3EE
:102E800004131361044BDB697868984700BF083767
:102E9000BD4680BD000400409C41002080B582B04A
:102EA00000AF334B1B69C3F30003DBB2002B0AD026
:102EB0007A68137843F0010313702D4A13696FF396
:102EC000000313614BE02A4B1B69C3F34003DBB2E1
:102ED000002B0AD07A68137843F002031370244A57
:102EE00013696FF34103136139E0214B1B69C3F38D
:102EF0008003DBB2002B0FD07A68137843F0040311
:102F000013701B4A13696FF3820313617A68137895
:102F100043F00103137022E0154B1B69C3F3C00398
:102F2000DBB2002B0AD07A68137843F008031370E1
:102F30000F4A13696FF3C303136110E00C4B1B6955
:102F4000C3F30013DBB2002B09D07A68137843F087
:102F500010031370064A13696FF304131361054BD2
:102F6000DB6A7868984700BF0837BD4680BD00BF60
:102F7000000800409C41002080B400AF0B4B5B6810
:102F80009B0803F00303022B0AD0022B0AD8002B64
:102F900002D0012B02D005E0054B03E0054B01E018
:102FA000054BFFE71846BD4680BC70470010024045
:102FB00000127A000024F400003FAB0180B500AF9E
:102FC000FFF7DAFF0246054B5B681B0903F00F03AE
:102FD0000349CB5C22FA03F3184680BD001002407F
:102FE0001000002080B500AFFFF7E8FF0246054B58
:102FF0005B681B0A03F007030349CB5C22FA03F367
:10300000184680BD001002400800002080B500AFC7
:10301000FFF7D4FF0246054B5B68DB0A03F00703AA
:103020000349CB5C22FA03F3184680BD001002402E
:103030000800002090B583B000AF786039607B68ED
:10304000574A93420CD1574A3B6814460FCB84E849
:103050000F00554B9B69544A43F48053936111E030
:103060007B68524A93420DD14E4B3A6803F11004EB
:1030700013460FCB84E80F004B4BDB694A4A43F4FD
:103080008043D3613B689B7803F00103D9B27A682F
:10309000138861F3CB2313803B689B7903F0010312
:1030A000D9B27A68138861F3410313803B68DB79F6
:1030B00003F00103D9B27A68138861F30003138027
:1030C0003B68DB7803F00103D9B27A68138861F3B7
:1030D000C71313803B681B79002B05D17A681388CE
:1030E00043F4007313801CE03B681B79012B0AD169
:1030F0007A6813886FF3492313807A68137943F051
:10310000040313710DE03B681B79022B09D17A6827
:1031100013886FF3492313807A6813796FF382035E
:1031200013713B685B7803F00103D9B27A681388A6
:1031300061F3820313803B685B7903F00703D9B224
:103140007A68138861F3C50313803B681B7A012BEF
:1031500014D17B68124A934206D1154B1B68144A5E
:1031600043F00803136009E07B68104A934205D1DD
:103170000F4B1B680E4A43F010031360786800F091
:1031800053F83B681B7803F00103D9B27A681388BF
:1031900061F38613138000BF0C37BD4690BD00BF9E
:1031A00000300140CC4100200010024000380040B7
:1031B00004E100E080B485B000AF78600B46FB709E
:1031C0000023FB607B68144A934202D1134BFB60DF
:1031D00005E07B68124A934201D1124BFB60FB6809
:1031E0001B7A012B05D17A68137943F080031371A0
:1031F00007E000BF7B689B68C3F34003DBB2002B92
:10320000F8D0FA787B68DA607B68DB68DBB2184656
:103210001437BD4680BC704700300140CC410020CF
:1032200000380040DC41002080B596B000AF7860E7
:1032300000237B657B686C4A934269D16B4B7B654D
:103240006B4B9B696A4A43F0040393617B6D1B7966
:10325000002B08D1674B1B683B65634A138843F416
:10326000807313800EE07B6D1B79012B03D1624BC1
:103270001B683B6506E07B6D1B79022B02D15F4B1F
:103280001B683B6507F1500319465D48FFF708FCD2
:103290007B6D5B78012B03D15A4B1B683B6506E0C5
:1032A0007B6D5B78002B02D1574B1B683B6507F1A8
:1032B000500319465248FFF7F3FB7B6D5B78012BF7
:1032C00003D1524B1B683B6506E07B6D5B78002B9E
:1032D00002D14F4B1B683B6507F150031946484824
:1032E000FFF7DEFB7B6D5B78012B03D1494B1B683D
:1032F0003B6506E07B6D5B78002B02D1464B1B687B
:103300003B6507F1500319463D48FFF7C9FB67E0ED
:103310007B68424A934263D1414B7B65344B9B6946
:10332000334A43F0080393617B6D1B79002B03D173
:103330003C4B1B683B650EE07B6D1B79012B03D179
:10334000384B1B683B6506E07B6D1B79022B02D175
:10335000354B1B683B6507F1500319462848FFF7BA
:103360009FFB7B6D5B78012B03D1304B1B683B656A
:1033700006E07B6D5B78002B02D12D4B1B683B6513
:1033800007F1500319461E48FFF78AFB7B6D5B78F7
:10339000012B03D1274B1B683B6506E07B6D5B78F7
:1033A000002B02D1244B1B683B6507F150031946E3
:1033B0001348FFF775FB7B6D5B78012B03D11F4B27
:1033C0001B683B6506E07B6D5B78002B02D11C4BD4
:1033D0001B683B6507F1500319460948FFF760FB7E
:1033E00000BF5837BD4680BD00300140CC410020B1
:1033F00000100240804800088448000888480008FF
:10340000000801408C4800089048000894480008D3
:10341000984800089C480008A04800080038004070
:10342000DC410020A4480008A8480008AC48000877
:10343000B0480008B4480008B8480008BC48000874
:10344000C048000880B582B000AF3B1D0549184652
:1034500000F00CF8044BDB683879984700BF083758
:10346000BD4680BD00300140CC41002080B483B017
:1034700000AF786039603B689B68C3F30003DBB240
:10348000002B0FD07A6813786FF3000313707A68FB
:10349000137843F0020313703A6813796FF38613BD
:1034A000137115E03B689B68C3F34003DBB2002B4C
:1034B0000ED07A68137843F0010313707A6813789A
:1034C0006FF3410313703A6813796FF3C7131371E5
:1034D00000BF0C37BD4680BC7047000080B584B08B
:1034E00000AF7860064B1B68FB6007F10C031946C0
:1034F0000448FFF7D5FA00BF1037BD4680BD00BFB6
:10350000C44800080008014090B583B000AF78605F
:1035100039603D4A3B6814460FCB84E80F003B4AB4
:103520007B6813607B683A4A934205D1394B9B69AB
:10353000384A43F4006393613B681B881A467B68F2
:103540009A627A68136843F0800313603B685B8873
:103550001A467B68DA623B689B881A467B681A6366
:103560003B685B7A022B1CD0022B20DC002B02D0A4
:10357000012B0BD01BE07A6813686FF346131360BE
:103580007A6813686FF30413136013E07A681368A2
:103590006FF3461313607A68136843F010031360E7
:1035A00008E07A68136843F06003136002E0FEF7F6
:1035B000DBFD00BF7868FFF791FF7A68136843F07E
:1035C000010313603B681B7A002B0BD17A68D36828
:1035D00043F00103D360104B1B680F4A43F00073A4
:1035E00013600CE000BF7B681B69C3F30003DBB210
:1035F000002BF8D07A6813696FF30003136100BFE2
:103600000C37BD4690BD00BFEC410020FC410020BE
:10361000002C01400010024000E100E080B500AF46
:10362000054BDB689847054B1A6813696FF3000375
:10363000136100BF80BD00BFEC410020FC410020B1
:1036400080B500AF054BDB689847054B1A681369D6
:103650006FF34103136100BF80BD00BFEC41002048
:10366000FC41002080B500AF054BDB689847054B57
:103670001A6813696FF30003136100BF80BD00BFB8
:10368000EC410020FC41002080B500AF054BDB6819
:103690009847054B1A6813696FF30003136100BF65
:1036A00080BD00BFEC410020FC41002080B586B009
:1036B00000AF0346FB80FFF7A9FC03460F4AA2FBBD
:1036C00003239B0C9BB2013B9BB23B81FB88013BDC
:1036D0009BB27B810023BB810023FB8101233B74D0
:1036E00000237B7400237B6107F10803194604481B
:1036F000FFF70AFF00BF1837BD4680BD83DE1B43BE
:10370000002C014080B584B000AF0346FB8000234D
:10371000FB6006E04FF47A70FFF7C8FFFB680133E7
:10372000FB60FB88FA689A42F4D300BF00BF1037F1
:10373000BD4680BDB0B582B000AF786039607B68AF
:103740008D4A93420CD18D4A3B6814460FCB84E8D6
:103750000F008B4B9B698A4A43F48043936124E0BA
:103760007B68884A93420ED1844B3A6803F1100477
:1037700013460FCB84E80F00814BDB69804A43F48A
:103780000033D36111E07B687F4A93420DD17B4BBC
:103790003A6803F1200413460FCB84E80F00784BFE
:1037A000DB69774A43F48023D3617B68DB6843F4A9
:1037B00000527B68DA607B68DB683A681279120332
:1037C0001A437B68DA607B681B693A68D279120316
:1037D0001A437B681A613B685B7A002B0BD17B68CC
:1037E000DB6843F008027B68DA607B68DB6843F0E3
:1037F00004027B68DA603B681B7A032B26D801A29F
:1038000052F823F015380008233800083138000832
:103810003F3800087B685B6923F440727B685A611B
:1038200014E07B685B6943F480727B685A610DE049
:103830007B685B6943F400727B685A6106E07B68D1
:103840005B6943F440727B685A6100BF7B68DB6848
:103850003A68527952021A437B68DA603B689B7976
:10386000012B25D17B68444A934206D1474B1B6804
:10387000464A43F02003136014E07B68414A9342B8
:1038800006D1424B1B68414A43F04003136009E0F4
:103890007B683D4A934205D13C4B1B683B4A43F051
:1038A000800313607B68DB6843F020027B68DA608A
:1038B0007B68314A93422DD1FFF7A8FB02463B6853
:1038C0001B681B01B2FBF3F31C01FFF79FFB0246D1
:1038D00013469B0013449A001A443B681B689B00E4
:1038E000B2FBF3F5FFF792FB02463B681B681B0136
:1038F000B2FBF3F3642202FB03F3EB1A1B01244A2D
:10390000A2FB03235B0903F00F0344EA03027B6875
:103910009A6070E07B681B4A93423BD1FFF762FBE1
:1039200002463B681B681B01B2FBF3F31C01FFF767
:1039300059FB024613469B0013449A001A443B6805
:103940001B689B00B2FBF3F5FFF74CFB02463B689C
:103950001B681B01B2FBF3F3642202FB03F3EB1AB7
:103960001B010B4AA2FB03235B0903F00F0344EA8C
:1039700003027B689A603EE000380140004200206C
:1039800000100240004400400048004004E100E014
:103990001F85EB517B681B4A93422CD1FFF722FB1A
:1039A00002463B681B681B01B2FBF3F31C01FFF7E7
:1039B00019FB024613469B0013449A001A443B68C5
:1039C0001B689B00B2FBF3F5FFF70CFB02463B685C
:1039D0001B681B01B2FBF3F3642202FB03F3EB1A37
:1039E0001B01094AA2FB03235B0903F00F0344EA0E
:1039F00003027B689A60786800F092F800BF08378D
:103A0000BD46B0BD004800401F85EB5180B485B075
:103A100000AF78600B46FB700023FB607B68154AA3
:103A2000934202D1144BFB600CE07B68134A934233
:103A300002D1134BFB6005E07B68124A934201D12F
:103A4000114BFB6000BF7B681B6803F08003002BF9
:103A5000F9D0FB681B79012B03D1FA787B685A6097
:103A600002E0FA787B685A6000BF1437BD4680BC1C
:103A7000704700BF00380140004200200044004071
:103A800010420020004800402042002080B485B051
:103A900000AF78600023FB607B681B4A934202D131
:103AA0001A4BFB600CE07B68194A934202D1194B18
:103AB000FB6005E07B68184A934201D1174BFB601D
:103AC000FB689B79002B07D100BF7B681B6803F064
:103AD0002003002BF9D002E0FB689B79012BFB68E7
:103AE0005B79002B04D17B685B68DBB29BB206E09C
:103AF0007B685B68DBB29BB203F07F039BB2184626
:103B00001437BD4680BC7047003801400042002099
:103B100000440040104200200048004020420020A5
:103B200080B588B000AF78602C4B1B68FB617B6868
:103B30002B4A934215D12B4B9B692A4A43F004032D
:103B4000936107F11C0319462748FEF7A9FF274B8D
:103B50001B68FB6107F11C0319462348FEF7A0FF11
:103B600038E07B68224A934218D11E4B9B691D4A5C
:103B700043F0040393611F4B1B68FB6107F11C03B7
:103B800019461948FEF78CFF1B4B1B68FB6107F1B8
:103B90001C0319461448FEF783FF1BE07B68174A95
:103BA000934217D10F4B9B690E4A43F00803936170
:103BB000134B1B68FB6107F11C0319461148FEF704
:103BC0006FFF114B1B68FB6107F11C0319460D4881
:103BD000FEF766FF00BF2037BD4680BDC84800081D
:103BE000003801400010024000080140CC480008A5
:103BF00000440040D0480008D44800080048004075
:103C0000D8480008000C0140DC48000880B500AF2F
:103C1000024BDB68984700BF80BD00BF0042002018
:103C200080B500AF024BDB69984700BF80BD00BF85
:103C30000042002080B500AF024BDB6A984700BF0E
:103C400080BD00BF0042002080B400AFFEE700004E
:103C500080B400AF0A4B5B68094A43F4A013536079
:103C6000074B1B68064A43F080731360044B5B6884
:103C7000034A43F00203536000BFBD4680BC704757
:103C80000010024080B500AFFDF704FB0346002B97
:103C900011D1124B00221A70114B1B78002BF3D15B
:103CA00066211048FFF7B2FE0D4B1B780133DAB2E4
:103CB0000B4B1A70E8E70A4B00221A70074B1B786F
:103CC000002BE1D155210748FFF7A0FE034B1B78DD
:103CD0000133DAB2014B1A70D6E700BF444200202C
:103CE000434200200038014080B485B000AF034655
:103CF000FB71FB79A3F5966213465B0013449B01AD
:103D00009B1A084A82FB03121A449212DB17D31A39
:103D1000DBB24033FB73FB7B18461437BD4680BCD7
:103D2000704700BFA16F2AEC80B500AF034A0021A5
:103D30000348FEF779F900BF80BD00BF5242002062
:103D40000024014080B586B000AF07F110030022C7
:103D50001A609A8000233B7101237B710023BB71A1
:103D60000023FB7107F11003BB600B4BFB603B1D95
:103D700019460A48FDF7CCFF00233B800323BB70A4
:103D80000023FB703B4619460548FEF789FE00BF3D
:103D90001837BD4680BD00BF293D00080024014002
:103DA000000C014080B588B000AF264B1B68FB615A
:103DB00007F11C0319462448FEF772FE234B1B68CB
:103DC000FB6107F11C0319462148FEF769FE214BF0
:103DD0001B68FB6107F11C0319461D48FEF760FED6
:103DE0001D4B1B68FB6107F11C0319461848FEF7C1
:103DF00057FE1A4B1B68FB6107F11C031946144858
:103E0000FEF74EFE164B1B68FB6107F11C031946BB
:103E10000F48FEF745FE134B1B68FB6107F11C03BF
:103E200019460B48FEF73CFE0F4B1B68FB6107F180
:103E30001C0319460648FEF733FE00BF2037BD4677
:103E400080BD00BFE048000800080140E4480008C9
:103E5000000C0140E8480008EC480008F048000861
:103E6000F4480008F8480008FC48000880B582B013
:103E700000AF0346FB80FB88DBB203F00103DBB23B
:103E80001A460F212D48FEF7F5FEFB885B089BB212
:103E9000DBB203F00103DBB21A4603212848FEF728
:103EA000E9FEFB889B089BB2DBB203F00103DBB2A7
:103EB0001A4604212248FEF7DDFEFB88DB089BB290
:103EC000DBB203F00103DBB21A4605211C48FEF702
:103ED000D1FEFB881B099BB2DBB203F00103DBB20E
:103EE0001A4606211648FEF7C5FEFB885B099BB201
:103EF000DBB203F00103DBB21A4607211048FEF7DC
:103F0000B9FEFB889B099BB2DBB203F00103DBB275
:103F10001A4608210A48FEF7ADFEFB88DB099BB272
:103F2000DBB203F00103DBB21A4609210448FEF7B5
:103F3000A1FE00BF0837BD4680BD00BF000801409C
:103F4000000C014080B400AF174B1B88632B22D9B3
:103F5000164B1B88002B03D1154B00221A70F3E778
:103F6000124B1B88B3F5967F03D8114B01221A70B0
:103F7000EAE70E4B1B88B3F5967F08D90B4B1B88DD
:103F8000B3F5FA7F03D20A4B02221A700AE0084BFB
:103F900000221A70D8E7054B1B88002BD4D1044BA4
:103FA00000221A70D0E700BFCE3F0020CC3F002097
:103FB0002100002080B582B000AF0023FB710023F8
:103FC0007B800023BB80304B1B78012B36D1FB79E3
:103FD000002B0AD12D4B1B88DBB21846FFF784FE5D
:103FE0000346BB80FB790133FB71294B1B789BB2E5
:103FF000BA889A4206D2264B1B789BB21846FFF726
:1040000035FFE0E7234B1B78012B03D14020FFF75E
:104010002DFFD8E71F4B1B78022B06D1BB885B080E
:104020009BB21846FFF722FFCDE71A4B1B78002BF7
:10403000C9D1BB881846FFF719FFC4E7124B1B789C
:10404000002BC0D10023FB71124B1B78012B03D135
:104050004020FFF70BFFB6E70E4B1B78022B08D171
:104060000B4B1B785B08DBB29BB21846FFF7FEFEDA
:10407000A9E7084B1B78002BA5D1054B1B789BB2F9
:104080001846FFF7F3FE9EE73D4200205242002013
:10409000544200202100002080B500AF00212248BA
:1040A000FEF710FE0346002B0DD01E20FFF72AFB63
:1040B00000211D48FEF706FE0346002B06D01B4BD1
:1040C00001221A7002E0194B00221A70184A0021CE
:1040D0001848FDF7A9FF164B1B88B3F5966F03D25E
:1040E000154B40221A70D9E7114B1B8840F6061277
:1040F000934203D9104BFF221A70CFE70C4B1B8859
:10410000A3F5966213465B0013449B019B1A0B4A6E
:1041100082FB03121A449212DB17D31ADBB240332C
:10412000DAB2054B1A70B9E7000C01403D4200209D
:10413000524200200024014054420020A16F2AEC8A
:1041400080B500AF084B1B6804211846FCF7C8F97E
:10415000064B1B781846FDF77DFC034B1B680221BC
:104160001846FCF7BDF9EDE74C4200203242002032
:1041700080B500AFA64B1B6803F02003002B06D0D0
:10418000A348FFF783FC0346DAB2A24B1A70A14B97
:104190001B78233B1D2B60D801A252F823F000BFEF
:1041A000194200085B4200085B42000853420008C5
:1041B0005B4200085B4200085B420008274200089F
:1041C0003D4200085B4200085B4200085B42000879
:1041D0002F4200085B4200085B4200085B42000877
:1041E0005B4200085B4200085B4200085B4200083B
:1041F0005B4200085B4200085B4200085B4200082B
:104200005B4200085B4200085B4200085B4200081A
:104210005B420008454200087F4B01221A707F4B29
:1042200000221A7019E07D4B01221A7015E07C4BB8
:1042300001221A707B4B00221A700EE0794B01228A
:104240001A700AE0784B01221A70784B00221A701B
:1042500003E0764B01221A7000BF714B1B78002BD4
:1042600043D0734B1B78002B02D16A4B00221A708B
:104270006C4B1B78002B12D16E4B1B881B021AB2A1
:10428000644B1B781BB213431BB29AB2694B1A8062
:10429000674B1B780133DAB2654B1A7025E0654B2A
:1042A0001A8840F60F7313409AB2624B1A80614B22
:1042B0001B881B115BB223F00F035AB25D4B1B88A6
:1042C0005BB203F00F035BB213435BB2DAB25A4B3B
:1042D0001A70584B00221A80514B00221A70514B11
:1042E00000221A70524B00221A704B4B1B78002B85
:1042F00043D04F4B1B78002B02D1464B00221A7043
:10430000464B1B78002B12D14C4B1B881B021AB258
:10431000404B1B781BB213431BB29AB2474B1A8017
:10432000434B1B780133DAB2414B1A7025E0434B03
:104330001A8840F60F7313409AB2404B1A803F4BD5
:104340001B881B115BB223F00F035AB23B4B1B8837
:104350005BB203F00F035BB213435BB2DAB2384BCC
:104360001A70364B00221A802C4B00221A702A4BEE
:1043700000221A702E4B00221A702B4B1B78002B38
:1043800043D02B4B1B78002B02D1224B00221A70FA
:10439000264B1B78002B12D12A4B1B881B021AB20A
:1043A0001C4B1B781BB213431BB29AB2254B1A80CD
:1043B0001F4B1B780133DAB21D4B1A7025E0214BDD
:1043C0001A8840F60F7313409AB21E4B1A801D4B89
:1043D0001B881B115BB223F00F035AB2194B1B88C9
:1043E0005BB203F00F035BB213435BB2DAB2164B5E
:1043F0001A70144B00221A800B4B00221A700B4BC0
:1044000000221A700A4B00221A7000BF80BD00BF44
:10441000003801403442002035420020364200205E
:1044200037420020384200203E4200203F42002018
:10443000334200203A4200203C420020304200201B
:1044400032420020404200204242002090B585B018
:1044500000AF074B3C460FCB84E80F003B461946A4
:104460000448FFF767F900BF1437BD4690BD00BF91
:10447000004900080038014080B584B004AF264BE5
:1044800000221A7001212548FEF71CFC0346002B70
:104490003FD11E20FFF736F901212048FEF712FC1C
:1044A0000346002B35D11E4B1B78012B31D11D4B00
:1044B0001B78992B2DD01B4B1B78002B29D0184B28
:1044C00000221A70174B00221A70134B00221A7028
:1044D000154B00221A70154B00221A70FF2302930D
:1044E000FF230193FF2300937F2300229F210020BD
:1044F000FDF729FA4020FFF7B9FC33210C48FFF7FC
:1045000085FA1E20FFF7FEF80A4B1B681846FCF7D9
:104510005BF900BFBD4680BD51420020000C014048
:10452000504200203C4200204342002044420020F0
:10453000003801404842002080B58AB000AF012316
:10454000BB82114BBB610123BB830723FB83002389
:1045500087F82030012387F821300C4B7B6207F16C
:1045600014031846FEF794F800237B600123BB80F8
:104570000323BB713B1D19460348FEF791FA00BFA8
:104580002837BD4680BD00BF000C014079440008BB
:1045900080B500AF01211948FEF794FB0346012BBB
:1045A000F8D11E20FFF7AEF801211448FEF78AFB70
:1045B0000346012BEED1124B1B78002B09D122218F
:1045C0001048FFF723FA0E4B1B780133DAB20C4B7D
:1045D0001A700D4B1B78992BDCD00B4B1B78002BE2
:1045E000D8D00A4B01221A70054B00221A70084BD2
:1045F0001B681846FCF738F8CCE700BF000C0140F8
:1046000051420020003801403C420020504200202E
:104610004842002080B500AFFFF71AFB6420FFF787
:1046200071F85520FDF778F86420FFF76BF8FFF775
:104630000DFF6420FFF766F8FFF784FB6420FFF7A7
:1046400061F8FFF7AFFB6420FFF75CF8FCF7ECFDC7
:104650006420FFF757F8FFF76FFF6420FFF752F869
:1046600000210020FCF72EFF6420FFF74BF800BF6D
:1046700080BD000080B582B002AFFFF7CBFF002302
:1046800001930223009300234FF480722F49304896
:10469000FBF7E5FD0346012B01D0FFF7D5FA002318
:1046A00001930223009300234FF4807229492A4882
:1046B000FBF7D5FD0346012B01D0FFF7C5FA002318
:1046C00001930223009300234FF48072234924486E
:1046D000FBF7C5FD0346012B01D0FFF7B5FA214BCF
:1046E00001930223009300234FF480721E491F4858
:1046F000FBF7B5FD0346012B01D0FFF7A5FA002318
:1047000001930223009300234FF480721849194843
:10471000FBF7A5FD0346012B01D0FFF795FA164BD9
:1047200001930523009300234FF48072134914482A
:10473000FBF795FD0346012B01D0FFF785FA4421D5
:104740001048FFF763F9FCF7B7F8FEE710490008D7
:10475000B53F00082C490008453F000840490008C3
:10476000994000084C4200204C4900084141000893
:1047700060490008853C0008484200207449000850
:1047800091450008003801400D488546AFF3008090
:104790000C480D490D4A002302E0D458C45004339C
:1047A000C4188C42F9D30A4A0A4C002301E0136072
:1047B0000432A242FBD300F019F8FFF75BFFFEE7DB
:1047C0000050002000000020240000202CD0010810
:1047D0002400002058420020FEE703460244934292
:1047E00000D1704703F8011BF9E7000070B50026FF
:1047F0000C4D0D4C641BA410A64209D100F01AF810
:1048000000260A4D0A4C641BA410A64205D170BDB7
:1048100055F8043B98470136EEE755F8043B9847B6
:104820000136F2E724D0010824D0010824D0010881
:1048300028D00108F8B500BFF8BC08BC9E467047F8
:0C484000F8B500BFF8BC08BC9E467047ED
:10484C0049444C4500000000010001000C0001002F
:10485C000B0001000800010000C201000000010073
:10486C00000000001D130008020004010C000601EA
:10487C000B00010004000401040006010400010007
:10488C0005000601050001000600010006000601F6
:10489C0007000601070001000C0006010C000100D6
:1048AC000D0006010D0001000E0001000E000601B6
:1048BC000F0006010F0001000800060109000602A6
:1048CC000A00010002000602030001000A000602B1
:1048DC000B0001000F00040103000401040004019B
:1048EC00050004010600040107000401080004018E
:1048FC000900040100C201000000010000000000DA
:10490C00714100084143435F7468726F7474656C45
:10491C005F48616E646C6C65725F5441534B000070
:10492C004143435F48616E646C6C65725F544153E4
:10493C004B000000424F54544F4E5F5245414400CF
:10494C005453525F48616E646C6C65725F54415392
:10495C004B000000444D535F48616E646C6C657293
:10496C005F5441534B000000464143455F49445F4F
:10497C005441534B00000000FFFFFFFFFFFFFFFF00
:10498C00FFFFFFFFFFFFFFFFFFFFFFFFFFFFFFFF2B
:10499C00FFFFFFFFFFFFFFFFFFFFFFFFFFFFFFFF1B
:1049AC00FFFFFFFFFFFFFFFFFFFFFFFFFFFFFFFF0B
:1049BC00FFFFFFFFFFFFFFFFFFFFFFFFFFFFFFFFFB
:1049CC00FFFFFFFFFFFFFFFF1C577D47BE47BE3FAA
:1049DC00DF37DF37DF37FF37FF2FFF2FFF2FFF2F9B
:1049EC00FF37DF37DF37FF37BE3FBE47BE4F7B6732
:1049FC00FFFFFFFFFFFFFFFFFFFFFFFFFFFFFFFFBB
:104A0C00FFFFFFFFFFFFFFFFFFFFFFFFFFFFFFFFAA
:104A1C00FFFFFFFFFFFFFFFFFFFFFFFFFFFFFFFF9A
:104A2C00FFFFFFFFFFFFFFFFFFFFFFFFFFFFFFFF8A
:104A3C00FFFFFFFFFFFFFFFFFFFFFFFFFFFFFFFF7A
:104A4C00FFFFFFFFFFFFFFFFFFFFFFFFFFFFFFFF6A
:104A5C00FFFFFFFFFFFFFFFFFFFFFFFFFFFFFFFF5A
:104A6C00FFFFFFFFFFFFFFFFFFFFFFFFFFFFFFFF4A
:104A7C00FFFFFFFFFFFFFFFFFFFFFFFFFFFFFFFF3A
:104A8C00FFFFFFFFFFFFFFFF5C579D47DE37DF3760
:104A9C00DF37FF2FFF2FFF27FF27FF27FF27FF2FD2
:104AAC00FF2FFF2FFF2FFF2FFF2FFF27FF27FF27A2
:104ABC00FF27FF2FFF2FFF37DF37BE3FBD3F5C4F78
:104ACC00FFFFFFFFFFFFFFFFFFFFFFFFFFFFFFFFEA
:104ADC00FFFFFFFFFFFFFFFFFFFFFFFFFFFFFFFFDA
:104AEC00FFFFFFFFFFFFFFFFFFFFFFFFFFFFFFFFCA
:104AFC00FFFFFFFFFFFFFFFFFFFFFFFFFFFFFFFFBA
:104B0C00FFFFFFFFFFFFFFFFFFFFFFFFFFFFFFFFA9
:104B1C00FFFFFFFFFFFFFFFFFFFFFFFFFFFFFFFF99
:104B2C00FFFFFFFFFFFFFFFFFFFFFFFFFFFFFFFF89
:104B3C00FFFFFFFFFFFFFFFFFFFFFFFFFFFFFFFF79
:104B4C00FFFFFFFFFFFFFFFFFFFF7C4F9E3FBF3FBD
:104B5C00FF2FFF2FFF27FF27FF2FFF2FFF2FFF2FE9
:104B6C00FF2FFF2FFF2FFF2FFF2FFF2FFF2FFF2FC9
:104B7C00FF2FFF2FFF2FFF2FFF2FFF2FFF2FFF2FB9
:104B8C00FF27FF27FF2FFF37DF37BE3F9D47FFFF74
:104B9C00FFFFFFFFFFFFFFFFFFFFFFFFFFFFFFFF19
:104BAC00FFFFFFFFFFFFFFFFFFFFFFFFFFFFFFFF09
:104BBC00FFFFFFFFFFFFFFFFFFFFFFFFFFFFFFFFF9
:104BCC00FFFFFFFFFFFFFFFFFFFFFFFFFFFFFFFFE9
:104BDC00FFFFFFFFFFFFFFFFFFFFFFFFFFFFFFFFD9
:104BEC00FFFFFFFFFFFFFFFFFFFFFFFFFFFFFFFFC9
:104BFC00FFFFFFFFFFFFFFFFFFFFFFFFFFFFFFFFB9
:104C0C00FFFFFFFFFFFFFFFFFFFFFFFFBA567D47D0
:104C1C00BE3FDF37FF27FF27FF27FF2FFF2FFF2F79
:104C2C00FF2FFF2FFF2FFF2FFF2FFF2FFF2FFF2F08
:104C3C00FF2FFF2FFF2FFF2FFF2FFF2FFF2FFF2FF8
:104C4C00FF2FFF2FFF2FFF2FFF2FFF2FFF2FFF2FE8
:104C5C00FF27FF27FF37DF379D3F9C66FFFFFFFFD6
:104C6C00FFFFFFFFFFFFFFFFFFFFFFFFFFFFFFFF48
:104C7C00FFFFFFFFFFFFFFFFFFFFFFFFFFFFFFFF38
:104C8C00FFFFFFFFFFFFFFFFFFFFFFFFFFFFFFFF28
:104C9C00FFFFFFFFFFFFFFFFFFFFFFFFFFFFFFFF18
:104CAC00FFFFFFFFFFFFFFFFFFFFFFFFFFFFFFFF08
:104CBC00FFFFFFFFFFFFFFFFFFFFFFFFFFFFFFFFF8
:104CCC00FFFFFFFFFFFFFFFFFFFFFFFFFFFFFFFFE8
:104CDC005C4F9D3FDF37FF2FFF27FF2FFF2FFF2F4D
:104CEC00FF2FFF2FFF2FFF2FFF2FFF2FFF2FFF2F48
:104CFC00FF2FFF2FFF2FFF2FFF2FFF2FFF2FFF2F38
:104D0C00FF2FFF2FFF2FFF2FFF2FFF2FFF2FFF2F27
:104D1C00FF2FFF2FFF2FFF2FFF2FFF2FFF2FFF271F
:104D2C00FF2FDE2FBE3F3B47FFFFFFFFFFFFFFFFC5
:104D3C00FFFFFFFFFFFFFFFFFFFFFFFFFFFFFFFF77
:104D4C00FFFFFFFFFFFFFFFFFFFFFFFFFFFFFFFF67
:104D5C00FFFFFFFFFFFFFFFFFFFFFFFFFFFFFFFF57
:104D6C00FFFFFFFFFFFFFFFFFFFFFFFFFFFFFFFF47
:104D7C00FFFFFFFFFFFFFFFFFFFFFFFFFFFFFFFF37
:104D8C00FFFFFFFFFFFFFFFFFFFFFFFFFFFFFFFF27
:104D9C00FFFFFFFF5C4FBD37DF37FF27FF27FF2FDC
:104DAC00FF2FFF2FFF2FFF2FFF2FFF2FFF2FFF2F87
:104DBC00FF2FFF2FFF2FFF2FFF2FFF2FFF2FFF2F77
:104DCC00FF2FFF2FFF2FFF2FFF2FFF2FFF2FFF2F67
:104DDC00FF2FFF2FFF2FFF2FFF2FFF2FFF2FFF2F57
:104DEC00FF2FFF2FFF2FFF2FFF2FFF27FF27DF2F77
:104DFC00BE3FFB4EFFFFFFFFFFFFFFFFFFFFFFFF6D
:104E0C00FFFFFFFFFFFFFFFFFFFFFFFFFFFFFFFFA6
:104E1C00FFFFFFFFFFFFFFFFFFFFFFFFFFFFFFFF96
:104E2C00FFFFFFFFFFFFFFFFFFFFFFFFFFFFFFFF86
:104E3C00FFFFFFFFFFFFFFFFFFFFFFFFFFFFFFFF76
:104E4C00FFFFFFFFFFFFFFFFFFFFFFFFFFFFFFFF66
:104E5C00FFFFFFFFFFFFFFFFF9569E3FDF37FF27E6
:104E6C00FF2FFF2FFF2FFF2FFF2FFF2FFF2FFF2FC6
:104E7C00FF2FFF2FFF2FFF2FFF2FFF2FFF2FFF2FB6
:104E8C00FF2FFF2FFF2FFF2FFF2FFF2FFF2FFF2FA6
:104E9C00FF2FFF2FFF2FFF2FFF2FFF2FFF2FFF2F96
:104EAC00FF2FFF2FFF2FFF2FFF2FFF2FFF2FFF2F86
:104EBC00FF2FFF2FFF2FFF2FFF27DF37BE3FDB66B4
:104ECC00FFFFFFFFFFFFFFFFFFFFFFFFFFFFFFFFE6
:104EDC00FFFFFFFFFFFFFFFFFFFFFFFFFFFFFFFFD6
:104EEC00FFFFFFFFFFFFFFFFFFFFFFFFFFFFFFFFC6
:104EFC00FFFFFFFFFFFFFFFFFFFFFFFFFFFFFFFFB6
:104F0C00FFFFFFFFFFFFFFFFFFFFFFFFFFFFFFFFA5
:104F1C00FFFFFFFFFFFFFFFFFFFFFFFFFFFF7C47D0
:104F2C00DE37FF27FF27FF2FFF2FFF2FFF2FFF2F2E
:104F3C00FF2FFF2FFF2FFF2FFF2FFF2FFF2FFF2FF5
:104F4C00FF2FFF2FFF2FFF2FFF2FFF2FFF2FFF2FE5
:104F5C00FF2FFF2FFF2FFF2FFF2FFF2FFF2FFF2FD5
:104F6C00FF2FFF2FFF2FFF2FFF2FFF2FFF2FFF2FC5
:104F7C00FF2FFF2FFF2FFF2FFF2FFF2FFF2FFF2FB5
:104F8C00FF2FFF27FF27DE379D47FFFFFFFFFFFFA8
:104F9C00FFFFFFFFFFFFFFFFFFFFFFFFFFFFFFFF15
:104FAC00FFFFFFFFFFFFFFFFFFFFFFFFFFFFFFFF05
:104FBC00FFFFFFFFFFFFFFFFFFFFFFFFFFFFFFFFF5
:104FCC00FFFFFFFFFFFFFFFFFFFFFFFFFFFFFFFFE5
:104FDC00FFFFFFFFFFFFFFFFFFFFFFFFFFFFFFFFD5
:104FEC00FFFF5D4FBE3FFF2FFF27FF2FFF2FFF2F30
:104FFC00FF2FFF2FFF2FFF2FFF2FFF2FFF2FFF2F35
:10500C00FF2FFF2FFF2FFF2FFF2FFF2FFF2FFF2F24
:10501C00FF2FFF2FFF2FFF2FFF2FFF2FFF2FFF2F14
:10502C00FF2FFF2FFF2FFF2FFF2FFF2FFF2FFF2F04
:10503C00FF2FFF2FFF2FFF2FFF2FFF2FFF2FFF2FF4
:10504C00FF2FFF2FFF2FFF2FFF2FFF2FFF2FFF27EC
:10505C00DF2FBE3F5B4FFFFFFFFFFFFFFFFFFFFF99
:10506C00FFFFFFFFFFFFFFFFFFFFFFFFFFFFFFFF44
:10507C00FFFFFFFFFFFFFFFFFFFFFFFFFFFFFFFF34
:10508C00FFFFFFFFFFFFFFFFFFFFFFFFFFFFFFFF24
:10509C00FFFFFFFFFFFFFFFFFFFFFFFFFFFFFFFF14
:1050AC00FFFFFFFFFFFFFFFF9E47DF37FF27FF2FAD
:1050BC00FF2FFF2FFF2FFF2FFF2FFF2FFF2FFF2F74
:1050CC00FF2FFF2FFF2FFF2FFF2FFF2FFF2FFF2F64
:1050DC00FF2FFF2FFF2FFF2FFF37FF37DF379E37B5
:1050EC007D2F5D375D377D2F9E37DF37FF37FF37DD
:1050FC00FF2FFF2FFF2FFF2FFF2FFF2FFF2FFF2F34
:10510C00FF2FFF2FFF2FFF2FFF2FFF2FFF2FFF2F23
:10511C00FF2FFF2FFF2FFF2FFF2FFF27DF379D477D
:10512C00FFFFFFFFFFFFFFFFFFFFFFFFFFFFFFFF83
:10513C00FFFFFFFFFFFFFFFFFFFFFFFFFFFFFFFF73
:10514C00FFFFFFFFFFFFFFFFFFFFFFFFFFFFFFFF63
:10515C00FFFFFFFFFFFFFFFFFFFFFFFFFFFFFFFF53
:10516C00FFFFFFFFFFFFFFFFFFFFFFFF10FC9E474E
:10517C00FF2FFF27FF2FFF2FFF2FFF2FFF2FFF2FBB
:10518C00FF2FFF2FFF2FFF2FFF2FFF2FFF2FFF2FA3
:10519C00FF2FFF2FFF2FFF37BE37DB2E962D30242E
:1051AC000C1B491286092409E300C200C200E3006B
:1051BC002409860929120C1B5024962DDB2EBE3790
:1051CC00FF37FF2FFF2FFF2FFF2FFF2FFF2FFF2F5B
:1051DC00FF2FFF2FFF2FFF2FFF2FFF2FFF2FFF2F53
:1051EC00FF2FFF2FFF27FF2F9E3F1084FFFFFFFF96
:1051FC00FFFFFFFFFFFFFFFFFFFFFFFFFFFFFFFFB3
:10520C00FFFFFFFFFFFFFFFFFFFFFFFFFFFFFFFFA2
:10521C00FFFFFFFFFFFFFFFFFFFFFFFFFFFFFFFF92
:10522C00FFFFFFFFFFFFFFFFFFFFFFFFFFFFFFFF82
:10523C00FFFFFB66DE37FF27FF27FF2FFF2FFF2F18
:10524C00FF2FFF2FFF2FFF2FFF2FFF2FFF2FFF2FE2
:10525C00FF2FFF2FFF2FFF2FFF373C37552D4D1BF7
:10526C008609610000000000000000000000000042
:10527C000000000000000000000000000000000022
:10528C0000000000610086094D1B752D3C37FF376F
:10529C00FF2FFF2FFF2FFF2FFF2FFF2FFF2FFF2F92
:1052AC00FF2FFF2FFF2FFF2FFF2FFF2FFF2FFF2F82
:1052BC00FF27BE3FFB56FFFFFFFFFFFFFFFFFFFF78
:1052CC00FFFFFFFFFFFFFFFFFFFFFFFFFFFFFFFFE2
:1052DC00FFFFFFFFFFFFFFFFFFFFFFFFFFFFFFFFD2
:1052EC00FFFFFFFFFFFFFFFFFFFFFFFFFFFFFFFFC2
:1052FC00FFFFFFFFFFFFFFFF7D57DE37FF27FF2F6D
:10530C00FF2FFF2FFF2FFF2FFF2FFF2FFF2FFF2F21
:10531C00FF2FFF2FFF2FFF2FFF2FFF379E37962DCD
:10532C00CB1AC308000000000000000000000000C1
:10533C000000000000000000000000000000000061
:10534C000000000000000000000000000000000051
:10535C0000000000C308EB12962D9E37FF2FFF2F85
:10536C00FF2FFF2FFF2FFF2FFF2FFF2FFF2FFF2FC1
:10537C00FF2FFF2FFF2FFF2FFF2FFF27DE373C4F75
:10538C00FFFFFFFFFFFFFFFFFFFFFFFFFFFFFFFF21
:10539C00FFFFFFFFFFFFFFFFFFFFFFFFFFFFFFFF11
:1053AC00FFFFFFFFFFFFFFFFFFFFFFFFFFFFFFFF01
:1053BC00FFFFFFFFFFFFFFFFFFFFFFFFFFFF5E4F42
:1053CC00DF37FF27FF2FFF2FFF2FFF2FFF2FFF2F81
:1053DC00FF2FFF2FFF2FFF2FFF2FFF2FFF2FFF3749
:1053EC005C3771246509000000000000000000001B
:1053FC0000000000000000000000000000000000A1
:10540C000000000000000000000000000000000090
:10541C000000000000000000000000000000000080
:10542C000000650971243C37FF2FFF2FFF2FFF2F42
:10543C00FF2FFF2FFF2FFF2FFF2FFF2FFF2FFF2FF0
:10544C00FF2FFF2FFF27DF377C47FFFFFFFFFFFFFB
:10545C00FFFFFFFFFFFFFFFFFFFFFFFFFFFFFFFF50
:10546C00FFFFFFFFFFFFFFFFFFFFFFFFFFFFFFFF40
:10547C00FFFFFFFFFFFFFFFFFFFFFFFFFFFFFFFF30
:10548C00FFFFFFFF9D47DF37FF27FF2FFF2FFF2F6A
:10549C00FF2FFF2FFF2FFF2FFF2FFF2FFF2FFF2F90
:1054AC00FF2FFF377D375124040900000000000056
:1054BC0000000000000000000000000000000000E0
:1054CC0000000000000000000000000000000000D0
:1054DC0061086108000000000000000000000000EE
:1054EC0000000000000000000000000000000409A3
:1054FC0051247D37FF2FFF2FFF2FFF2FFF2FFF2F63
:10550C00FF2FFF2FFF2FFF2FFF2FFF2FFF2FFF2727
:10551C00BF373C4FFFFFFFFFFFFFFFFFFFFFFFFF0A
:10552C00FFFFFFFFFFFFFFFFFFFFFFFFFFFFFFFF7F
:10553C00FFFFFFFFFFFFFFFFFFFFFFFFFFFFFFFF6F
:10554C00FFFFFFFFFFFFFFFFFFFF5D4FDF37FF2771
:10555C00FF2FFF2FFF2FFF2FFF2FFF2FFF2FFF2FCF
:10556C00FF2FFF2FFF2FFF2FFF37142D45090000B2
:10557C0000002000610820000000000020006108ED
:10558C00200020004108000000002000410800001D
:10559C00000020002000C3189AD6718C0000000077
:1055AC00000000000000000000006108610800001D
:1055BC000000410882100000000045093425FF3727
:1055CC00FF2FFF2FFF2FFF2FFF2FFF2FFF2FFF2F5F
:1055DC00FF2FFF2FFF2FFF2FFF27DF373D4FFFFF41
:1055EC00FFFFFFFFFFFFFFFFFFFFFFFFFFFFFFFFBF
:1055FC00FFFFFFFFFFFFFFFFFFFFFFFFFFFFFFFFAF
:10560C00FFFFFFFFFFFFFFFFFFFFFFFFFFFFFFFF9E
:10561C007D57DF37FF27FF2FFF2FFF2FFF2FFF2F88
:10562C00FF2FFF2FFF2FFF2FFF2FFF2FFF37BA2E3C
:10563C0069120000000000000000A631FBDECB5A0E
:10564C000000000055AD59CE61088E73BAD6E31830
:10565C000000CF7B9AD6C3180000108459CE82105C
:10566C0018C67DEFC3180000000000000000000009
:10567C00000055ADF7BD200000008E731CE704211F
:10568C000000000000006A12BA36FF2FFF2FFF2F18
:10569C00FF2FFF2FFF2FFF2FFF2FFF2FFF2FFF2F8E
:1056AC00FF2FFF27DF377C57FFFFFFFFFFFFFFFFB9
:1056BC00FFFFFFFFFFFFFFFFFFFFFFFFFFFFFFFFEE
:1056CC00FFFFFFFFFFFFFFFFFFFFFFFFFFFFFFFFDE
:1056DC00FFFFFFFFFFFFDD5EDF37FF27FF2FFF2FF1
:1056EC00FF2FFF2FFF2FFF2FFF2FFF2FFF2FFF2F3E
:1056FC00FF2FFF37F324A308000000000000000078
:10570C000000C739FFFF2C630000694AFFFFEF7BE5
:10571C000000718CFFFF24210000B294FFFFE318FE
:10572C000000D39CBEF76108694AFFFFAE7300000E
:10573C000000000000000000000038C6FBDE200066
:10574C0000001084FFFF452900000000000000004D
:10575C00C200F424FF37FF2FFF2FFF2FFF2FFF2F47
:10576C00FF2FFF2FFF2FFF2FFF2FFF2FFF27DE37DE
:10577C00DB66FFFFFFFFFFFFFFFFFFFFFFFFFFFFEA
:10578C00FFFFFFFFFFFFFFFFFFFFFFFFFFFFFFFF1D
:10579C00FFFFFFFFFFFFFFFFFFFFFFFF5555DE3F42
:1057AC00FF27FF2FFF2FFF2FFF2FFF2FFF2FFF2F85
:1057BC00FF2FFF2FFF2FFF2F9E374C1B00000000E9
:1057CC0000000000000000000000C739FFFF4D6B17
:1057DC0000009AD6FBDE61080000518CFFFF2421EB
:1057EC0000009294DFFFE3180000D39C9EF7821018
:1057FC002000BAD6FBDE61080000000000000000AB
:10580C00000018C6DBDE200000001084FFFF2421FE
:10581C000000000000000000000000004D1B9E373F
:10582C00FF2FFF2FFF2FFF2FFF2FFF2FFF2FFF2FFC
:10583C00FF2FFF2FFF2FFF27DE3F10FCFFFFFFFF87
:10584C00FFFFFFFFFFFFFFFFFFFFFFFFFFFFFFFF5C
:10585C00FFFFFFFFFFFFFFFFFFFFFFFFFFFFFFFF4C
:10586C00FFFFFFFFBE3FFF27FF2FFF2FFF2FFF2F55
:10587C00FF2FFF2FFF2FFF2FFF2FFF2FFF2F1C3787
:10588C0008120000000000000000000000000000F2
:10589C000000C739FFFF79CE1084FFFFCB5A000000
:1058AC000000518CFFFF242100009294DFFFE318CD
:1058BC000000D39C9EF7821000002C63FFFFEB5A74
:1058CC000000000000000000000018C6DBDE200015
:1058DC0000001084FFFF24210000000000000000E5
:1058EC0000000000000008121C37FF2FFF2FFF2FB5
:1058FC00FF2FFF2FFF2FFF2FFF2FFF2FFF2FFF2F2C
:10590C00FF27BE47FFFFFFFFFFFFFFFFFFFFFFFF6C
:10591C00FFFFFFFFFFFFFFFFFFFFFFFFFFFFFFFF8B
:10592C00FFFFFFFFFFFFFFFFFFFF9D47DF2FFF2F55
:10593C00FF2FFF2FFF2FFF2FFF2FFF2FFF2FFF2FEB
:10594C00FF2FFF2F9A3665090000000000000000B1
:10595C0000000000000000000000C739FFFFFFFF3F
:10596C00FFFFD7BD200000000000518CFFFF042179
:10597C0000009294DFFFE3180000B2949EF7A2108F
:10598C00000082103CE759CE20000000000000000F
:10599C00000018C6BAD6200000001084FFFF242196
:1059AC0000000000000000000000000000000000EB
:1059BC0065099A36FF2FFF2FFF2FFF2FFF2FFF2F89
:1059CC00FF2FFF2FFF2FFF2FFF2FFF2F9D3FFFFFDD
:1059DC00FFFFFFFFFFFFFFFFFFFFFFFFFFFFFFFFCB
:1059EC00FFFFFFFFFFFFFFFFFFFFFFFFFFFFFFFFBB
:1059FC003C4FDF37FF2FFF2FFF2FFF2FFF2FFF2FE6
:105A0C00FF2FFF2FFF2FFF2FFF2F793624090000C8
:105A1C00000000000000000000000000000000007A
:105A2C000000C739FFFF9AD6FFFFF39C000000006F
:105A3C000000518CFFFFE31800009294DFFFC318A5
:105A4C000000D39C9EF7A21000000000EF7BFFFF2C
:105A5C002842000000000000000018C61CE72000CF
:105A6C0000001084FFFF2421000000000000000053
:105A7C00000000000000000000002409992EFF2FF8
:105A8C00FF2FFF2FFF2FFF2FFF2FFF2FFF2FFF2F9A
:105A9C00FF2FFF27DF373B4FFFFFFFFFFFFFFFFF0E
:105AAC00FFFFFFFFFFFFFFFFFFFFFFFFFFFFFFFFFA
:105ABC00FFFFFFFFFFFFFFFFDE3FFF27FF2FFF2F43
:105ACC00FF2FFF2FFF2FFF2FFF2FFF2FFF2FFF2F5A
