:020000040800F2
:10000000005000204D5500089D5500089D550008E2
:100010009D5500089D5500089D55000800000000F2
:10002000000000000000000000000000E11D0008CA
:100030009D55000800000000D11E0008191F00088F
:100040009D5500089D5500089D5500089D550008C8
:100050009D5500089D5500081536000839360008E2
:100060005D36000881360008A53600089D55000859
:100070009D5500089D5500089D5500089D55000898
:100080009D5500089D550008CD2E00089D5500087F
:100090007D32000891320008A5320008C9360008F8
:1000A0001D440008D543000841440008F9430008F6
:1000B000B13A0008913B0008613C00089D550008DA
:1000C0009D5500089D5500089D55000805420008F3
:1000D0009D550008E9490008FD490008114A00083B
:1000E000713700089D550008000000009D5500086C
:1000F0009D5500089D5500089D5500089D55000818
:100100009D5500089D5500089D5500089D55000807
:100110009D5500089D5500089D5500089D550008F7
:100120009D5500089D5500089D5500089D550008E7
:1001300010B5054C237833B9044B13B10448AFF321
:1001400000800123237010BD240000200000000067
:100150001056000808B5034B1BB103490348AFF321
:10016000008008BD00000000280000201056000894
:1001700080B483B000AF78607B6803F108027B68CD
:100180005A607B684FF0FF329A607B6803F1080287
:100190007B68DA607B6803F108027B681A617B6820
:1001A00000221A6000BF0C37BD4680BC704780B487
:1001B00083B000AF78607B6800221A6100BF0C3703
:1001C000BD4680BC704780B485B000AF78603960B0
:1001D0007B685B68FB603B68FA685A60FB689A68FA
:1001E0003B689A60FB689B683A685A60FB683A68AB
:1001F0009A603B687A681A617B681B685A1C7B6846
:100200001A6000BF1437BD4680BC704780B485B00B
:1002100000AF786039603B681B68BB60BB68B3F1B6
:10022000FF3F03D17B681B69FB600CE07B680833F0
:10023000FB6002E0FB685B68FB60FB685B681B6857
:10024000BA689A42F6D2FB685A683B685A603B68C3
:100250005B683A689A603B68FA689A60FB683A683B
:100260005A603B687A681A617B681B685A1C7B6815
:100270001A6000BF1437BD4680BC704780B485B09B
:1002800000AF78607B681B69FB607B685B687A689D
:1002900092689A607B689B687A6852685A60FB68CB
:1002A0005B687A689A4203D17B689A68FB685A60F7
:1002B0007B6800221A61FB681B685A1EFB681A6083
:1002C000FB681B6818461437BD4680BC70470000A9
:1002D00090B585B000AF786039600123FB607B6822
:1002E000BB60BB68002B63D0BB68DB6B002B5FD0AF
:1002F000BB681A6CBB68DB6B0020A2FB03124FF0DB
:1003000000034FF0000413000024002B00D0012054
:100310000346002B4CD101F0A9FDBB681A68BB68ED
:10032000DB6BB968096C01FB03F31A44BB689A6084
:10033000BB6800229A63BB681A68BB685A60BB68D6
:100340001A68BB68DB6B013BB968096C01FB03F3FE
:100350001A44BB68DA60BB68FF2283F84420BB689C
:10036000FF2283F845203B68002B14D1BB681B6932
:10037000002B1AD0BB681033184601F0BFF80346B3
:10038000002B12D00E4B4FF080521A60BFF34F8FEC
:10039000BFF36F8F09E0BB6810331846FFF7E8FE24
:1003A000BB6824331846FFF7E3FE01F077FD01E058
:1003B0000023FB60FB6818461437BD4690BD00BFA4
:1003C00004ED00E090B58BB002AFF860B960134661
:1003D000FB710023FB61FB68002B33D00020BA685F
:1003E000FB68A2FB03124FF000034FF00004130060
:1003F0000024002B00D001200346002B22D1FB68F3
:10040000BA6802FB03F313F1490F1BD8FB68BA6803
:1004100002FB03F3BB61BB694833184601F0B6FD2C
:10042000F861FB69002B0DD0FB697B617B69483368
:100430007B61FA79FB69009313467A69B968F868B9
:1004400000F005F8FB6918462437BD4690BD80B51D
:1004500084B000AFF860B9607A60FB70BB68002BB5
:1004600003D1BB69BA691A6002E0BB697A681A6095
:10047000BB69FA68DA63BB69BA681A640121B869B2
:10048000FFF726FF00BF1037BD4680BD80B58AB09C
:1004900000AFF860B9607A603B6000237B62FB6864
:1004A0003B6201F0E3FC3B6A9A6B3B6ADB6B9A426E
:1004B00002D33B68022B29D13A68B968386A00F048
:1004C0006EF9F8613B6A5B6A002B10D03B6A2433FB
:1004D000184601F013F80346002B13D03F4B4FF0A2
:1004E00080521A60BFF34F8FBFF36F8F0AE0FB6932
:1004F000002B07D0394B4FF080521A60BFF34F8F5B
:10050000BFF36F8F01F0CAFC012363E07B68002B0F
:1005100003D101F0C3FC00235CE07B6A002B06D111
:1005200007F11403184601F0B1F801237B6201F0D2
:10053000B5FC00F087FD01F099FC3B6A93F844306C
:100540005BB2B3F1FF3F03D13B6A002283F8442042
:100550003B6A93F845305BB2B3F1FF3F03D13B6A8E
:10056000002283F8452001F099FC3A1D07F114039D
:100570001146184601F0A0F80346002B24D1386A32
:1005800000F0DFF90346002B18D03B6A10337A687D
:100590001146184600F09CFF386A00F06AF900F036
:1005A0005FFD0346002B7FF47CAF0C4B4FF0805275
:1005B0001A60BFF34F8FBFF36F8F72E7386A00F096
:1005C00058F900F04DFD6CE7386A00F052F900F080
:1005D00047FD002318462837BD4680BD04ED00E0E6
:1005E00080B58AB000AF7860396000237B627B6899
:1005F000FB6100233B6201F039FCFB699B6BBB6133
:10060000BB69002B24D0BB695A1EFB699A63FB6946
:100610001B68002B04D101F009FB0246FB699A60BC
:10062000FB691B69002B0FD0FB691033184600F0E3
:1006300065FF0346002B07D04C4B4FF080521A60E9
:10064000BFF34F8FBFF36F8F01F028FC012389E0C8
:100650003B68002B03D101F021FC002382E07B6A80
:10066000002B06D107F10C03184601F00FF8012307
:100670007B6201F013FC00F0E5FC01F0F7FBFB6985
:1006800093F844305BB2B3F1FF3F03D1FB69002222
:1006900083F84420FB6993F845305BB2B3F1FF3F28
:1006A00003D1FB69002283F8452001F0F7FB3A46AD
:1006B00007F10C031146184600F0FEFF0346002B1D
:1006C00032D1F86900F027F90346002B26D0FB69E8
:1006D0001B68002B09D101F0C9FBFB699B68184618
:1006E00001F0EEF8386201F0D9FBFB6924333A6877
:1006F0001146184600F0ECFEF86900F0BAF800F078
:10070000AFFC0346002B7FF476AF184B4FF08052BE
:100710001A60BFF34F8FBFF36F8F6CE7F86900F07B
:10072000A8F800F09DFC66E7F86900F0A2F800F078
:1007300097FCF86900F0EFF80346002B3FF45BAF3D
:100740003B6A002B0DD001F091FBF86900F010F826
:100750007861FB699B687969184601F0D1F901F06D
:100760009DFB002318462837BD4680BD04ED00E000
:1007700080B485B000AF78607B685B6A002B06D0E0
:100780007B681B6B1B68C3F10503FB6001E0002362
:10079000FB60FB6818461437BD4680BC704780B5C7
:1007A00086B000AFF860B9607A6000237B61FB68B7
:1007B0009B6B3B61FB681B6C002B0DD1FB681B68BE
:1007C000002B4DD1FB689B68184601F017F9786142
:1007D000FB6800229A6043E07B68002B19D1FB681C
:1007E0005868FB681B6C1A46B96804F0FDFEFB688C
:1007F0005A68FB681B6C1A44FB685A60FB685A68AD
:10080000FB689B689A422BD3FB681A68FB685A60A6
:1008100026E0FB68D868FB681B6C1A46B96804F0D0
:10082000E3FEFB68DA68FB681B6C5B421A44FB68FA
:10083000DA60FB68DA68FB681B689A4207D2FB68DB
:100840009A68FB681B6C5B421A44FB68DA607B6841
:10085000022B05D13B69002B02D03B69013B3B6178
:100860003B695A1CFB689A637B6918461837BD467A
:1008700080BD80B584B000AF786001F0F7FA7B6886
:1008800093F84530FB7311E07B685B6A002B12D054
:100890007B682433184600F031FE0346002B01D05C
:1008A00000F054FFFB7B013BDBB2FB7397F90F3089
:1008B000002BE9DC00E000BF7B68FF2283F84520C5
:1008C00001F0ECFA01F0D2FA7B6893F84430BB7384
:1008D00011E07B681B69002B12D07B68103318462F
:1008E00000F00CFE0346002B01D000F02FFFBB7B75
:1008F000013BDBB2BB7397F90E30002BE9DC00E063
:1009000000BF7B68FF2283F8442001F0C7FA00BFD4
:100910001037BD4680BD80B584B000AF786001F06F
:10092000A5FA7B689B6B002B02D10123FB6001E0E1
:100930000023FB6001F0B2FAFB6818461037BD4691
:1009400080BD80B584B000AF786001F08FFA7B681D
:100950009A6B7B68DB6B9A4202D10123FB6001E05A
:100960000023FB6001F09AFAFB6818461037BD4679
:1009700080BD80B58CB004AFF860B9603B601346B1
:10098000FB80FB889B00184601F000FB78617B69C7
:10099000002B13D0542001F0F9FAF861FB69002B09
:1009A00008D054220021F86904F029FEFB697A6915
:1009B0001A6305E0786901F03BFB01E00023FB616D
:1009C000FB69002B13D0FA8800230393FB69029381
:1009D000FB6A0193BB6A00933B68B968F86800F052
:1009E0000EF8F86900F074F80123BB6102E04FF0E3
:1009F000FF33BB61BB6918462037BD4680BD80B55B
:100A000086B000AFF860B9607A603B60BB6A1A6B71
:100A10007B6803F18043013B9B0013443B613B69CE
:100A200023F007033B61BB68002B1ED000237B61D2
:100A300012E0BA687B6913441978BA6A7B69134477
:100A400034330A461A70BA687B6913441B78002B4A
:100A500006D07B6901337B617B690F2BE9D900E00C
:100A600000BFBB6A002283F843203B6A042B01D9F4
:100A700004233B62BB6A3A6ADA62BB6A3A6A5A6426
:100A8000BB6A04331846FFF792FBBB6A183318465B
:100A9000FFF78DFBBB6ABA6A1A613B6AC3F10502B4
:100AA000BB6A9A61BB6ABA6A5A623A68F96838697D
:100AB00001F050F90246BB6A1A607B6A002B02D033
:100AC0007B6ABA6A1A6000BF1837BD4680BD000055
:100AD00080B584B000AF786001F0C8F93E4B1B6868
:100AE00001333D4A13603D4B1B68002B09D13B4A43
:100AF0007B681360384B1B68012B10D100F04AFE55
:100B00000DE0374B1B68002B09D1344B1B68DA6AA8
:100B10007B68DB6A9A4202D8304A7B681360314BAB
:100B20001B6801332F4A13607B68DB6A01229A40FD
:100B30002D4B1B6813432C4A13607B68DA6A2B49E0
:100B400013469B0013449B000B4404331B68FB605B
:100B50007B68FA689A60FB689A687B68DA60FB6871
:100B60009B687A6804325A607B681A1DFB689A6039
:100B70007B68DA6A13469B0013449B001B4A1A44A5
:100B80007B685A617B68DA6A184913469B001344F4
:100B90009B000B441B68591C144813469B001344CC
:100BA0009B000344196001F079F90D4B1B68002B81
:100BB0000ED00A4B1B68DA6A7B68DB6A9A4207D25E
:100BC0000B4B4FF080521A60BFF34F8FBFF36F8F04
:100BD00000BF1037BD4680BD180100204000002036
:100BE00024010020340100202001002044000020C6
:100BF00004ED00E080B588B000AF78603960002374
:100C0000FB613B68042B01D904233B6001F02EF902
:100C10007B68002B02D1554B1B6800E07B68BB61F1
:100C2000BB695B6C7B617A693B689A4200F0988093
:100C30003A687B699A420DD94C4B1B68BA699A4253
:100C40000FD04A4B1B68DB6A3A689A4209D30123EA
:100C5000FB6106E0454B1B68BA699A4201D101234A
:100C6000FB61BB69DB6A3B61BB695A6CBB69DB6AD0
:100C70009A4202D1BB693A68DA62BB693A685A643F
:100C8000BB699B69002B04DB3B68C3F10502BB69B0
:100C90009A61BB6959693A6913469B0013449B00EA
:100CA000334A1344994250D1BB6904331846FFF7C5
:100CB000E5FA0346002B09D101223B6902FA03F34E
:100CC000DA432C4B1B6813402A4A1360BB69DB6A6A
:100CD00001229A40274B1B681343264A1360BB69C5
:100CE000DA6A234913469B0013449B000B440433E8
:100CF0001B68FB60BB69FA689A60FB689A68BB690D
:100D0000DA60FB689B68BA6904325A60BB691A1DD5
:100D1000FB689A60BB69DA6A13469B0013449B0028
:100D2000134A1A44BB695A61BB69DA6A104913460F
:100D30009B0013449B000B441B68591C0C48134632
:100D40009B0013449B0003441960FB69002B07D0F0
:100D5000094B4FF080521A60BFF34F8FBFF36F8F74
:100D600001F09CF800BF2037BD4680BD4000002048
:100D7000440000202001002004ED00E080B584B094
:100D800000AF786001F072F87B68002B02D13B4B1A
:100D90001B6800E07B68BB60BB6804331846FFF744
:100DA0006DFA0346002B15D1BB68DA6A3449134645
:100DB0009B0013449B000B441B68002B0AD1BB68AB
:100DC000DB6A012202FA03F3DA432E4B1B6813405D
:100DD0002C4A1360BB689B6A002B04D0BB68183395
:100DE0001846FFF74BFABB68043319462648FFF74D
:100DF000EAF90023FB6010E0BA68FB681344503343
:100E00001B78DBB2012B05D1BA68FB681344503361
:100E100000221A70FB680133FB60FB68002BEBDDDE
:100E200001F03CF8194B1B68002B05D001F01EF8AF
:100E300000F02CFD01F032F8104B1B68BA689A42A2
:100E400018D1124B1B68002B08D0114B4FF0805269
:100E50001A60BFF34F8FBFF36F8F0BE00A4B1A6816
:100E60000C4B1B689A4203D1044B00221A6001E02C
:100E700000F0E8FA00BF1037BD4680BD40000020FA
:100E80004400002020010020040100202401002053
:100E900004ED00E01801002080B485B000AF786058
:100EA0000023FB607B68BB60BB685B69094A9342B7
:100EB0000AD1BB689B6A084A934205D0BB689B6A0B
:100EC000002B01D10123FB60FB6818461437BD4697
:100ED00080BC704704010020D800002080B584B099
:100EE00000AF78607B68FB60344B1B68FA689A42FD
:100EF0005FD0FB68002B5CD000F0B8FFF868FFF70C
:100F0000CBFF0346002B52D0FB6804331846FFF793
:100F1000B5F9FB68DB6A01229A40294B1B68134331
:100F2000274A1360FB68DA6A264913469B0013447C
:100F30009B000B4404331B68BB60FB68BA689A6073
:100F4000BB689A68FB68DA60BB689B68FA68043221
:100F50005A60FB681A1DBB689A60FB68DA6A134620
:100F60009B0013449B00174A1A44FB685A61FB68B4
:100F7000DA6A144913469B0013449B000B441B6818
:100F8000591C104813469B0013449B0003441960EE
:100F9000FB68DA6A094B1B68DB6A9A4207D30A4B83
:100FA0004FF080521A60BFF34F8FBFF36F8F00F086
:100FB00075FF00BF1037BD4680BD00BF4000002058
:100FC000200100204400002004ED00E080B584B042
:100FD00002AF154B01930023009300234FF480725E
:100FE00012491348FFF7C5FC78607B68012B14D1C8
:100FF0004FF0BF0383F31188BFF36F8FBFF34F8FA1
:101000003B600C4B4FF0FF321A600B4B01221A6011
:101010000A4B00221A6000F009FF094B1B6800BF51
:101020000837BD4680BD00BF3C010020285600089F
:101030006517000838010020240100201C01002051
:101040000000002080B400AF044B1B680133034A4A
:10105000136000BFBD4680BC704700BF4001002048
:1010600080B586B000AF00237B6100233B6100F0B8
:10107000FDFE684B1B68013B664A1360654B1B68AD
:10108000002B40F0C080644B1B68002B00F0BB803D
:101090008AE0624BDB68DB687B617B699B6ABB60D3
:1010A0007B69DB697A69126A9A607B691B6A7A6973
:1010B000D2695A60BB685A687B6918339A4203D177
:1010C0007B691A6ABB685A607B6900229A62BB68B6
:1010D0001B685A1EBB681A607B695B697B607B6911
:1010E0009B687A69D2689A607B69DB687A699268E2
:1010F0005A607B685A687B6904339A4203D17B69E2
:10110000DA687B685A607B6900225A617B681B68D9
:101110005A1E7B681A607B69DB6A01229A40404B49
:101120001B6813433E4A13607B69DA6A3D491346E4
:101130009B0013449B000B4404331B683B607B699A
:101140003A689A603B689A687B69DA603B689B689A
:101150007A6904325A607B691A1D3B689A607B6920
:10116000DA6A13469B0013449B002E4A1A447B699B
:101170005A617B69DA6A2B4913469B0013449B0032
:101180000B441B68591C274813469B0013449B00C3
:10119000034419607B69DA6A234B1B68DB6A9A4255
:1011A00002D3224B01221A601C4B1B68002B7FF4D8
:1011B00070AF7B69002B01D000F068FB1C4B1B68F3
:1011C000FB60FB68002B10D000F036F80346002BC4
:1011D00002D0164B01221A60FB68013BFB60FB68E2
:1011E000002BF1D1124B00221A60104B1B68002B10
:1011F00009D001233B610F4B4FF080521A60BFF3BF
:101200004F8FBFF36F8F00F049FE3B6918461837C8
:10121000BD4680BD4001002018010020D8000020FC
:101220002001002044000020400000202C0100206C
:101230002801002004ED00E080B588B000AF002355
:10124000FB61754B1B68002B40F0DC80734B1B6807
:101250000133BB61714ABB691360BB69002B10D1BC
:101260006F4B1B687B616F4B1B686D4A13606D4A47
:101270007B6913606C4B1B6801336B4A136000F091
:1012800005FB6A4B1B68BA699A42C0F0A680644BA2
:101290001B681B68002B04D1644B4FF0FF321A60AF
:1012A0009BE05F4B1B68DB68DB683B613B695B680D
:1012B000FB60BA69FB689A4203D25C4AFB68136020
:1012C0008BE03B695B69BB603B699B683A69D268AC
:1012D0009A603B69DB683A6992685A60BB685A68F1
:1012E0003B6904339A4203D13B69DA68BB685A60B0
:1012F0003B6900225A61BB681B685A1EBB681A60B2
:101300003B699B6A002B1ED03B699B6A7B603B69F3
:10131000DB693A69126A9A603B691B6A3A69D26969
:101320005A607B685A683B6918339A4203D13B691B
:101330001A6A7B685A603B6900229A627B681B6864
:101340005A1E7B681A603B69DB6A01229A40384B5F
:101350001B681343364A13603B69DA6A3549134602
:101360009B0013449B000B4404331B683B603B69A8
:101370003A689A603B689A683B69DA603B689B68A8
:101380003A6904325A603B691A1D3B689A603B69AE
:10139000DA6A13469B0013449B00264A1A443B69B1
:1013A0005A613B69DA6A234913469B0013449B0048
:1013B0000B441B68591C1F4813469B0013449B0099
:1013C000034419603B69DA6A1B4B1B68DB6A9A426B
:1013D0007FF65DAF0123FB6159E7174B1B68DA6AA3
:1013E000144913469B0013449B000B441B68012BBC
:1013F00001D90123FB61114B1B68002B07D001238E
:10140000FB6104E00E4B1B6801330D4A1360FB695E
:1014100018462037BD4680BD400100201C01002039
:10142000D0000020D400002030010020380100202E
:101430002001002044000020400000202C0100205A
:101440002801002080B485B000AF1C4B1B68002B26
:1014500003D01B4B01221A602AE0194B00221A60AC
:10146000184B1B687B607B68B3FA83F3FB70FB78D7
:10147000C3F11F03FB60FA6813469B0013449B00F3
:10148000114A1344BB60BB685B685A68BB685A600A
:10149000BB685A68BB6808339A4204D1BB685B6872
:1014A0005A68BB685A60BB685B68DB68074A1360B0
:1014B00000BF1437BD4680BC704700BF400100200C
:1014C0002C010020200100204400002040000020CA
:1014D00080B582B000AF78603960074B1B68183365
:1014E00019467868FEF792FE0121386800F0B2FBD9
:1014F00000BF0837BD4680BD4000002080B489B0E1
:1015000000AF78607B68DB68DB68BB61BB699B6AA6
:101510007B61BB69DB69BA69126A9A60BB691B6A45
:10152000BA69D2695A607B695A68BB6918339A42B2
:1015300003D1BB691A6A7B695A60BB6900229A624F
:101540007B691B685A1E7B691A604A4B1B68002B1B
:101550005ED1BB695B69FB60BB699B68BA69D26895
:101560009A60BB69DB68BA6992685A60FB685A681E
:10157000BB6904339A4203D1BB69DA68FB685A60DD
:10158000BB6900225A61FB681B685A1EFB681A601F
:10159000BB69DB6A01229A40374B1B681343364A0A
:1015A0001360BB69DA6A354913469B0013449B00FC
:1015B0000B4404331B68BB60BB69BA689A60BB68A4
:1015C0009A68BB69DA60BB689B68BA6904325A6082
:1015D000BB691A1DBB689A60BB69DA6A13469B0037
:1015E00013449B00254A1A44BB695A61BB69DA6AF5
:1015F000224913469B0013449B000B441B68591C53
:101600001E4813469B0013449B00034419601BE0D3
:101610001B4B5B683B61BB693A69DA613B699A685D
:10162000BB691A623B699B68BA6918325A60BB6928
:1016300003F118023B699A60BB69114A9A62104B28
:101640001B6801330E4A1360BB69DA6A0D4B1B68D5
:10165000DB6A9A4205D90123FB610B4B01221A6018
:1016600001E00023FB61FB6918462437BD4680BCBE
:10167000704700BF400100202001002044000020EE
:10168000D8000020400000202C01002080B483B04E
:1016900000AF7860064B1A687B681A60054B1A68C1
:1016A0007B685A6000BF0C37BD4680BC704700BFE6
:1016B000300100201C01002080B586B000AF7860AA
:1016C000396000F0D3FB1F4B1B683B617B685B6894
:1016D0003A69D31AFB603B681B68B3F1FF3F02D144
:1016E00000237B6126E07B681A68174B1B689A42CF
:1016F0000AD07B685B683A699A4205D301237B6113
:101700003B6800221A6015E03B681B68FA689A4241
:101710000BD23B681A68FB68D21A3B681A6078687B
:10172000FFF7B4FF00237B6104E03B6800221A60EE
:1017300001237B6100F0B2FB7B6918461837BD4678
:1017400080BD00BF1C0100203001002080B400AF2C
:10175000034B01221A6000BFBD4680BC704700BF2A
:101760002C01002080B582B000AF786000F052F804
:10177000064B1B68012BF9D9054B4FF080521A60BC
:10178000BFF34F8FBFF36F8FF0E700BF440000201F
:1017900004ED00E080B582B000AF00237B600CE078
:1017A0007A6813469B0013449B00124A1344184660
:1017B000FEF7DEFC7B6801337B607B68042BEFD98E
:1017C0000D48FEF7D5FC0D48FEF7D2FC0C48FEF79D
:1017D000CFFC0C48FEF7CCFC0B48FEF7C9FC0B4BCA
:1017E000054A1A600A4B054A1A6000BF0837BD4611
:1017F00080BD00BF44000020A8000020BC000020E5
:10180000D8000020EC00002004010020D0000020BF
:10181000D400002080B582B000AF19E000F026FBB4
:101820000F4BDB68DB687B607B6804331846FEF790
:1018300025FD0C4B1B68013B0A4A13600A4B1B68D1
:10184000013B094A136000F029FB786800F00EF8AC
:10185000054B1B68002BE1D100BF0837BD4680BD9A
:10186000EC000020180100200001002080B582B0AB
:1018700000AF78607B681B6B184600F0D9FB786876
:1018800000F0D6FB00BF0837BD4680BD80B400AF76
:10189000094B1B681B68002B04D1084B4FF0FF322B
:1018A0001A6005E0044B1B68DB681B68034A136081
:1018B00000BFBD4680BC7047D0000020380100202A
:1018C00080B586B000AF78607B683B6100237B61A8
:1018D0007B68002B00F087803B69DA6A444B1B6809
:1018E000DB6A9A4276D23B699B69002B06DB404B50
:1018F0001B68DB6AC3F105023B699A613B69596960
:101900003B69DA6A13469B0013449B00394A13442F
:10191000994257D13B6904331846FEF7AFFC0346A2
:10192000002B0AD13B69DB6A012202FA03F3DA4396
:10193000314B1B681340304A13602D4B1B68DA6A29
:101940003B69DA623B69DB6A01229A402A4B1B68D9
:101950001343294A13603B69DA6A264913469B0000
:1019600013449B000B4404331B68FB603B69FA681B
:101970009A60FB689A683B69DA60FB689B683A6921
:1019800004325A603B691A1DFB689A603B69DA6A47
:1019900013469B0013449B00164A1A443B695A6144
:1019A0003B69DA6A134913469B0013449B000B44BE
:1019B0001B68591C0F4813469B0013449B000344AB
:1019C000196004E00A4B1B68DA6A3B69DA6201239A
:1019D0007B6108E03B695A6C054B1B68DB6A9A42E5
:1019E00001D201237B617B6918461837BD4680BD53
:1019F00040000020440000202001002080B586B077
:101A000000AF78607B683B6100237B617B68002BC3
:101A10006CD03B699B6C5A1E3B699A643B69DA6ADD
:101A20003B695B6C9A4261D03B699B6C002B5DD13A
:101A30003B6904331846FEF721FC0346002B0AD10C
:101A40003B69DB6A012202FA03F3DA432A4B1B6883
:101A50001340294A13603B695A6C3B69DA623B695F
:101A6000DB6AC3F105023B699A613B69DB6A0122CB
:101A70009A40214B1B6813431F4A13603B69DA6A83
:101A80001E4913469B0013449B000B4404331B6800
:101A9000FB603B69FA689A60FB689A683B69DA60A8
:101AA000FB689B683A6904325A603B691A1DFB68FF
:101AB0009A603B69DA6A13469B0013449B000F4A05
:101AC0001A443B695A613B69DA6A0C4913469B0028
:101AD00013449B000B441B68591C084813469B0089
:101AE00013449B000344196001237B617B69184602
:101AF0001837BD4680BD00BF2001002044000020F3
:101B000080B588B000AF786039607B68BB61012325
:101B10007B617B68002B00F08180BB695B6C3A685D
:101B20009A4202D93B68FB6102E0BB695B6CFB61D6
:101B3000BB69DB6AFA699A4270D0BB699B6C7A69AF
:101B40009A426BD1BB69DB6A3B61BB69FA69DA62B5
:101B5000BB699B69002B04DBFB69C3F10502BB6910
:101B60009A61BB6959693A6913469B0013449B000B
:101B70002C4A1344994251D1BB6904331846FEF7ED
:101B80007DFB0346002B0AD1BB69DB6A012202FA06
:101B900003F3DA43244B1B681340234A1360BB69E9
:101BA000DB6A01229A40204B1B6813431E4A1360D4
:101BB000BB69DA6A1B4913469B0013449B000B4424
:101BC00004331B68FB60BB69FA689A60FB689A681B
:101BD000BB69DA60FB689B68BA6904325A60BB690A
:101BE0001A1DFB689A60BB69DA6A13469B001344AE
:101BF0009B000C4A1A44BB695A61BB69DA6A0949FD
:101C000013469B0013449B000B441B68591C05485A
:101C100013469B0013449B000344196000BF203708
:101C2000BD4680BD440000202001002080B400AFEC
:101C3000074B1B68002B04D0054B1B689A6C0132C4
:101C40009A64034B1B681846BD4680BC704700BFB2
:101C50004000002080B586B000AF78603960364B18
:101C60001B687B61354B1B6804331846FEF706FB87
:101C70000346002B0BD1314B1B68DB6A012202FAB1
:101C800003F3DA432E4B1B6813402D4A13607B6825
:101C9000B3F1FF3F24D13B68002B21D0294B5B6877
:101CA0003B61264B1B683A699A60244B1B683A6972
:101CB0009268DA60214B1A683B699B6804325A606B
:101CC0001E4B1B681A1D3B699A601C4B1B681D4A02
:101CD0005A611C4B1B6801331A4A136000BF26E08F
:101CE0007A697B681344FB60144B1B68FA685A607E
:101CF000FA687B699A4209D2134B1A680F4B1B682A
:101D0000043319461046FEF781FA10E00F4B1A68AB
:101D10000A4B1B68043319461046FEF777FA0C4B42
:101D20001B68FA689A4202D2094AFB68136000BF36
:101D30001837BD4680BD00BF1C01002040000020B8
:101D40002001002004010020D4000020D000002049
:101D50003801002080B485B000AFF860B9607A60C7
:101D6000FB68043BFB60FB684FF080721A60FB6805
:101D7000043BFB60BB6823F00102FB681A60FB6850
:101D8000043BFB60084AFB681A60FB68143BFB607D
:101D90007A68FB681A60FB68203BFB60FB681846AA
:101DA0001437BD4680BC7047AD1D000880B483B0B9
:101DB00000AF00233B604FF0BF0383F31188BFF3F4
:101DC0006F8FBFF34F8F7B6000BF3B68002BFCD051
:101DD00000BF0C37BD4680BC70470000000000000B
:101DE000074B19680868B0E8F00F80F30988BFF363
:101DF0006F8F4FF0000080F311884EF00D0E70478A
:101E00004000002000BF00BF06480068006880F363
:101E1000088862B661B6BFF34F8FBFF36F8F00DFE4
:101E200000BF000008ED00E000BF00BF80B500AFBC
:101E30000C4B1B680B4A43F47F031360094B1B6870
:101E4000084A43F07F43136000F086F8064B0022F7
:101E50001A60FFF7D9FFFFF7F5FAFFF7A7FF002396
:101E6000184680BD20ED00E00400002080B483B05F
:101E700000AF4FF0BF0383F31188BFF36F8FBFF341
:101E80004F8F7B60044B1B680133034A136000BF14
:101E90000C37BD4680BC70470400002080B483B07E
:101EA00000AF094B1B68013B074A1360064B1B68D8
:101EB000002B04D100237B607B6883F3118800BF73
:101EC0000C37BD4680BC70470400002000000000B5
:101ED000EFF30980BFF36F8F0D4B1A6820E9F00F05
:101EE00010602DE908404FF0BF0080F31188FFF724
:101EF000A9FA4FF0000080F31188BDE80840196886
:101F00000868B0E8F00F80F30988BFF36F8F70475F
:101F10004000002000BF00BF80B582B000AF4FF08E
:101F2000BF0383F31188BFF36F8FBFF34F8F7B60C5
:101F3000FFF782F90346002B03D0064B4FF0805287
:101F40001A6000233B603B6883F3118800BF0837A9
:101F5000BD4680BD04ED00E080B400AF084B002218
:101F60001A60084B00221A60074B46F65F521A604F
:101F7000034B07221A6000BFBD4680BC704700BFFC
:101F800010E000E018E000E014E000E080B584B06C
:101F900000AF78600023FB607B6803F00703002B31
:101FA0000ED07B6823F0070308337A689A4205D283
:101FB0007B6823F0070308337B6001E000237B602C
:101FC000FFF740F8174B1B68002B05D1164B23F089
:101FD00007031A46134B1A607B68002B1BD0134B68
:101FE0001A687B68134443F67762934213D80F4B09
:101FF0001A687B681A440D4B1B689A420BD9094B2F
:102000001A680A4B1B681344FB60084B1A687B680C
:102010001344064A1360FFF723F8FB68184610378D
:10202000BD4680BDC83F00204B010020C43F0020BA
:1020300080B483B000AF786000BF0C37BD4680BC71
:102040007047000080B582B000AF124B1B687B6008
:102050003B1D1946104801F007FC104B1B687B60C4
:102060003B1D19460C4801F0FFFB0D4B1B687B60C4
:102070003B1D1946084801F0F7FB0A4B1B687B60C3
:102080003B1D1946044801F0EFFB00BF0837BD4671
:1020900080BD00BF305600080008014034560008DB
:1020A000385600083C56000880B500AF01211F4893
:1020B00001F0EAFC0346002B14D10C211B4801F06F
:1020C000E3FC0346002B0DD10B21184801F0DCFC8A
:1020D0000346002B06D10821144801F0D5FC034625
:1020E000002B20D0642002F0E9F901210F4801F013
:1020F000CBFC0346002B14D10C210C4801F0C4FC8E
:102100000346002B0DD10B21084801F0BDFC03460E
:10211000002B06D10821054801F0B6FC0346002B30
:1021200001D0012300E00023184680BD00080140D3
:1021300080B500AF5E4B1B78002B0DD15D4802F0DF
:1021400093FB0346592B40F0B180594B1B78013368
:10215000DAB2574B1A70A9E0554B1B78012B0DD101
:10216000544802F081FB0346592B40F09F80504BAE
:102170001B780133DAB24E4B1A7097E04C4B1B7848
:10218000022B10D14A4B1B780133DAB2484B1A703C
:10219000494B00221A80474802F066FB03461A4664
:1021A000454B1A8082E0424B1B78032B14D1404BE5
:1021B0001B780133DAB23E4B1A703E4802F054FBF2
:1021C00003461B021AB23C4B1B881BB213431BB2C3
:1021D0009AB2394B1A8069E0354B1B78042B10D129
:1021E000334B1B780133DAB2314B1A70334B002278
:1021F0001A80304802F038FB03461A462F4B1A80EB
:1022000054E02B4B1B78052B14D1294B1B78013341
:10221000DAB2274B1A70274802F026FB03461B024E
:102220001AB2264B1B881BB213431BB29AB2234B24
:102230001A803BE01E4B1B78062B10D11C4B1B78E1
:102240000133DAB21A4B1A701D4B00221A8019485A
:1022500002F00AFB03461A46194B1A8026E0144B7B
:102260001B78072B14D1124B1B780133DAB2104BB9
:102270001A70104802F0F8FA03461B021AB2104B0B
:102280001B881BB213431BB29AB20D4B1A800DE090
:10229000074B1B78082B09D1064802F0E5FA0346E4
:1022A000DAB2084B1A70024B00221A7000BF80BDD0
:1022B000D33F002000480040CC3F0020CE3F00200C
:1022C000D03F0020D23F002090B587B000AF03463A
:1022D0000A46FB711346BB718D4B07F108040FCB07
:1022E00084E80F0007F1080319468A4802F014F940
:1022F0005A21884802F078FA0821864802F074FAD8
:102300000621844802F070FA0021824802F06CFA3B
:10231000C221804802F068FA01217E4802F064FA86
:1023200000217C4802F060FA00217A4802F05CFA51
:10233000FB79012B1CD0022B43D0002B52D15A2108
:10234000744802F051FA0621724802F04DFA032156
:10235000704802F049FA64216E4802F045FA002103
:102360006C4802F041FA00216A4802F03DFA39E077
:102370005A21684802F038FA0621664802F034FA19
:102380000321644802F030FA0021624802F02CFA7E
:102390000021604802F028FA00215E4802F024FA89
:1023A0005A215C4802F020FA04215A4802F01CFA33
:1023B0000421584802F018FA0021564802F014FA95
:1023C00010E05A21534802F00FFA0421514802F05C
:1023D0000BFA3B214F4802F007FA00214D4802F06A
:1023E00003FA00BFBB79052B00F28E8001A252F8E0
:1023F00023F000BF0D2400083724000861240008E2
:102400008B240008B5240008DF2400085A21414825
:1024100002F0EAF905213F4802F0E6F905213D48BE
:1024200002F0E2F901213B4802F0DEF900213948CF
:1024300002F0DAF968E05A21364802F0D5F90521B0
:10244000344802F0D1F90521324802F0CDF90221D9
:10245000304802F0C9F900212E4802F0C5F953E0D6
:102460005A212C4802F0C0F905212A4802F0BCF993
:102470000521284802F0B8F90621264802F0B4F9EF
:102480000021244802F0B0F93EE05A21214802F030
:10249000ABF905211F4802F0A7F905211D4802F0FC
:1024A000A3F907211B4802F09FF90021194802F007
:1024B0009BF929E05A21174802F096F905211548A1
:1024C00002F092F90521134802F08EF90821114813
:1024D00002F08AF900210F4802F086F914E05A212F
:1024E0000C4802F081F905210A4802F07DF9052126
:1024F000084802F079F90921064802F075F900212F
:10250000044802F071F900BF00BF1C37BD4690BD02
:10251000405600080048004080B58CB004AF034628
:10252000FB7107F1100300221A605A609A60DA60AA
:1025300001233B7401237B74344B1B68FB6007F160
:1025400010031946324801F055FC07F10C031946F7
:10255000304801F089F90323BB8107F10C031946C8
:102560002C4801F081F9012204212A4801F064FA83
:1025700000220221274801F05FFA782001F09EFF37
:1025800001220221234801F057FA782001F096FF3A
:10259000012000F01BF9782001F090FF112000F0DD
:1025A00015F96E2001F08AFF3A2000F00FF9FB794F
:1025B000184600F02DF9782001F080FF362000F059
:1025C00005F9782001F07AFF802000F021F97820C9
:1025D00001F074FFB42000F0F9F8002000F018F9C1
:1025E000292000F0F3F8782001F068FFFF23029320
:1025F000FF230193FF2300937F2300229F210020CC
:1026000000F0A1F800BF2037BD4680BD505600083D
:10261000003001400008014090B583B000AF04468F
:10262000084611461A462346FB800346BB800B46EC
:102630007B8013463B802A2000F0C8F87B881B0A69
:102640009BB2DBB2184600F0E3F87B88DBB2184699
:1026500000F0DEF83B881B0A9BB2DBB2184600F0A4
:10266000D7F83B88DBB2184600F0D2F82B2000F0F8
:10267000ADF8FB881B0A9BB2DBB2184600F0C8F825
:10268000FB88DBB2184600F0C3F8BB881B0A9BB27C
:10269000DBB2184600F0BCF8BB88DBB2184600F08D
:1026A000B7F800BF0C37BD4690BD90B587B000AFFE
:1026B0000446084611461A462346FB800346BB8063
:1026C0000B467B8013463B80BB885A1CFB88D31A81
:1026D0003A88511C7A888A1A02FB03F33B61002373
:1026E000FB730023BB7300237B733B887A88B98814
:1026F000F888FFF791FF2C2000F068F800237B6139
:1027000016E07B695B00BA6A13441B881B0A9BB204
:10271000DBB2184600F07CF87B695B00BA6A1344B0
:102720001B88DBB2184600F073F87B6901337B61CC
:102730007A693B699A42E4D3002000F047F800BF71
:102740001C37BD4690BD90B585B000AF0446084625
:1027500011461A462346FB800346BB800B467B800E
:1027600013463B80BB885A1CFB88D31A3A88511CFD
:102770007A888A1A02FB03F3BB603B887A88B9889F
:10278000F888FFF749FF2C2000F020F80023FB60B9
:1027900011E097F82030184600F03AF897F8243006
:1027A000184600F035F897F82830184600F030F851
:1027B000FB680133FB60FA68BB689A42E9D30020EA
:1027C00000F004F800BF1437BD4690BD80B582B05C
:1027D00000AF0346FB71002204210B4801F02CF9E5
:1027E00000220321084801F027F9FB791946074820
:1027F00001F0C0FB01220421034801F01DF900BFD4
:102800000837BD4680BD00BF0008014000300140D0
:1028100080B582B000AF0346FB71002204210B4853
:1028200001F00AF901220321084801F005F9FB79BA
:102830001946074801F09EFB01220421034801F0DC
:10284000FBF800BF0837BD4680BD00BF000801404F
:102850000030014080B584B002AF0346FB71FB79C4
:10286000083B0B2B42D801A252F823F0C5280008E0
:102870009D280008ED280008ED280008ED28000834
:10288000ED280008ED280008ED280008B128000810
:10289000ED280008ED280008D92800081A4B0093FD
:1028A00071230E2281211E20FFF7FFFE002326E068
:1028B000164B009371230E2281211E20FFF7F5FE97
:1028C00000231CE0124B009371230E2281211E2055
:1028D000FFF7EBFE002312E00E4B009371230E2254
:1028E00081211E20FFF7E1FE002308E00A4B009340
:1028F00071230E2281211E20FFF7D7FE01231846E7
:102900000837BD4680BD00BF70570008D0410108A0
:10291000B0F3000890A50008F08F010880B400AF64
:10292000FEE7000080B584B000AF0346FB710023D2
:10293000BB810023BB730023FB73FB790F2B00F2D9
:10294000BF8001A252F823F089290008A3290008BA
:10295000BD290008D7290008F12900080B2A000822
:10296000252A00083F2A0008592A0008732A00086F
:10297000C12A0008C12A0008C12A0008C12A00088B
:102980008D2A0008A72A00080023BB810023BB73FF
:102990000023FB7307F10C0319464D4800F064FF58
:1029A00091E00123BB810023BB730023FB7307F17C
:1029B0000C031946464800F057FF84E00223BB8110
:1029C0000023BB730023FB7307F10C031946404837
:1029D00000F04AFF77E00323BB810023BB73002391
:1029E000FB7307F10C031946394800F03DFF6AE01C
:1029F0000423BB810023BB730023FB7307F10C038B
:102A00001946334800F030FF5DE00523BB81002309
:102A1000BB730023FB7307F10C0319462C4800F02D
:102A200023FF50E00623BB810023BB730023FB730D
:102A300007F10C031946264800F016FF43E0072370
:102A4000BB810023BB730023FB7307F10C03194602
:102A50001F4800F009FF36E00023BB810023BB7351
:102A60000023FB7307F10C0319461A4800F0FCFE23
:102A700029E00123BB810023BB730023FB7307F113
:102A80000C031946134800F0EFFE1CE00423BB8141
:102A90000023BB730023FB7307F10C0319460E4898
:102AA00000F0E2FE0FE00523BB810023BB7300238F
:102AB000FB7307F10C031946074800F0D5FE02E04E
:102AC000FFF72CFF00BF00BF1037BD4680BD00BF21
:102AD00000080140000C01400010014080B582B0A8
:102AE00000AF786039603B681B78092B05D93B68DB
:102AF0001B780D2B01D8012373E17B68984A934220
:102B000013D13B681B781946964A0B465B000B4471
:102B10009B0013443A6807CA83E80700924B9B69FD
:102B2000914A43F40073936113E03B681B781946A4
:102B30008C4A0B465B000B449B001344C0333A683D
:102B400007CA83E80700884B9B69874A43F4806380
:102B500093613B681B781846FFF7E4FE7A68936838
:102B600043F0010393600A2001F07CFC7A689368CB
:102B700043F00103936001F029F902467B4BA3FB6C
:102B800002239B0C102B0AD01C2B0FD0082B14D126
:102B9000754B5B68744A23F44043536014E0724BF6
:102BA0005B68714A23F4404353600DE06E4B5B68F1
:102BB0006D4A23F44043536006E06B4B5B686A4AFE
:102BC00043F40043536000BF7A68936843F0040302
:102BD00093607A6893686FF3CB2393603B681B78AC
:102BE0000F2B00F2A78001A252F823F02D2C000831
:102BF000432C0008592C00086F2C0008852C000875
:102C00009B2C0008B12C0008C72C0008DD2C000804
:102C1000F32C0008352D0008352D0008352D00084F
:102C2000352D0008092D00081F2D00083B689B78F2
:102C300003F00703D9B27A68136961F302031361E1
:102C40007BE03B689B7803F00703D9B27A6813698D
:102C500061F3C503136170E03B689B7803F00703E1
:102C6000D9B27A68136961F38813136165E03B6830
:102C70009B7803F00703D9B27A68136961F34B2399
:102C800013615AE03B689B7803F00703D9B27A6876
:102C9000136961F30E3313614FE03B689B7803F0D7
:102CA0000703D9B27A68136961F3D133136144E041
:102CB0003B689B7803F00703D9B27A68136961F324
:102CC0009443136139E03B689B7803F00703D9B262
:102CD0007A68136961F3575313612EE03B689B7860
:102CE00003F00703D9B27A68136961F31A631361B9
:102CF00023E03B689B7803F00703D9B27A68136935
:102D000061F3DD63136118E03B689B7803F0070310
:102D1000D9B27A68D36861F30E33D3600DE03B68B3
:102D20009B7803F00703D9B27A68D36861F3D13393
:102D3000D36002E0FFF7F2FD00BF3B685B78002B39
:102D400002D0012B06D013E07A6893686FF3410339
:102D5000936010E07A68936843F0020393600AE09E
:102D600000240140D43F00200010024083DE1B43BA
:102D7000FFF7D4FD00BF3B685B681B7803F00103DD
:102D8000DBB2002B22D07A68536843F4000353600F
:102D90003B681B7803F01F03D9B27A68536861F36C
:102DA000040353603B68DB78012B05D17A685368D4
:102DB00043F04003536004E07A6853686FF386136E
:102DC00053607A68536843F4007353607A68936879
:102DD00043F4603393607A68936843F4801393609C
:102DE000002318460837BD4680BD00BF80B487B0B9
:102DF00000AFF8600B467A60FB7200237B61FB68D2
:102E0000304A934208D1FA7A13465B0013449B0080
:102E10002D4A13447B6108E0FA7A13465B001344A1
:102E20009B00C033284A13447B61FB680022DA62AE
:102E3000FB6800221A63FB6800225A637B691B78D7
:102E400003F01F03D9B2FA68536B61F304035363B1
:102E50007B695B78002B0CD1FA68936843F480138C
:102E6000936000BFFB681B68C3F34003DBB2002B19
:102E7000F8D07B69DB78002B08D0FB68DB6C9AB25A
:102E80007B681A807B6802337B6016E00023FB744A
:102E90000AE0FB68DB6C9AB27B681A807B680233BD
:102EA0007B60FB7C0133FB74FB68DB6AC3F3035379
:102EB000DBB21A46FB7C9342EBD900BF1C37BD4600
:102EC00080BC704700240140D43F002080B500AF93
:102ED000134B1B68C3F34003DBB2012B0FD1104B24
:102EE0005B6BC3F30403DBB219460E4A0B465B006F
:102EF0000B449B00134408331B6898470EE00A4BB1
:102F00005B6BC3F30403DBB21946064A0B465B0056
:102F10000B449B001344C8331B68984700BF80BD17
:102F200000240140D43F00200028014080B400AFBD
:102F3000FEE7000080B582B000AF0A4B1B687B60E3
:102F40003B1D1946084800F08FFC084B1B687B604E
:102F50003B1D1946044800F087FC00BF0837BD46FA
:102F600080BD00BF545600080008014058560008B4
:102F700080B582B000AF7860844B7A6807CA83E876
:102F80000700834BDB69824A43F00073D361FFF78C
:102F9000D1FF804B5B68C3F30003DBB2002B1FD172
:102FA0007C4B5B68C3F34003DBB2012B18D1794A39
:102FB00013686FF341031360764A136843F001030B
:102FC000136000BF734B5B68C3F30003DBB2012BDC
:102FD000F8D1704B5B68C3F34003DBB2002BF1D137
:102FE0007B681B78002B05D06A4A136843F04003C6
:102FF000136004E0674A13686FF3861313607B68FD
:103000005B78002B05D0634A136843F0100313600C
:1030100004E0604A13686FF3041313605D4A136899
:103020006FF3820313607B689B78002B05D0594AAD
:10303000136843F00803136004E0564A13686FF303
:10304000C303136000F0AEFE0346534A934203D01D
:10305000524A934223D045E07B68DB78032B3ED86D
:1030600001A252F823F000BF793000088330000835
:103070008D30000895300008464B4FF4A022DA61ED
:103080000CE0444B4FF4E012DA6107E0414B444A54
:10309000DA6103E03F4B434ADA6100BF1FE07B681F
:1030A000DB78032B1DD801A252F823F0BD300008B5
:1030B000C5300008CD300008D5300008354B3A4AFD
:1030C000DA610BE0334B394ADA6107E0314B384AB9
:1030D000DA6103E02F4B374ADA6100BF01E000BF3D
:1030E00000E000BF7B681B79032B37D801A252F8A0
:1030F00023F000BF053100081B3100083131000802
:1031000047310008234AD3696FF3DF73D361214A43
:10311000D3696FF39E73D36123E01E4AD36943F0F2
:103120000043D3611B4AD3696FF39E73D36118E0E8
:10313000184AD3696FF3DF73D361164AD36943F03A
:103140008043D3610DE0134AD36943F00043D36158
:10315000104AD36943F08043D36102E0FFF7E6FEF3
:1031600000BF7B685B79002B28D00A4A536943F083
:1031700002035361074A536943F0100353610E4B36
:103180001B680D4A43F44013136027E054410020AC
:10319000001002400064004000127A0000366E0108
:1031A00001001C0004001C000100090002001C00BA
:1031B00005001C000E001C0000E100E0224A5369DB
:1031C0006FF341035361204A53696FF30413536152
:1031D0001E4B1B681D4A43F4401313601A4A53697F
:1031E00043F480635361184A536943F400435361C5
:1031F000174B1B68164A43F480031360124B5B683D
:10320000C3F30003DBB2012B18D10F4B5B68C3F390
:103210004003DBB2002B11D10B4A13686FF341035B
:103220001360094A13686FF30003136000BF064B75
:103230005B68C3F30003DBB2012BF8D00023184610
:103240000837BD4680BD00BF0064004080E100E05B
:1032500000E100E080B400AF074B1B69064A43F071
:1032600000731361044B1B69034A23F0007313615D
:1032700000BFBD4680BC70470010024080B500AF63
:10328000024B9B68984700BF80BD00BF544100209F
:1032900080B500AF024B9B68984700BF80BD00BF60
:1032A0005441002080B500AFFFF7D4FF0248FFF77C
:1032B0005FFE00BF80BD00BF5441002080B483B0DA
:1032C00000AF0346FB71FB790F2B54D801A252F8D3
:1032D00023F000BF15330008233300083133000802
:1032E0003F3300084D3300085B3300085B330008B0
:1032F0005B3300085B3300085B3300086933000868
:10330000693300086933000869330008693300082D
:10331000693300081A4B1B68194A43F040031360D5
:1033200029E0174B1B68164A43F08003136022E024
:10333000134B1B68124A43F4807313601BE0104B5D
:103340001B680F4A43F40073136014E00C4B1B68B6
:103350000B4A43F4806313600DE0094B1B68084A75
:1033600043F40003136006E0064B1B68054A43F470
:103370008073136000BF00BF0C37BD4680BC704730
:1033800000E100E004E100E080B483B000AF034658
:10339000FB71FB790F2B54D801A252F823F000BF28
:1033A000E1330008EF330008FD3300080B34000858
:1033B000193400082734000827340008273400088F
:1033C0002734000827340008353400083534000855
:1033D0003534000835340008353400083534000829
:1033E0001A4B1B68194A23F04003136029E0174B5E
:1033F0001B68164A23F08003136022E0134B1B68FE
:10340000124A23F4807313601BE0104B1B680F4AB1
:1034100023F40073136014E00C4B1B680B4A23F475
:10342000806313600DE0094B1B68084A23F4000316
:10343000136006E0064B1B68054A23F48073136093
:1034400000BF00BF0C37BD4680BC704700E100E004
:1034500004E100E080B584B000AF7860654B9B6903
:10346000644A43F0010393617B681B889B089BB20D
:10347000FB737B681B88DBB203F00303DBB29B00AA
:10348000BB730023BB607B681B893B810123BB723C
:103490007B685B6807F108021146184600F0E4F902
:1034A0007B681B7B002B0BD1534BDB687A6812883F
:1034B000114601228A4011464F4A0B43D36029E04E
:1034C0007B681B7B012B0BD14B4B9B687A68128866
:1034D000114601228A401146474A0B43936019E086
:1034E0007B681B7B022B15D1434BDB687A68128803
:1034F000114601228A4011463F4A0B43D3603E4B9E
:103500009B687A681288114601228A4011463A4A1D
:103510000B439360394AFB7B023352F82320BB7B79
:103520000F2101FA03F3DB4318463449FB7B0240C9
:10353000023341F82320314AFB7B023352F8232027
:103540007B685B682E498B4216D07B685B682D498F
:103550008B420FD07B685B682B498B4208D07B681D
:103560005B682A498B4201D1042306E0002304E072
:10357000032302E0012300E00023B97B8B401846BF
:103580001E49FB7B0243023341F823207B681B88E2
:1035900019467B681B691E4A42F821307B685B7BB9
:1035A000012B11D1144B1B687A6812881146012235
:1035B0008A401146104A0B4313607B681B88DBB2BC
:1035C0001846FFF77BFE11E00B4B1B687A681288E8
:1035D000114601228A40D2431146074A0B4013602C
:1035E0007B681B88DBB21846FFF7CEFE00BF1037A2
:1035F000BD4680BD001002400004014000000140B3
:1036000000080140000C014000100140001401407E
:103610009C41002080B500AF054B1B689847054BC7
:103620005B69044A43F00103536100BF80BD00BFE2
:103630009C4100200004014080B500AF054B5B6851
:103640009847054B5B69044A43F00203536100BF8E
:1036500080BD00BF9C4100200004014080B500AF48
:10366000054B9B689847054B5B69044A43F004038C
:10367000536100BF80BD00BF9C4100200004014099
:1036800080B500AF054BDB689847054B5B69044A82
:1036900043F00803536100BF80BD00BF9C41002080
:1036A0000004014080B500AF054B1B699847054BEE
:1036B0005B69044A43F01003536100BF80BD00BF43
:1036C0009C4100200004014080B500AF264B5B699F
:1036D00003F02003002B08D0234B5B69224A43F000
:1036E00020035361214B5B6998471F4B5B6903F0D3
:1036F0004003002B08D01C4B5B691B4A43F040037E
:1037000053611A4B9B699847174B5B6903F0800321
:10371000002B08D0144B5B69134A43F080035361BC
:10372000124BDB699847104B5B6903F48073002BE5
:1037300008D00D4B5B690C4A43F4807353610B4B0B
:103740001B6A9847084B5B6903F40073002B08D091
:10375000054B5B69044A43F400735361034B5B6A96
:10376000984700BF80BD00BF000401409C4100207D
:1037700080B500AF2D4B5B6903F48063002B08D04C
:103780002A4B5B69294A43F480635361284B9B6A47
:103790009847264B5B6903F40063002B08D0234B4A
:1037A0005B69224A43F400635361214BDB6A98470B
:1037B0001E4B5B6903F48053002B08D01B4B5B69E5
:1037C0001A4A43F480535361194B1B6B9847174BAC
:1037D0005B6903F40053002B08D0144B5B69134A58
:1037E00043F400535361124B5B6B98470F4B5B697B
:1037F00003F48043002B08D00C4B5B690B4A43F465
:10380000804353610A4B9B6B9847084B5B6903F4F9
:103810000043002B08D0054B5B69044A43F4004386
:103820005361034BDB6B984700BF80BD0004014030
:103830009C41002080B485B000AF0346FB80FB882C
:10384000072B03D8FB889B009BB206E0FB8803F59F
:103850007F5338339BB29B009BB2FB81FB89184698
:103860001437BD4680BC704790B585B000AF786016
:1038700039607B686A4A934206D16A4B9B69694A00
:1038800043F0040393612AE07B68674A934206D1C0
:10389000644B9B69634A43F0080393611FE07B68B4
:1038A000624A934206D15F4B9B695E4A43F0100324
:1038B000936114E07B685E4A934206D1594B9B6941
:1038C000584A43F02003936109E07B68594A9342C8
:1038D00005D1544B9B69534A43F0400393613B68C5
:1038E0001B889BB2072B01D87B6801E07B680433FF
:1038F000FB603B681B889BB21846FFF79BFF0346A3
:103900001A460F239340DA43FB681B681A40FB6892
:103910001A603B689B78DBB2002B0ED03B689B782B
:10392000DBB2012B09D03B689B78DBB2022B04D0C1
:103930003B689B78DBB2032B56D13B689B78DBB2AC
:10394000032B1CD13B681B889BB21846FFF772FF04
:1039500003461A46082303FA02F2FB681B681A435F
:10396000FB681A603B681B889BB21A460123934090
:10397000DA437B68DB681A407B68DA604CE03B68BE
:103980009B78DBB2022B1CD13B681B889BB218468C
:10399000FFF750FF03461A46082303FA02F2FB68BA
:1039A0001B681A43FB681A603B681B889BB21A4667
:1039B000012303FA02F27B68DB681A437B68DA6052
:1039C0002AE03B689B78DBB29C003B681B889BB27B
:1039D0001846FFF72FFF034604FA03F2FB681B6843
:1039E0001A43FB681A6017E03B689B78DBB2043B24
:1039F0009B003A68D278D2B243EA02043B681B8843
:103A00009BB21846FFF716FF034604FA03F2FB6861
:103A10001B681A43FB681A6000BF1437BD4690BD8F
:103A20000008014000100240000C0140001001405D
:103A3000001401400018014080B483B000AF7860EA
:103A40000B467B8013467B707B78DBB2012B0BD15E
:103A50007B889BB21A46012303FA02F27B68DB687B
:103A60001A437B68DA600AE07B889BB21A4601231E
:103A70009340DA437B68DB681A407B68DA6000BFFA
:103A80000C37BD4680BC704780B483B000AF78600F
:103A90000B467B807B689B687A8892B2D3409BB24E
:103AA00003F001039BB218460C37BD4680BC70473B
:103AB00080B582B000AF4FF080431B69C3F30003B1
:103AC000DBB2002B0BD07A68137843F0010313703C
:103AD0004FF0804213696FF3000313614EE04FF023
:103AE00080431B69C3F34003DBB2002B0BD07A6821
:103AF000137843F0020313704FF0804213696FF3A1
:103B0000410313613AE04FF080431B69C3F3800324
:103B1000DBB2002B0BD07A68137843F004031370E8
:103B20004FF0804213696FF38203136126E04FF078
:103B300080431B69C3F3C003DBB2002B0BD07A6850
:103B4000137843F0080313704FF0804213696FF34A
:103B5000C303136112E04FF080431B69C3F30013EA
:103B6000DBB2002B0AD07A68137843F0100313708D
:103B70004FF0804213696FF304131361034BDB684A
:103B80007868984700BF0837BD4680BDD8410020FF
:103B900080B582B000AF304B1B69C3F30003DBB2CA
:103BA000002B0AD07A68137843F0010313702A4A75
:103BB00013696FF30003136146E0274B1B69C3F3DE
:103BC0004003DBB2002B0AD07A68137843F002037B
:103BD0001370214A13696FF34103136134E01E4BE4
:103BE0001B69C3F38003DBB2002B0AD07A68137819
:103BF00043F004031370184A13696FF382031361CF
:103C000022E0154B1B69C3F3C003DBB2002B0AD0C3
:103C10007A68137843F0080313700F4A13696FF33F
:103C2000C303136110E00C4B1B69C3F30013DBB239
:103C3000002B09D07A68137843F010031370064AFA
:103C400013696FF304131361044BDB6978689847B9
:103C500000BF0837BD4680BD00040040D8410020A9
:103C600080B582B000AF334B1B69C3F30003DBB2F6
:103C7000002B0AD07A68137843F0010313702D4AA1
:103C800013696FF3000313614BE02A4B1B69C3F305
:103C90004003DBB2002B0AD07A68137843F00203AA
:103CA0001370244A13696FF34103136139E0214B08
:103CB0001B69C3F38003DBB2002B0FD07A68137843
:103CC00043F0040313701B4A13696FF382031361FB
:103CD0007A68137843F00103137022E0154B1B69D7
:103CE000C3F3C003DBB2002B0AD07A68137843F029
:103CF000080313700F4A13696FF3C303136110E0D5
:103D00000C4B1B69C3F30013DBB2002B09D07A689C
:103D1000137843F010031370064A13696FF304130A
:103D20001361054BDB6A7868984700BF0837BD46CA
:103D300080BD00BF00080040D841002080B400AF23
:103D40000A4B5B689B0803F00303012B06D0012B91
:103D500002D3022B04D005E0054B03E0054B01E044
:103D6000054BFFE71846BD4680BC70470010024077
:103D700000127A000024F400003FAB0180B500AFD0
:103D8000FFF7DCFF0146054B5B681B0903F00F03DF
:103D9000034AD35C21FA03F3184680BD00100240A9
:103DA0001000002080B500AFFFF7E8FF0146054B8B
:103DB0005B681B0A03F00703034AD35C21FA03F391
:103DC000184680BD001002400800002080B500AFFA
:103DD000FFF7D4FF0146054B5B68DB0A03F00703DE
:103DE000034AD35C21FA03F3184680BD0010024059
:103DF0000800002090B583B000AF786039607B6820
:103E0000574A93420CD1574A3B6814460FCB84E87B
:103E10000F00554B9B69544A43F48053936111E062
:103E20007B68524A93420DD14E4B3A6803F110041D
:103E300013460FCB84E80F004B4BDB694A4A43F42F
:103E40008043D3613B689B7803F00103D9B27A6861
:103E5000138861F3CB2313803B689B7903F0010344
:103E6000D9B27A68138861F3410313803B68DB7928
:103E700003F00103D9B27A68138861F30003138059
:103E80003B68DB7803F00103D9B27A68138861F3E9
:103E9000C71313803B681B79002B05D17A68138800
:103EA00043F4007313801CE03B681B79012B0AD19B
:103EB0007A6813886FF3492313807A68137943F083
:103EC000040313710DE03B681B79022B09D17A685A
:103ED00013886FF3492313807A6813796FF3820391
:103EE00013713B685B7803F00103D9B27A681388D9
:103EF00061F3820313803B685B7903F00703D9B257
:103F00007A68138861F3C50313803B681B7A012B21
:103F100014D17B68124A934206D1154B1B68144A90
:103F200043F00803136009E07B68104A934205D10F
:103F30000F4B1B680E4A43F010031360786800F0C3
:103F400053F83B681B7803F00103D9B27A681388F1
:103F500061F38613138000BF0C37BD4690BD00BFD0
:103F60000030014060410020001002400038004055
:103F700004E100E080B485B000AF78600B46FB70D0
:103F80000023FB607B68144A934202D1134BFB6011
:103F900005E07B68124A934201D1124BFB60FB683B
:103FA0001B7A012B05D17A68137943F080031371D2
:103FB00007E000BF7B689B68C3F34003DBB2002BC4
:103FC000F8D0FA787B68DA607B68DB68DBB2184689
:103FD0001437BD4680BC704700300140604100206E
:103FE000003800407041002080B584B000AF786098
:103FF0000023FB607B686C4A934269D16B4BFB608A
:104000006B4B9B696A4A43F004039361FB681B791D
:10401000002B08D1674B1B68BB60634A138843F4CD
:10402000807313800EE0FB681B79012B03D1624B78
:104030001B68BB6006E0FB681B79022B02D15F4B5B
:104040001B68BB6007F1080319465D48FFF70CFCCD
:10405000FB685B78012B03D15A4B1B68BB6006E001
:10406000FB685B78002B02D1574B1B68BB6007F1E4
:10407000080319465248FFF7F7FBFB685B78012BF2
:1040800003D1524B1B68BB6006E0FB685B78002BDA
:1040900002D14F4B1B68BB6007F108031946484823
:1040A000FFF7E2FBFB685B78012B03D1494B1B68F0
:1040B000BB6006E0FB685B78002B02D1464B1B68B7
:1040C000BB6007F1080319463D48FFF7CDFB67E0E9
:1040D0007B68424A934263D1414BFB60344B9B69FE
:1040E000334A43F008039361FB681B79002B03D12B
:1040F0003C4B1B68BB600EE0FB681B79012B03D1B6
:10410000384B1B68BB6006E0FB681B79022B02D1B1
:10411000354B1B68BB6007F1080319462848FFF7B9
:10412000A3FBFB685B78012B03D1304B1B68BB60A2
:1041300006E0FB685B78002B02D12D4B1B68BB604F
:1041400007F1080319461E48FFF78EFBFB685B78F2
:10415000012B03D1274B1B68BB6006E0FB685B7833
:10416000002B02D1244B1B68BB6007F108031946E2
:104170001348FFF779FBFB685B78012B03D11F4BDA
:104180001B68BB6006E0FB685B78002B02D11C4B10
:104190001B68BB6007F1080319460948FFF764FB79
:1041A00000BF1037BD4680BD003001406041002097
:1041B000001002405C560008605600086456000873
:1041C00000080140685600086C5600087056000848
:1041D00074560008785600087C56000800380040E5
:1041E0007041002080560008845600088856000858
:1041F0008C560008905600089456000898560008FF
:104200009C56000880B582B000AF3B1D054918469A
:1042100000F00CF8044BDB683879984700BF08378A
:10422000BD4680BD003001406041002080B483B0B5
:1042300000AF786039603B689B68C3F30003DBB272
:10424000002B0FD07A6813786FF3000313707A682D
:10425000137843F0020313703A6813796FF38613EF
:10426000137115E03B689B68C3F34003DBB2002B7E
:104270000ED07A68137843F0010313707A681378CC
:104280006FF3410313703A6813796FF3C713137117
:1042900000BF0C37BD4680BC7047000080B584B0BD
:1042A00000AF7860064B1B68FB6007F10C031946F2
:1042B0000448FFF7D9FA00BF1037BD4680BD00BFE4
:1042C000A05600080008014090B583B000AF7860A8
:1042D00039603B4A3B6814460FCB84E80F00394AEB
:1042E0007B6813607B68384A934205D1374B9B69E2
:1042F000364A43F4006393613B681B881A467B6827
:104300009A627A68136843F0800313603B685B88A5
:104310001A467B68DA623B689B881A467B681A6398
:104320003B685B7A012B0ED0022B17D0002B1BD1E0
:104330007A6813686FF3461313607A6813686FF333
:104340000413136013E07A6813686FF34613136065
:104350007A68136843F01003136008E07A68136802
:1043600043F06003136002E0FEF7E0FD00BF7868F1
:10437000FFF794FF7A68136843F0010313603B680A
:104380001B7A002B0BD17A68D36843F00103D3600A
:104390000F4B1B680E4A43F0007313600CE000BF24
:1043A0007B681B69C3F30003DBB2002BF8D07A688B
:1043B00013696FF30003136100BF0C37BD4690BD56
:1043C0001442002024420020002C01400010024032
:1043D00000E100E080B500AF054BDB689847054B76
:1043E0001A6813696FF30003136100BF80BD00BF3B
:1043F000144200202442002080B500AF054BDB684A
:104400009847054B1A6813696FF34103136100BFA6
:1044100080BD00BF144200202442002080B500AFC0
:10442000054BDB689847054B1A6813696FF3000367
:10443000136100BF80BD00BF144200202442002051
:1044400080B500AF054BDB689847054B1A681369C8
:104450006FF30003136100BF80BD00BF1442002052
:104460002442002080B586B000AF0346FB80FFF7F2
:10447000ADFC02460F4BA3FB02239B0C9BB2013BFE
:104480009BB23B81FB88013B9BB27B810023BB81BC
:104490000023FB8101233B7400237B7400237B6199
:1044A00007F1080319460448FFF70EFF00BF18374D
:1044B000BD4680BD83DE1B43002C014080B584B027
:1044C00000AF0346FB800023FB6006E04FF47A70E8
:1044D000FFF7C8FFFB680133FB60FB88FA689A426C
:1044E000F4D300BF1037BD4680BD80B584B000AFA7
:1044F0000346FB800023FB6006E04FF47A70FFF771
:10450000DDFFFB680133FB60FB88FA689A42F4D355
:1045100000BF1037BD4680BDB0B582B000AF786037
:1045200039607B68A94A93420CD1A94A3B6814467A
:104530000FCB84E80F00A74B9B69A64A43F4804346
:10454000936124E07B68A44A93420ED1A04B3A6861
:1045500003F1100413460FCB84E80F009D4BDB6979
:104560009C4A43F40033D36111E07B689B4A934239
:104570000DD1974B3A6803F1200413460FCB84E822
:104580000F00944BDB69934A43F48023D3617B682B
:10459000DB6843F400527B68DA607B68DB683A686A
:1045A000127912031A437B68DA607B681B693A68E8
:1045B000D27912031A437B681A613B685B7A002B3D
:1045C0000BD17B68DB6843F008027B68DA607B68AC
:1045D000DB6843F004027B68DA603B681B7A032BDC
:1045E00026D801A252F823F0F94500080746000832
:1045F00015460008234600087B685B6923F4407277
:104600007B685A6114E07B685B6943F480727B6865
:104610005A610DE07B685B6943F400727B685A6104
:1046200006E07B685B6943F440727B685A6100BFB7
:104630007B68DB683A68527952021A437B68DA6019
:104640003B689B79012B25D17B68604A934206D158
:10465000634B1B68624A43F02003136014E07B68DD
:104660005D4A934206D15E4B1B685D4A43F04003AE
:10467000136009E07B68594A934205D1584B1B6887
:10468000574A43F0800313607B68DB6843F02002E5
:104690007B68DA607B684D4A93422DD1FFF796FB29
:1046A00002463B681B681B01B2FBF3F31C01FFF7DA
:1046B0008DFB024613469B0013449A001A443B6844
:1046C0001B689B00B2FBF3F5FFF780FB02463B68DB
:1046D0001B681B01B2FBF3F3642202FB03F3EB1A2A
:1046E0001B01404AA2FB03235B0903F00F0344EACA
:1046F00003027B689A6062E07B68374A93422DD15F
:10470000FFF750FB02463B681B681B01B2FBF3F34B
:104710001C01FFF747FB024613469B0013449A0017
:104720001A443B681B689B00B2FBF3F5FFF73AFBAA
:1047300002463B681B681B01B2FBF3F3642202FBD9
:1047400003F3EB1A1B01274AA2FB03235B0903F0C7
:104750000F0344EA03027B689A6030E07B681F4ADB
:1047600093422CD1FFF71EFB02463B681B681B01DE
:10477000B2FBF3F31C01FFF715FB024613469B0047
:1047800013449A001A443B681B689B00B2FBF3F584
:10479000FFF708FB02463B681B681B01B2FBF3F303
:1047A000642202FB03F3EB1A1B010E4AA2FB032354
:1047B0005B0903F00F0344EA03027B689A607868A0
:1047C00000F09CF800BF0837BD46B0BD003801407E
:1047D00028420020001002400044004000480040F1
:1047E00004E100E01F85EB5180B485B000AF786034
:1047F0000B46FB700023FB607B68154A934202D195
:10480000144BFB600CE07B68134A934202D1134BBC
:10481000FB6005E07B68124A934201D1114BFB60BB
:1048200000BF7B681B6803F08003002BF9D0FB6896
:104830001B79012B03D1FA787B685A6002E0FA7881
:104840007B685A6000BF1437BD4680BC704700BF0C
:104850000038014028420020004400403842002037
:10486000004800404842002080B485B000AF786026
:104870000023FB607B681B4A934202D11A4BFB600A
:104880000CE07B68194A934202D1194BFB6005E0AA
:104890007B68184A934201D1174BFB60FB689B79F8
:1048A000002B07D100BF7B681B6803F02003002B9F
:1048B000F9D002E0FB689B79012BFB685B79002B48
:1048C00004D17B685B68DBB29BB206E07B685B6807
:1048D000DBB29BB203F07F039BB218461437BD4690
:1048E00080BC70470038014028420020004400404E
:1048F00038420020004800404842002080B584B083
:1049000000AF78602C4B1B68FB607B682B4A93429E
:1049100015D12B4B9B692A4A43F00403936107F19D
:104920000C0319462748FEF79FFF274B1B68FB60C7
:1049300007F10C0319462348FEF796FF38E07B6821
:10494000224A934218D11E4B9B691D4A43F004032F
:1049500093611F4B1B68FB6007F10C031946194854
:10496000FEF782FF1B4B1B68FB6007F10C03194627
:104970001448FEF779FF1BE07B68174A934217D172
:104980000F4B9B690E4A43F008039361134B1B685E
:10499000FB6007F10C0319461148FEF765FF114B48
:1049A0001B68FB6007F10C0319460D48FEF75CFF1E
:1049B00000BF1037BD4680BDA45600080038014036
:1049C0000010024000080140A856000800440040C2
:1049D000AC560008B056000800480040B456000825
:1049E000000C0140B856000880B500AF024BDB68F0
:1049F000984700BF80BD00BF2842002080B500AFAF
:104A0000024BDB69984700BF80BD00BF28420020F1
:104A100080B500AF024BDB6A984700BF80BD00BF86
:104A20002842002080B400AFFEE7000080B400AF51
:104A30000A4B5B68094A43F4A0135360074B1B6899
:104A4000064A43F080731360044B5B68034A43F0EB
:104A50000203536000BFBD4680BC70470010024097
:104A600080B500AF094B1B6805211846FBF7B8FD60
:104A70000346012B04D166210548FFF7B5FEF1E797
:104A800055210348FFF7B0FEECE700BF5842002075
:104A90000038014080B500AFFDF706FB0346002B50
:104AA000FAD1044B1868002300220021FBF7EEFC2A
:104AB000F2E700BF5842002080B485B000AF034643
:104AC000FB71FB79A3F5966213465B0013449B01CF
:104AD0009B1A084A82FB03121A449212DB17D31A5C
:104AE000DBB24033FB73FB7B18461437BD4680BCFA
:104AF000704700BFA16F2AEC80B500AF034A0021C8
:104B00000348FEF773F900BF80BD00BF9641002047
:104B10000024014080B586B000AF07F110030022E9
:104B20001A609A8000233B7101237B710023BB71C3
:104B30000023FB7107F11003BB600B4BFB603B1DB7
:104B400019460A48FDF7CAFF00233B800323BB70C8
:104B50000023FB703B4619460548FEF785FE00BF63
:104B60001837BD4680BD00BFF94A00080024014047
:104B7000000C014080B582B000AF224B1B687B6007
:104B80003B1D19462048FEF76FFE204B1B687B60DB
:104B90003B1D19461E48FEF767FE1E4B1B687B60D7
:104BA0003B1D19461A48FEF75FFE1B4B1B687B60D6
:104BB0003B1D19461648FEF757FE184B1B687B60D5
:104BC0003B1D19461248FEF74FFE154B1B687B60D4
:104BD0003B1D19460E48FEF747FE124B1B687B60D3
:104BE0003B1D19460A48FEF73FFE0F4B1B687B60D2
:104BF0003B1D19460648FEF737FE00BF0837BD4685
:104C000080BD00BFBC56000800080140C056000827
:104C1000000C0140C4560008C8560008CC560008D5
:104C2000D0560008D4560008D856000880B582B087
:104C300000AF0346FB80FB88DBB203F00103DBB26D
:104C40001A460F212D48FEF7F7FEFB885B089BB242
:104C5000DBB203F00103DBB21A4603212848FEF75A
:104C6000EBFEFB889B089BB2DBB203F00103DBB2D7
:104C70001A4604212248FEF7DFFEFB88DB089BB2C0
:104C8000DBB203F00103DBB21A4605211C48FEF734
:104C9000D3FEFB881B099BB2DBB203F00103DBB23E
:104CA0001A4606211648FEF7C7FEFB885B099BB231
:104CB000DBB203F00103DBB21A4607211048FEF70E
:104CC000BBFEFB889B099BB2DBB203F00103DBB2A6
:104CD0001A4608210A48FEF7AFFEFB88DB099BB2A3
:104CE000DBB203F00103DBB21A4609210448FEF7E8
:104CF000A3FE00BF0837BD4680BD00BF00080140CD
:104D0000000C014080B400AF174B1B88632B22D9E5
:104D1000164B1B88002B03D1154B00221A70F3E7AA
:104D2000124B1B88B3F5967F03D8114B01221A70E2
:104D3000EAE70E4B1B88B3F5967F08D90B4B1B880F
:104D4000B3F5FA7F03D20A4B02221A700AE0084B2D
:104D500000221A70D8E7054B1B88002BD4D1044BD6
:104D600000221A70D0E700BFCE3F0020CC3F0020C9
:104D70002100002080B582B000AF0023FB7100232A
:104D80007B800023BB80304B1B78012B36D1FB7915
:104D9000002B0AD12D4B1B88DBB21846FFF78CFE87
:104DA0000346BB80FB790133FB71294B1B789BB217
:104DB000BA889A4206D2264B1B789BB21846FFF758
:104DC00035FFE0E7234B1B78012B03D14020FFF791
:104DD0002DFFD8E71F4B1B78022B06D1BB885B0841
:104DE0009BB21846FFF722FFCDE71A4B1B78002B2A
:104DF000C9D1BB881846FFF719FFC4E7124B1B78CF
:104E0000002BC0D10023FB71124B1B78012B03D167
:104E10004020FFF70BFFB6E70E4B1B78022B08D1A3
:104E20000B4B1B785B08DBB29BB21846FFF7FEFE0C
:104E3000A9E7084B1B78002BA5D1054B1B789BB22B
:104E40001846FFF7F3FE9EE78D41002096410020B3
:104E5000984100202100002080B500AF00212248A9
:104E6000FEF712FE0346002B0DD01E20FFF726FB97
:104E700000211D48FEF708FE0346002B06D01B4B01
:104E800001221A7002E0194B00221A70184A002100
:104E90001848FDF7ABFF164B1B88B3F5966F03D28E
:104EA000154B40221A70D9E7114B1B8840F60612A9
:104EB000934203D9104BFF221A70CFE70C4B1B888B
:104EC000A3F5966213465B0013449B019B1A0B4AA1
:104ED00082FB03121A449212DB17D31ADBB240335F
:104EE000DAB2054B1A70B9E7000C01408D41002081
:104EF000964100200024014098410020A16F2AEC37
:104F000080B500AF084B1B6804211846FBF772FE02
:104F1000064B1B781846FDF79DFC034B1B680221CE
:104F20001846FBF767FEEDE764420020824100204F
:104F300080B500AFA64B1B6803F02003002B06D002
:104F4000A348FFF791FC0346DAB2A24B1A70A14BBB
:104F50001B78233B1D2B60D801A252F823F000BF21
:104F6000D94F00081B5000081B50000813500008C0
:104F70001B5000081B5000081B500008E74F00089A
:104F8000FD4F00081B5000081B5000081B50000874
:104F9000EF4F00081B5000081B5000081B50000872
:104FA0001B5000081B5000081B5000081B50000835
:104FB0001B5000081B5000081B5000081B50000825
:104FC0001B5000081B5000081B5000081B50000815
:104FD0001B500008055000087F4B01221A707F4BC0
:104FE00000221A7019E07D4B01221A7015E07C4BEB
:104FF00001221A707B4B00221A700EE0794B0122BD
:105000001A700AE0784B01221A70784B00221A704D
:1050100003E0764B01221A7000BF714B1B78002B06
:1050200043D0734B1B78002B02D16A4B00221A70BD
:105030006C4B1B78002B12D16E4B1B881B021AB2D3
:10504000644B1B781BB213431BB29AB2694B1A8094
:10505000674B1B780133DAB2654B1A7025E0654B5C
:105060001A8840F60F7313409AB2624B1A80614B54
:105070001B881B115BB223F00F035AB25D4B1B88D8
:105080005BB203F00F035BB213435BB2DAB25A4B6D
:105090001A70584B00221A80514B00221A70514B43
:1050A00000221A70524B00221A704B4B1B78002BB7
:1050B00043D04F4B1B78002B02D1464B00221A7075
:1050C000464B1B78002B12D14C4B1B881B021AB28B
:1050D000404B1B781BB213431BB29AB2474B1A804A
:1050E000434B1B780133DAB2414B1A7025E0434B36
:1050F0001A8840F60F7313409AB2404B1A803F4B08
:105100001B881B115BB223F00F035AB23B4B1B8869
:105110005BB203F00F035BB213435BB2DAB2384BFE
:105120001A70364B00221A802C4B00221A702A4B20
:1051300000221A702E4B00221A702B4B1B78002B6A
:1051400043D02B4B1B78002B02D1224B00221A702C
:10515000264B1B78002B12D12A4B1B881B021AB23C
:105160001C4B1B781BB213431BB29AB2254B1A80FF
:105170001F4B1B780133DAB21D4B1A7025E0214B0F
:105180001A8840F60F7313409AB21E4B1A801D4BBB
:105190001B881B115BB223F00F035AB2194B1B88FB
:1051A0005BB203F00F035BB213435BB2DAB2164B90
:1051B0001A70144B00221A800B4B00221A700B4BF2
:1051C00000221A700A4B00221A7000BF80BD00BF77
:1051D00000380140844100208541002086410020A4
:1051E00087410020884100208E4100208F4100200F
:1051F000834100208A4100208C4100208041002012
:1052000082410020904100209241002090B585B05D
:1052100000AF074B3C460FCB84E80F003B461946D6
:105220000448FFF779F900BF1437BD4690BD00BFB1
:10523000DC5600080038014080B584B004AF234B31
:1052400000221A7001212248FEF71EFC0346002BA3
:1052500039D11E20FFF732F901211D48FEF714FC59
:105260000346002B2FD11B4B1B78012B2BD11A4B44
:105270001B78992B27D0184B1B78002B23D0154B6C
:1052800000221A70144B00221A70104B00221A7060
:10529000FF230293FF230193FF2300937F23002228
:1052A0009F210020FDF74FFA4020FFF7BFFC33217C
:1052B0000A48FFF799FA1E20FFF700F9084B1B6810
:1052C0001846FBF70BFE00BFBD4680BD9441002091
:1052D000000C0140934100208C4100200038014027
:1052E0006042002080B586B000AF0123BB800F4B29
:1052F000BB600123BB810723FB8100233B74012397
:105300007B740B4B7B613B1D1846FEF7A3F8002313
:105310003B6001233B800323BB703B461946034897
:10532000FEF7A2FA00BF1837BD4680BD000C014051
:105330003952000880B500AF01211948FEF7A4FBDF
:105340000346012BF8D11E20FFF7B8F801211448BD
:10535000FEF79AFB0346012BEED1124B1B78002B74
:1053600009D122211048FFF73FFA0E4B1B78013379
:10537000DAB20C4B1A700D4B1B78992BDCD00B4B0F
:105380001B78002BD8D00A4B01221A70054B002243
:105390001A70084B1B681846FBF7F0FCCCE700BFFF
:1053A000000C014094410020003801408C41002055
:1053B000934100206042002080B500AFFFF736FB2C
:1053C0000120FFF792F85520FDF7A6F8FFF71EFF22
:1053D000FFF7A0FBFFF7CEFBFCF734FEFFF782FFE1
:1053E00000210020FCF770FF00BF80BD80B582B0B7
:1053F00002AF0220FFF779F8FFF7DEFF00230193E9
:105400000223009300234FF480723E493E48FBF78D
:10541000B0FA0346012B01D0FFF704FB00230193F0
:105420000223009300234FF4807238493848FBF779
:10543000A0FA0346012B01D0FFF7F4FA00230193F1
:105440000223009300234FF4807232493248FBF765
:1054500090FA0346012B01D0FFF7E4FA2F4B01939A
:105460000223009300234FF480722D492D48FBF74F
:1054700080FA0346012B01D0FFF7D4FA00230193F1
:105480000223009300234FF4807227492748FBF73B
:1054900070FA0346012B01D0FFF7C4FA00230193F1
:1054A0000223009300234FF4807221492148FBF727
:1054B00060FA0346012B01D0FFF7B4FA1E4B0193AB
:1054C0000523009300234FF480721C491C48FBF70E
:1054D00050FA0346012B01D0FFF7A4FA0322002162
:1054E0000120FAF76FFF0246164B1A6000220121D5
:1054F0000A20FAF767FF0246134B1A60FBF766FDB6
:10550000FEE700BFEC560008754D0008085700087C
:10551000054D00081C570008594E00086442002041
:1055200028570008014F00083C570008614A00084E
:1055300050570008954A0008604200206057000854
:1055400035530008584200205C4200200D48854633
:10555000AFF300800C480D490D4A002302E0D458F7
:10556000C4500433C4188C42F9D30A4A0A4C0023AD
:1055700001E013600432A242FBD300F011F8FFF700
:1055800035FFFEE70050002000000020240000202E
:1055900018DE01082400002078420020FEE7000009
:1055A00070B500250C4E0D4CA41BA410A54209D1CA
:1055B00000F02EF800250A4E0A4CA41BA410A542A8
:1055C00005D170BD56F8253098470135EEE756F8FD
:1055D000253098470135F2E710DE010810DE01089A
:1055E00010DE010814DE010810B5431E0A44914282
:1055F00000D110BD11F8014B03F8014FF7E7034646
:105600000244934200D1704703F8011BF9E7000000
:10561000F8B500BFF8BC08BC9E467047F8B500BF9F
:08562000F8BC08BC9E4670476F
:1056280049444C4500000000010001000C00010045
:105638000B0001000800010000C201000000010089
:105648000000000031210008020004010C000601DE
:105658000B0001000400040104000601040001001D
:10566800050006010500010006000100060006010C
:1056780007000601070001000C0006010C000100EC
:105688000D0006010D0001000E0001000E000601CC
:105698000F0006010F0001000800060109000602BC
:1056A8000A00010002000602030001000A000602C7
:1056B8000B0001000F0004010300040104000401B1
:1056C80005000401060004010700040108000401A4
:1056D8000900040100C201000000010000000000F0
:1056E800314F00084143435F7468726F7474656C8E
:1056F8005F48616E646C6C65725F5441534B000087
:105708004143435F48616E646C6C65725F544153FA
:105718004B000000424F54544F4E5F5245414400E5
:105728005453525F48616E646C6C65725F544153A8
:105738004B000000444D535F48616E646C6C6572A9
:105748005F5441534B000000444D535F72656164E0
:105758005F5441534B000000464143455F49445F55
:105768005441534B00000000FFFFFFFFFFFFFFFF06
:10577800FFFFFFFFFFFFFFFFFFFFFFFFFFFFFFFF31
:10578800FFFFFFFFFFFFFFFFFFFFFFFFFFFFFFFF21
:10579800FFFFFFFFFFFFFFFFFFFFFFFFFFFFFFFF11
:1057A800FFFFFFFFFFFFFFFFFFFFFFFFFFFFFFFF01
:1057B800FFFFFFFFFFFFFFFF1C577D47BE47BE3FB0
:1057C800DF37DF37DF37FF37FF2FFF2FFF2FFF2FA1
:1057D800FF37DF37DF37FF37BE3FBE47BE4F7B6738
:1057E800FFFFFFFFFFFFFFFFFFFFFFFFFFFFFFFFC1
:1057F800FFFFFFFFFFFFFFFFFFFFFFFFFFFFFFFFB1
:10580800FFFFFFFFFFFFFFFFFFFFFFFFFFFFFFFFA0
:10581800FFFFFFFFFFFFFFFFFFFFFFFFFFFFFFFF90
:10582800FFFFFFFFFFFFFFFFFFFFFFFFFFFFFFFF80
:10583800FFFFFFFFFFFFFFFFFFFFFFFFFFFFFFFF70
:10584800FFFFFFFFFFFFFFFFFFFFFFFFFFFFFFFF60
:10585800FFFFFFFFFFFFFFFFFFFFFFFFFFFFFFFF50
:10586800FFFFFFFFFFFFFFFFFFFFFFFFFFFFFFFF40
:10587800FFFFFFFFFFFFFFFF5C579D47DE37DF3766
:10588800DF37FF2FFF2FFF27FF27FF27FF27FF2FD8
:10589800FF2FFF2FFF2FFF2FFF2FFF27FF27FF27A8
:1058A800FF27FF2FFF2FFF37DF37BE3FBD3F5C4F7E
:1058B800FFFFFFFFFFFFFFFFFFFFFFFFFFFFFFFFF0
:1058C800FFFFFFFFFFFFFFFFFFFFFFFFFFFFFFFFE0
:1058D800FFFFFFFFFFFFFFFFFFFFFFFFFFFFFFFFD0
:1058E800FFFFFFFFFFFFFFFFFFFFFFFFFFFFFFFFC0
:1058F800FFFFFFFFFFFFFFFFFFFFFFFFFFFFFFFFB0
:10590800FFFFFFFFFFFFFFFFFFFFFFFFFFFFFFFF9F
:10591800FFFFFFFFFFFFFFFFFFFFFFFFFFFFFFFF8F
:10592800FFFFFFFFFFFFFFFFFFFFFFFFFFFFFFFF7F
:10593800FFFFFFFFFFFFFFFFFFFF7C4F9E3FBF3FC3
:10594800FF2FFF2FFF27FF27FF2FFF2FFF2FFF2FEF
:10595800FF2FFF2FFF2FFF2FFF2FFF2FFF2FFF2FCF
:10596800FF2FFF2FFF2FFF2FFF2FFF2FFF2FFF2FBF
:10597800FF27FF27FF2FFF37DF37BE3F9D47FFFF7A
:10598800FFFFFFFFFFFFFFFFFFFFFFFFFFFFFFFF1F
:10599800FFFFFFFFFFFFFFFFFFFFFFFFFFFFFFFF0F
:1059A800FFFFFFFFFFFFFFFFFFFFFFFFFFFFFFFFFF
:1059B800FFFFFFFFFFFFFFFFFFFFFFFFFFFFFFFFEF
:1059C800FFFFFFFFFFFFFFFFFFFFFFFFFFFFFFFFDF
:1059D800FFFFFFFFFFFFFFFFFFFFFFFFFFFFFFFFCF
:1059E800FFFFFFFFFFFFFFFFFFFFFFFFFFFFFFFFBF
:1059F800FFFFFFFFFFFFFFFFFFFFFFFFBA567D47D7
:105A0800BE3FDF37FF27FF27FF27FF2FFF2FFF2F7F
:105A1800FF2FFF2FFF2FFF2FFF2FFF2FFF2FFF2F0E
:105A2800FF2FFF2FFF2FFF2FFF2FFF2FFF2FFF2FFE
:105A3800FF2FFF2FFF2FFF2FFF2FFF2FFF2FFF2FEE
:105A4800FF27FF27FF37DF379D3F9C66FFFFFFFFDC
:105A5800FFFFFFFFFFFFFFFFFFFFFFFFFFFFFFFF4E
:105A6800FFFFFFFFFFFFFFFFFFFFFFFFFFFFFFFF3E
:105A7800FFFFFFFFFFFFFFFFFFFFFFFFFFFFFFFF2E
:105A8800FFFFFFFFFFFFFFFFFFFFFFFFFFFFFFFF1E
:105A9800FFFFFFFFFFFFFFFFFFFFFFFFFFFFFFFF0E
:105AA800FFFFFFFFFFFFFFFFFFFFFFFFFFFFFFFFFE
:105AB800FFFFFFFFFFFFFFFFFFFFFFFFFFFFFFFFEE
:105AC8005C4F9D3FDF37FF2FFF27FF2FFF2FFF2F53
