:020000040800F2
:10000000005000206D530008BD530008BD53000888
:10001000BD530008BD530008BD5300080000000098
:10002000000000000000000000000000B10F000808
:10003000BD53000800000000B1100008F9100008CE
:10004000BD530008BD530008BD530008BD53000850
:10005000BD530008BD530008952A0008B92A0008BE
:10006000DD2A0008012B0008252B0008BD530008DD
:10007000BD530008BD530008BD530008BD53000820
:10008000BD530008BD5300084D230008BD530008B0
:10009000FD2600081127000825270008492B000825
:1000A000193F0008D13E00083D3F0008F53E00081A
:1000B000A13500088136000851370008BD530008FB
:1000C000BD530008BD530008BD530008F93C0008AB
:1000D000BD530008B9440008DD440008014500088C
:1000E000F12B0008BD53000800000000BD530008BC
:1000F000BD530008BD530008BD530008BD530008A0
:10010000BD530008BD530008BD530008BD5300088F
:10011000BD530008BD530008BD530008BD5300087F
:10012000BD530008BD530008BD530008BD5300086F
:1001300010B5054C237833B9044B13B10448AFF321
:1001400000800123237010BD50000020000000003B
:100150001854000808B5034B1BB103490348AFF31B
:10016000008008BD00000000540000201854000862
:1001700080B483B000AF78607B6803F108027B68CD
:100180005A607B684FF0FF329A607B6803F1080287
:100190007B68DA607B6803F108027B681A617B6820
:1001A00000221A6000BF0C37BD4680BC704780B487
:1001B00083B000AF78607B6800221A6100BF0C3703
:1001C000BD4680BC704780B485B000AF78603960B0
:1001D0007B685B68FB603B68FA685A60FB689A68FA
:1001E0003B689A60FB689B683A685A60FB683A68AB
:1001F0009A603B687A681A617B681B685A1C7B6846
:100200001A6000BF1437BD4680BC704780B485B00B
:1002100000AF78607B681B69FB607B685B687A680D
:1002200092689A607B689B687A6852685A60FB683B
:100230005B687A689A4203D17B689A68FB685A6067
:100240007B6800221A61FB681B685A1EFB681A60F3
:10025000FB681B6818461437BD4680BC704780B5E4
:100260008CB004AFF860B9603B601346FB80FB883C
:100270009B00184600F07CFF78617B69002B13D04F
:10028000542000F075FFF861FB69002B08D0542260
:100290000021F86905F0B8F8FB697A691A6305E08E
:1002A000786900F0B7FF01E00023FB61FB69002BD8
:1002B00013D0FA8800230393FB690293FB6A01932E
:1002C000BB6A00933B68B968F86800F00EF8F869FB
:1002D00000F074F80123BB6102E04FF0FF33BB6113
:1002E000BB6918462037BD4680BD80B586B000AFDB
:1002F000F860B9607A603B60BB6A1A6B7B6803F197
:100300008043013B9B0013443B613B6923F007039F
:100310003B61BB68002B1ED000237B6112E0BA68F2
:100320007B6913441978BA6A7B69134434330A46EB
:100330001A70BA687B6913441B78002B06D07B695E
:1003400001337B617B690F2BE9D900E000BFBB6AF9
:10035000002283F843203B6A042B01D904233B622B
:10036000BB6A3A6ADA62BB6A3A6A5A64BB6A0433A5
:100370001846FFF71CFFBB6A18331846FFF717FF34
:10038000BB6ABA6A1A613B6AC3F10502BB6A9A6129
:10039000BB6ABA6A5A623A68F968386900F0BEFD09
:1003A0000246BB6A1A607B6A002B02D07B6ABA6A7B
:1003B0001A6000BF1837BD4680BD000080B584B00C
:1003C00000AF786000F03AFE3E4B1B6801333D4AB7
:1003D00013603D4B1B68002B09D13B4A7B681360BF
:1003E000384B1B68012B10D100F000FD0DE0374B9E
:1003F0001B68002B09D1344B1B68DA6A7B68DB6A07
:100400009A4202D8304A7B681360314B1B68013333
:100410002F4A13607B68DB6A01229A402D4B1B68D0
:1004200013432C4A13607B68DA6A2B4913469B00FE
:1004300013449B000B4404331B68FB607B68FA6821
:100440009A60FB689A687B68DA60FB689B687A68E8
:1004500004325A607B681A1DFB689A607B68DA6A0E
:1004600013469B0013449B001B4A1A447B685A6145
:100470007B68DA6A184913469B0013449B000B44BF
:100480001B68591C144813469B0013449B000344EB
:10049000196000F0EDFD0D4B1B68002B0ED00A4BD0
:1004A0001B68DA6A7B68DB6A9A4207D20B4B4FF013
:1004B00080521A60BFF34F8FBFF36F8F00BF1037AA
:1004C000BD4680BD440100206C000020500100208A
:1004D000600100204C0100207000002004ED00E0CD
:1004E00080B588B000AF786039600023FB613B685D
:1004F000042B01D904233B6000F0A0FD7B68002B96
:1005000002D1554B1B6800E07B68BB61BB695B6C2B
:100510007B617A693B689A4200F098803A687B690F
:100520009A420DD94C4B1B68BA699A420FD04A4B7C
:100530001B68DB6A3A689A4209D30123FB6106E033
:10054000454B1B68BA699A4201D10123FB61BB6923
:10055000DB6A3B61BB695A6CBB69DB6A9A4202D1B8
:10056000BB693A68DA62BB693A685A64BB699B69DD
:10057000002B04DB3B68C3F10502BB699A61BB69D0
:1005800059693A6913469B0013449B00334A13444C
:10059000994250D1BB6904331846FFF737FE034632
:1005A000002B09D101223B6902FA03F3DA432C4BF9
:1005B0001B6813402A4A1360BB69DB6A01229A4018
:1005C000274B1B681343264A1360BB69DA6A234929
:1005D00013469B0013449B000B4404331B68FB60D1
:1005E000BB69FA689A60FB689A68BB69DA60FB6865
:1005F0009B68BA6904325A60BB691A1DFB689A602D
:10060000BB69DA6A13469B0013449B00134A1A44E1
:10061000BB695A61BB69DA6A104913469B001344EF
:100620009B000B441B68591C0C4813469B00134449
:100630009B0003441960FB69002B07D0094B4FF066
:1006400080521A60BFF34F8FBFF36F8F00F010FD21
:1006500000BF2037BD4680BD6C0000207000002028
:100660004C01002004ED00E080B584B000AF78605C
:1006700000F0E4FC7B68002B02D13B4B1B6800E0E0
:100680007B68BB60BB6804331846FFF7BFFD0346B9
:10069000002B15D1BB68DA6A344913469B0013441A
:1006A0009B000B441B68002B0AD1BB68DB6A01224C
:1006B00002FA03F3DA432E4B1B6813402C4A1360F3
:1006C000BB689B6A002B04D0BB6818331846FFF741
:1006D0009DFDBB68043319462648FFF774FD0023CF
:1006E000FB6010E0BA68FB68134450331B78DBB240
:1006F000012B05D1BA68FB681344503300221A70ED
:10070000FB680133FB60FB68002BEBDD00F0B0FC05
:10071000194B1B68002B05D000F090FC00F0E4FBA7
:1007200000F0A6FC104B1B68BA689A4218D1124B15
:100730001B68002B08D0114B4FF080521A60BFF39A
:100740004F8FBFF36F8F0BE00A4B1A680C4B1B687F
:100750009A4203D1044B00221A6001E000F0E8FA4B
:1007600000BF1037BD4680BD6C0000207000002027
:100770004C010020300100205001002004ED00E079
:100780004401002080B485B000AF78600023FB6096
:100790007B68BB60BB685B69094A93420AD1BB684E
:1007A0009B6A084A934205D0BB689B6A002B01D123
:1007B0000123FB60FB6818461437BD4680BC7047B8
:1007C000300100200401002080B584B000AF7860C3
:1007D0007B68FB60344B1B68FA689A425FD0FB6809
:1007E000002B5CD000F02AFCF868FFF7CBFF034633
:1007F000002B52D0FB6804331846FFF707FDFB6857
:10080000DB6A01229A40294B1B681343274A136075
:10081000FB68DA6A264913469B0013449B000B448D
:1008200004331B68BB60FB68BA689A60BB689A684F
:10083000FB68DA60BB689B68FA6804325A60FB6840
:100840001A1DBB689A60FB68DA6A13469B00134462
:100850009B00174A1A44FB685A61FB68DA6A14491C
:1008600013469B0013449B000B441B68591C104803
:1008700013469B0013449B0003441960FB68DA6A2B
:10088000094B1B68DB6A9A4207D30A4B4FF0805230
:100890001A60BFF34F8FBFF36F8F00F0E9FB00BF0B
:1008A0001037BD4680BD00BF6C0000204C01002009
:1008B0007000002004ED00E080B584B002AF154B5D
:1008C00001930023009300234FF4807212491348D0
:1008D000FFF7C5FC78607B68012B15D14FF0BF0393
:1008E00083F31188BFF36F8FBFF34F8F3B6000BF5F
:1008F0000B4B4FF0FF321A600A4B01221A600A4B71
:1009000000221A6000F07AFB084B1B6800BF083712
:10091000BD4680BD6801002030540008BD0D0008B0
:100920006401002050010020480100200000002048
:1009300080B400AF044B1B680133034A136000BF4F
:10094000BD4680BC704700BF6C01002080B586B0FA
:1009500000AF00237B6100233B6100F06FFB684B1D
:100960001B68013B664A1360654B1B68002B40F017
:10097000C080644B1B68002B00F0BB808AE0624B98
:10098000DB68DB687B617B699B6ABB607B69DB69D9
:100990007A69126A9A607B691B6A7A69D2695A60BD
:1009A000BB685A687B6918339A4203D17B691A6A1B
:1009B000BB685A607B6900229A62BB681B685A1E3A
:1009C000BB681A607B695B697B607B699B687A693D
:1009D000D2689A607B69DB687A6992685A607B6842
:1009E0005A687B6904339A4203D17B69DA687B6871
:1009F0005A607B6900225A617B681B685A1E7B68BB
:100A00001A607B69DB6A01229A40404B1B681343E2
:100A10003E4A13607B69DA6A3D4913469B001344E2
:100A20009B000B4404331B683B607B693A689A6007
:100A30003B689A687B69DA603B689B687A69043234
:100A40005A607B691A1D3B689A607B69DA6A1346B3
:100A50009B0013449B002E4A1A447B695A617B69B0
:100A6000DA6A2B4913469B0013449B000B441B6816
:100A7000591C274813469B0013449B0003441960EC
:100A80007B69DA6A234B1B68DB6A9A4202D3224BEA
:100A900001221A601C4B1B68002B7FF470AF7B692E
:100AA000002B01D000F020FA1C4B1B68FB60FB6898
:100AB000002B10D000F036F80346002B02D0164B66
:100AC00001221A60FB68013BFB60FB68002BF1D13F
:100AD000124B00221A60104B1B68002B09D0012317
:100AE0003B610F4B4FF080521A60BFF34F8FBFF343
:100AF0006F8F00F0BDFA3B6918461837BD4680BDC0
:100B00006C01002044010020040100204C01002061
:100B1000700000206C0000205801002054010020CB
:100B200004ED00E080B588B000AF0023FB61754B99
:100B30001B68002B40F0DC80734B1B680133BB61EA
:100B4000714ABB691360BB69002B10D16F4B1B68E6
:100B50007B616F4B1B686D4A13606D4A7B69136044
:100B60006C4B1B6801336B4A136000F0BDF96A4B94
:100B70001B68BA699A42C0F0A680644B1B681B6868
:100B8000002B04D1644B4FF0FF321A609BE05F4BA7
:100B90001B68DB68DB683B613B695B68FB60BA69CB
:100BA000FB689A4203D25C4AFB6813608BE03B69A6
:100BB0005B69BB603B699B683A69D2689A603B6934
:100BC000DB683A6992685A60BB685A683B690433CB
:100BD0009A4203D13B69DA68BB685A603B690022DC
:100BE0005A61BB681B685A1EBB681A603B699B6AE6
:100BF000002B1ED03B699B6A7B603B69DB693A69CD
:100C0000126A9A603B691B6A3A69D2695A607B68CA
:100C10005A683B6918339A4203D13B691A6A7B6868
:100C20005A603B6900229A627B681B685A1E7B6887
:100C30001A603B69DB6A01229A40384B1B681343F8
:100C4000364A13603B69DA6A354913469B00134400
:100C50009B000B4404331B683B603B693A689A6015
:100C60003B689A683B69DA603B689B683A69043282
:100C70005A603B691A1D3B689A603B69DA6A134601
:100C80009B0013449B00264A1A443B695A613B6906
:100C9000DA6A234913469B0013449B000B441B68EC
:100CA000591C1F4813469B0013449B0003441960C2
:100CB0003B69DA6A1B4B1B68DB6A9A427FF65DAFC1
:100CC0000123FB6159E7174B1B68DA6A1449134685
:100CD0009B0013449B000B441B68012B01D901238B
:100CE000FB61114B1B68002B07D00123FB6104E063
:100CF0000E4B1B6801330D4A1360FB691846203701
:100D0000BD4680BD6C01002048010020FC00002091
:100D1000000100205C010020640100204C01002043
:100D2000700000206C0000205801002054010020B9
:100D300080B485B000AF1C4B1B68002B03D01B4B4D
:100D400001221A602AE0194B00221A60184B1B6816
:100D50007B607B68B3FA83F3FB70FB78C3F11F03FE
:100D6000FB60FA6813469B0013449B00114A13442E
:100D7000BB60BB685B685A68BB685A60BB685A68EE
:100D8000BB6808339A4204D1BB685B685A68BB6889
:100D90005A60BB685B68DB68074A136000BF1437A2
:100DA000BD4680BC704700BF6C0100205801002088
:100DB0004C010020700000206C00002080B582B043
:100DC00000AF786000F052F8064B1B68012BF9D990
:100DD000054B4FF080521A60BFF34F8FBFF36F8FF8
:100DE000F0E700BF7000002004ED00E080B582B0A5
:100DF00000AF00237B600CE07A6813469B0013442D
:100E00009B00124A13441846FFF7B2F97B6801337E
:100E10007B607B68042BEFD90D48FFF7A9F90D48DB
:100E2000FFF7A6F90C48FFF7A3F90C48FFF7A0F964
:100E30000B48FFF79DF90B4B054A1A600A4B054A10
:100E40001A6000BF0837BD4680BD00BF700000209B
:100E5000D4000020E8000020040100201801002038
:100E600030010020FC0000200001002080B582B08D
:100E700000AF19E000F0E2F8104BDB68DB687B6044
:100E80007B6804331846FFF7C1F90D4B1B68013B23
:100E90000B4A13600B4B1B68013B0A4A136000F0BE
:100EA000E7F8786800F010F8064B1B68002BE1D1DA
:100EB00000BF00BF0837BD4680BD00BF180100203D
:100EC000440100202C01002080B582B000AF786082
:100ED0007B681B6B184600F09DF9786800F09AF962
:100EE00000BF0837BD4680BD80B400AF094B1B680A
:100EF0001B68002B04D1084B4FF0FF321A6005E04D
:100F0000044B1B68DB681B68034A136000BFBD46C7
:100F100080BC7047FC0000206401002080B485B0D4
:100F200000AFF860B9607A60FB68043BFB60FB6867
:100F30004FF080721A60FB68043BFB60BB6823F0D3
:100F40000102FB681A60FB68043BFB60084AFB680F
:100F50001A60FB68143BFB607A68FB681A60FB68E8
:100F6000203BFB60FB6818461437BD4680BC7047C9
:100F7000750F000880B483B000AF00233B604FF0D2
:100F8000BF0383F31188BFF36F8FBFF34F8F7B6075
:100F900000BF00BF3B68002BFCD000BF00BF0C3778
:100FA000BD4680BC7047000000000000000000004B
:100FB000074B19680868B0E8F00F80F30988BFF3A1
:100FC0006F8F4FF0000080F311884EF00D0E7047C8
:100FD0006C00002000BF00BF06480068006880F376
:100FE000088862B661B6BFF34F8FBFF36F8F00DF23
:100FF00000BF000008ED00E000BF00BF80B500AFFB
:101000000C4B1B680B4A43F47F031360094B1B68AE
:10101000084A43F07F43136000F090F8064B00222B
:101020001A60FFF7D9FFFFF783FEFFF7A3FF002346
:10103000184680BD20ED00E00400002080B483B09D
:1010400000AF4FF0BF0383F31188BFF36F8FBFF37F
:101050004F8F7B6000BF054B1B680133034A136051
:1010600000BF0C37BD4680BC704700BF04000020A5
:1010700080B483B000AF0A4B1B68013B084A136081
:10108000074B1B68002B05D100237B607B6883F333
:10109000118800BF00BF0C37BD4680BC704700BF41
:1010A000040000200000000000000000000000001C
:1010B000EFF30980BFF36F8F0D4B1A6820E9F00F33
:1010C00010602DE908404FF0BF0080F31188FFF752
:1010D0002FFE4FF0000080F31188BDE8084019682A
:1010E0000868B0E8F00F80F30988BFF36F8F70478E
:1010F0006C00002000BF00BF80B582B000AF4FF091
:10110000BF0383F31188BFF36F8FBFF34F8F7B60F3
:1011100000BFFFF707FD0346002B03D0064B4FF03F
:1011200080521A6000233B603B6883F3118800BF44
:1011300000BF0837BD4680BD04ED00E080B400AFBD
:10114000084B00221A60084B00221A60074B46F633
:101150005F521A60034B07221A6000BFBD4680BC75
:10116000704700BF10E000E018E000E014E000E08D
:1011700080B584B000AF78600023FB607B6803F02B
:101180000703002B0ED07B6823F0070308337A682F
:101190009A4205D27B6823F0070308337B6001E0A5
:1011A00000237B60FFF7C4FB174B1B68002B05D1A6
:1011B000164B23F007031A46134B1A607B68002B6B
:1011C0001BD0134B1A687B68134443F67762934233
:1011D00013D80F4B1A687B681A440D4B1B689A4250
:1011E0000BD9094B1A680A4B1B681344FB60084B68
:1011F0001A687B681344064A1360FFF7A7FBFB6875
:1012000018461037BD4680BDF43F0020770100200E
:10121000F03F002080B483B000AF786000BF0C378F
:10122000BD4680BC7047000080B582B000AF124B55
:101230001B687B603B1D1946104801F053FD104BA5
:101240001B687B603B1D19460C4801F04BFD0D4BA4
:101250001B687B603B1D1946084801F043FD0A4BA3
:101260001B687B603B1D1946044801F03BFD00BF35
:101270000837BD4680BD00BF385400080008014053
:101280003C540008405400084454000880B500AFA6
:101290000121104801F038FE0346002B14D10C2127
:1012A0000C4801F031FE0346002B0DD10B210948FB
:1012B00001F02AFE0346002B06D10821054801F063
:1012C00023FE0346002B01D0012300E00023184633
:1012D00080BD00BF0008014080B500AF5E4B1B78A9
:1012E000002B0DD15D4803F027F80346592B40F041
:1012F000B180594B1B780133DAB2574B1A70A9E011
:10130000554B1B78012B0DD1544803F015F80346BB
:10131000592B40F09F80504B1B780133DAB24E4B73
:101320001A7097E04C4B1B78022B10D14A4B1B785C
:101330000133DAB2484B1A70494B00221A804748F1
:1013400002F0FAFF03461A46454B1A8082E0424BF0
:101350001B78032B14D1404B1B780133DAB23E4B80
:101360001A703E4802F0E8FF03461B021AB23C4BDB
:101370001B881BB213431BB29AB2394B1A8069E027
:10138000354B1B78042B10D1334B1B780133DAB269
:10139000314B1A70334B00221A80304802F0CCFFD8
:1013A00003461A462F4B1A8054E02B4B1B78052B13
:1013B00014D1294B1B780133DAB2274B1A70274816
:1013C00002F0BAFF03461B021AB2264B1B881BB25F
:1013D00013431BB29AB2234B1A803BE01E4B1B787F
:1013E000062B10D11C4B1B780133DAB21A4B1A7042
:1013F0001D4B00221A80194802F09EFF03461A4630
:10140000194B1A8026E0144B1B78072B14D1124B72
:101410001B780133DAB2104B1A70104802F08CFFBF
:1014200003461B021AB2104B1B881BB213431BB29C
:101430009AB20D4B1A800DE0074B1B78082B09D18F
:10144000064802F079FF0346DAB2084B1A70024BE5
:1014500000221A7000BF80BDFF3F002000480040FE
:10146000F83F0020FA3F0020FC3F0020FE3F002014
:1014700090B587B000AF03460A46FB711346BB71B7
:101480008D4B07F108040FCB84E80F0007F1080328
:1014900019468A4802F0A8FD5A21884802F00CFF3C
:1014A0000821864802F008FF0621844802F004FF64
:1014B0000021824802F000FFC221804802F0FCFEB9
:1014C00001217E4802F0F8FE00217C4802F0F4FE83
:1014D00000217A4802F0F0FEFB79012B1CD0022B90
:1014E00043D0002B52D15A21744802F0E5FE062168
:1014F000724802F0E1FE0321704802F0DDFE642133
:101500006E4802F0D9FE00216C4802F0D5FE0021A1
:101510006A4802F0D1FE39E05A21684802F0CCFE58
:101520000621664802F0C8FE0321644802F0C4FEAA
:101530000021624802F0C0FE0021604802F0BCFEBB
:1015400000215E4802F0B8FE5A215C4802F0B4FE69
:1015500004215A4802F0B0FE0421584802F0ACFEC3
:101560000021564802F0A8FE10E05A21534802F02C
:10157000A3FE0421514802F09FFE3B214F4802F098
:101580009BFE00214D4802F097FE00BFBB79052B62
:1015900000F28E8001A252F823F000BFB5150008BA
:1015A000DF15000809160008331600085D1600084C
:1015B000871600085A21414802F07EFE05213F4867
:1015C00002F07AFE05213D4802F076FE01213B48FB
:1015D00002F072FE0021394802F06EFE68E05A21E6
:1015E000364802F069FE0521344802F065FE052107
:1015F000324802F061FE0221304802F05DFE002117
:101600002E4802F059FE53E05A212C4802F054FEB5
:1016100005212A4802F050FE0521284802F04CFE20
:101620000621264802F048FE0021244802F044FE2C
:101630003EE05A21214802F03FFE05211F4802F0FA
:101640003BFE05211D4802F037FE07211B4802F032
:1016500033FE0021194802F02FFE29E05A211748D5
:1016600002F02AFE0521154802F026FE0521134846
:1016700002F022FE0821114802F01EFE00210F4850
:1016800002F01AFE14E05A210C4802F015FE052162
:101690000A4802F011FE0521084802F00DFE09215A
:1016A000064802F009FE0021044802F005FE00BFD2
:1016B00000BF1C37BD4690BD48540008004800409C
:1016C00080B58CB004AF0346FB7107F11003002214
:1016D0001A605A609A60DA6001233B7401237B74BC
:1016E000344B1B68FB6007F110031946324802F0C7
:1016F000FBF807F10C031946304801F0F3FA032315
:10170000BB8107F10C0319462C4801F0EBFA0122CA
:1017100004212A4801F0D0FB00220221274801F0D1
:10172000CBFB782002F048FC01220221234801F083
:10173000C3FB782002F040FC012000F01DF9782066
:1017400002F03AFC112000F017F96E2002F034FC90
:101750003A2000F011F9FB79184600F02FF97820B3
:1017600002F02AFC362000F007F9782002F024FC71
:10177000802000F023F9782002F01EFCB42000F055
:10178000FBF8002000F01AF9292000F0F5F8782085
:1017900002F012FCFF230293FF230193FF23009327
:1017A0007F2300229F21002000F0A3F800BF2037F4
:1017B000BD4680BD5854000800300140000801407B
:1017C00090B583B000AF0446084611461A4623463A
:1017D000FB800346BB800B467B8013463B802A2060
:1017E00000F0CAF87B881B0A9BB2DBB2184600F0F7
:1017F000E5F87B88DBB2184600F0E0F83B881B0A6E
:101800009BB2DBB2184600F0D9F83B88DBB2184631
:1018100000F0D4F82B2000F0AFF8FB881B0A9BB235
:10182000DBB2184600F0CAF8FB88DBB2184600F0BD
:10183000C5F8BB881B0A9BB2DBB2184600F0BEF8A5
:10184000BB88DBB2184600F0B9F800BF0C37BD46C4
:1018500090BD90B587B000AF0446084611461A46C1
:101860002346FB800346BB800B467B8013463B80B0
:10187000BA88FB88D31A39887A888A1A02FB03F35C
:101880003B610023FB730023BB7300237B73BB8886
:10189000013B99B23B88013B9BB27A88F888FFF7FD
:1018A0008FFF2C2000F068F800237B6116E07B6935
:1018B0005B00BA6A13441B881B0A9BB2DBB2184652
:1018C00000F07CF87B695B00BA6A13441B88DBB2CA
:1018D000184600F073F87B6901337B617A693B69D4
:1018E0009A42E4D3002000F047F800BF1C37BD4601
:1018F00090BD90B585B000AF0446084611461A4623
:101900002346FB800346BB800B467B8013463B800F
:10191000BB885A1CFB88D31A3A88511C7A888A1AC9
:1019200002FB03F3BB603B887A88B988F888FFF72D
:1019300047FF2C2000F020F80023FB6011E097F80F
:101940002030184600F03AF897F82430184600F096
:1019500035F897F82830184600F030F8FB68013366
:10196000FB60FA68BB689A42E9D3002000F004F8F3
:1019700000BF1437BD4690BD80B582B000AF0346AE
:10198000FB71002204210B4801F096FA002203218A
:10199000084801F091FAFB791946074802F064F80B
:1019A00001220421034801F087FA00BF0837BD4631
:1019B00080BD00BF000801400030014080B582B00A
:1019C00000AF0346FB71002204210B4801F074FABA
:1019D00001220321084801F06FFAFB7919460748F4
:1019E00002F042F801220421034801F065FA00BF29
:1019F0000837BD4680BD00BF0008014000300140EF
:101A000080B584B004AF0B4B009351232E229F214D
:101A10008220FFF71EFFFF230293FF230193FF2382
:101A2000009351232E2288218220FFF762FF00BFFE
:101A3000BD4680BDB057010880B584B004AF002317
:101A4000029300230193002300937F2300229F2110
:101A50000020FFF74EFF0D4B009365231A227521DE
:101A60002A20FFF7F6FE4FF4FA7002F0A5FAFF23E2
:101A70000293FF230193FF2300937F2300229F21E2
:101A80000020FFF736FF00BFBD4680BD406C010857
:101A900080B582B002AF054B00934F2331226621FF
:101AA0004B20FFF7D6FE00BFBD4680BDA850010801
:101AB00080B586B004AF0346FB71FB79002B08D0DC
:101AC0000C4B00931A2300221A210020FFF7C1FEBD
:101AD0000BE0FF230293FF230193FF2300931A23BC
:101AE00000221A210020FFF704FF00BF0837BD467F
:101AF00080BD00BF4461010880B586B004AF0346D5
:101B0000FB71FB79002B08D00C4B009380236522DE
:101B10001B210020FFF79DFE0BE0FF230293FF2314
:101B20000193FF230093802365221B210020FFF7F0
:101B3000E0FE00BF0837BD4680BD00BF8C660108CF
:101B400080B584B002AF0346FB71FB79083B0B2BD9
:101B500042D801A252F823F0B11B0008891B0008EB
:101B6000D91B0008D91B0008D91B0008D91B000885
:101B7000D91B0008D91B00089D1B0008D91B0008B1
:101B8000D91B0008C51B00081A4B009365231A22B5
:101B90004B210020FFF75DFE002326E0164B00934B
:101BA00065231A224B210020FFF753FE00231CE07F
:101BB000124B009365231A224B210020FFF749FEA8
:101BC000002312E00E4B009365231A224B210020C4
:101BD000FFF73FFE002308E00A4B009365231A221B
:101BE0004B210020FFF735FE012318460837BD467C
:101BF00080BD00BF7405010880D90008A455000805
:101C0000988100088CAD000880B586B004AF03460B
:101C1000FB71FB79632B48D84E4B1B78002B11D1FD
:101C2000FF230293FF230193FF2300935E232222CD
:101C30007D216920FFF75DFE464B1B780133DAB248
:101C4000444B1A70FA79444BA3FB0213D9080B4694
:101C50009B000B445B00D31ADBB21A463F4B53F890
:101C600022300093542340227D216920FFF7F1FDAB
:101C7000FB79394AA2FB0323DB08FB71FA79364B67
:101C8000A3FB0213D9080B469B000B445B00D31A3D
:101C9000DBB21A46314B53F82230009340232C22FA
:101CA0007D216920FFF7D5FD50E02A4B00221A70F4
:101CB000FA79294BA3FB0213D9080B469B000B446E
:101CC0005B00D31ADBB21A46244B53F82230009340
:101CD0005E234A227D216920FFF7BBFDFB791E4A66
:101CE000A2FB0323DB08FB71FA791B4BA3FB021356
:101CF000D9080B469B000B445B00D31ADBB21A4693
:101D0000164B53F8223000934A2336227D21692056
:101D1000FFF79FFDFB79104AA2FB0323DB08FB7151
:101D2000FA790D4BA3FB0213D9080B469B000B4419
:101D30005B00D31ADBB21A46084B53F822300093EB
:101D4000362322227D216920FFF783FD00BF08375B
:101D5000BD4680BD00400020CDCCCCCC080000208A
:101D600080B400AFFEE7000080B590B000AF03463E
:101D7000FB710023BB87002387F83E30002387F8E0
:101D80003F30FB790F2B00F2D78001A252F823F0ED
:101D9000D11D0008EF1D00080D1E00082B1E0008B5
:101DA000491E0008671E0008851E0008A31E0008C3
:101DB000C11E0008DF1E0008391F0008391F000877
:101DC000391F0008391F0008FD1E00081B1F0008EE
:101DD0000023BB87002387F83E30002387F83F307D
:101DE00007F13C031946584800F07CFFA7E00123A7
:101DF000BB87002387F83E30002387F83F3007F188
:101E00003C031946504800F06DFF98E00223BB8761
:101E1000002387F83E30002387F83F3007F13C036A
:101E20001946494800F05EFF89E00323BB87002381
:101E300087F83E30002387F83F3007F13C0319460E
:101E4000414800F04FFF7AE00423BB87002387F866
:101E50003E30002387F83F3007F13C0319463A48EB
:101E600000F040FF6BE00523BB87002387F83E307E
:101E7000002387F83F3007F13C031946324800F051
:101E800031FF5CE00623BB87002387F83E30002348
:101E900087F83F3007F13C0319462B4800F022FF3A
:101EA0004DE00723BB87002387F83E30002387F8E7
:101EB0003F3007F13C031946234800F013FF3EE092
:101EC0000023BB87002387F83E30002387F83F308C
:101ED00007F13C0319461D4800F004FF2FE00123E1
:101EE000BB87002387F83E30002387F83F3007F197
:101EF0003C031946154800F0F5FE20E00423BB879B
:101F0000002387F83E30002387F83F3007F13C0379
:101F100019460F4800F0E6FE11E00523BB870023B9
:101F200087F83E30002387F83F3007F13C0319461D
:101F3000074800F0D7FE02E0FFF712FF00BF00BF26
:101F40004037BD4680BD00BF00080140000C014085
:101F50000010014080B582B000AF786039603B6806
:101F60001B78092B05D93B681B780D2B01D8012361
:101F700077E17B689A4A934213D13B681B781946F4
:101F8000984A0B465B000B449B0013443A6807CA0F
:101F900083E80700944B9B69934A43F40073936171
:101FA00013E03B681B7819468E4A0B465B000B44D6
:101FB0009B001344C0333A6807CA83E807008A4B82
:101FC0009B69894A43F4806393613B681B78184698
:101FD000FFF7CAFE7A68936843F0010393600A2012
:101FE00001F0BEFF7A68936843F00103936001F04B
:101FF00067FC03467D4AA2FB03239B0C1C2B14D0D9
:102000001C2B19D8082B02D0102B07D014E0764BCC
:102010005B68754A23F44043536014E0724B5B687D
:10202000714A23F4404353600DE06F4B5B686E4A86
:1020300023F44043536006E06B4B5B686A4A43F409
:102040000043536000BF7A68936843F004039360D1
:102050007A6893686FF3CB2393603B681B780F2BF0
:1020600000F2A88001A252F823F000BFAD200008C2
:10207000C3200008D9200008EF200008052100082F
:102080001B21000831210008472100085D210008BC
:1020900073210008B5210008B5210008B52100080A
:1020A000B5210008892100089F2100083B689B7822
:1020B00003F00703D9B27A68136961F3020313616D
:1020C0007BE03B689B7803F00703D9B27A68136919
:1020D00061F3C503136170E03B689B7803F007036D
:1020E000D9B27A68136961F38813136165E03B68BC
:1020F0009B7803F00703D9B27A68136961F34B2325
:1021000013615AE03B689B7803F00703D9B27A6801
:10211000136961F30E3313614FE03B689B7803F062
:102120000703D9B27A68136961F3D133136144E0CC
:102130003B689B7803F00703D9B27A68136961F3AF
:102140009443136139E03B689B7803F00703D9B2ED
:102150007A68136961F3575313612EE03B689B78EB
:1021600003F00703D9B27A68136961F31A63136144
:1021700023E03B689B7803F00703D9B27A681369C0
:1021800061F3DD63136118E03B689B7803F007039C
:10219000D9B27A68D36861F30E33D3600DE03B683F
:1021A0009B7803F00703D9B27A68D36861F3D1331F
:1021B000D36002E0FFF7D4FD00BF3B685B78002BE3
:1021C00002D0012B06D013E07A6893686FF34103C5
:1021D000936010E07A68936843F0020393600AE02A
:1021E00000240140044000200010024083DE1B4315
:1021F000FFF7B6FD00BF3B685B681B7803F0010387
:10220000DBB2002B22D07A68536843F4000353609A
:102210003B681B7803F01F03D9B27A68536861F3F7
:10222000040353603B68DB78012B05D17A6853685F
:1022300043F04003536004E07A6853686FF38613F9
:1022400053607A68536843F4007353607A68936804
:1022500043F4603393607A68936843F48013936027
:10226000002318460837BD4680BD00BF80B487B044
:1022700000AFF8600B467A60FB7200237B61FB685D
:10228000304A934208D1FA7A13465B0013449B000C
:102290002D4A13447B6108E0FA7A13465B0013442D
:1022A0009B00C033284A13447B61FB680022DA623A
:1022B000FB6800221A63FB6800225A637B691B7863
:1022C00003F01F03D9B2FA68536B61F3040353633D
:1022D0007B695B78002B0CD1FA68936843F4801318
:1022E000936000BFFB681B68C3F34003DBB2002BA5
:1022F000F8D07B69DB78002B08D0FB68DB6C9AB2E6
:102300007B681A807B6802337B6016E00023FB74D5
:102310000AE0FB68DB6C9AB27B681A807B68023348
:102320007B60FB7C0133FB74FB68DB6AC3F3035304
:10233000DBB21A46FB7C9342EBD900BF1C37BD468B
:1023400080BC7047002401400440002080B500AFED
:10235000134B1B68C3F34003DBB2012B0FD1104BAF
:102360005B6BC3F30403DBB219460E4A0B465B00FA
:102370000B449B00134408331B6898470EE00A4B3C
:102380005B6BC3F30403DBB21946064A0B465B00E2
:102390000B449B001344C8331B68984700BF80BDA3
:1023A00000240140044000200028014080B400AF18
:1023B000FEE7000080B582B000AF0A4B1B687B606F
:1023C0003B1D1946084800F08DFC084B1B687B60DC
:1023D0003B1D1946044800F085FC00BF0837BD4688
:1023E00080BD00BF5C540008000801406054000834
:1023F00080B582B000AF7860844B7A6807CA83E802
:102400000700834BDB69824A43F00073D361FFF717
:10241000D1FF804B5B68C3F30003DBB2002B1FD1FD
:102420007C4B5B68C3F34003DBB2012B18D1794AC4
:1024300013686FF341031360764A136843F0010396
:10244000136000BF734B5B68C3F30003DBB2012B67
:10245000F8D1704B5B68C3F34003DBB2002BF1D1C2
:102460007B681B78002B05D06A4A136843F0400351
:10247000136004E0674A13686FF3861313607B6888
:102480005B78002B05D0634A136843F01003136098
:1024900004E0604A13686FF3041313605D4A136825
:1024A0006FF3820313607B689B78002B05D0594A39
:1024B000136843F00803136004E0564A13686FF38F
:1024C000C303136001F0E8F90346534A934203D073
:1024D000524A934223D045E07B68DB78032B3ED8F9
:1024E00001A252F823F000BFF924000803250008D8
:1024F0000D25000815250008464B4FF4A022DA618F
:102500000CE0444B4FF4E012DA6107E0414B444ADF
:10251000DA6103E03F4B434ADA6100BF1FE07B68AA
:10252000DB78032B1DD801A252F823F03D250008CB
:10253000452500084D25000855250008354B3A4A29
:10254000DA610BE0334B394ADA6107E0314B384A44
:10255000DA6103E02F4B374ADA6100BF01E000BFC8
:1025600000E000BF7B681B79032B37D801A252F82B
:1025700023F000BF852500089B250008B125000831
:10258000C7250008234AD3696FF3DF73D361214A5B
:10259000D3696FF39E73D36123E01E4AD36943F07E
:1025A0000043D3611B4AD3696FF39E73D36118E074
:1025B000184AD3696FF3DF73D361164AD36943F0C6
:1025C0008043D3610DE0134AD36943F00043D361E4
:1025D000104AD36943F08043D36102E0FFF7E6FE7F
:1025E00000BF7B685B79002B28D00A4A536943F00F
:1025F00002035361074A536943F0100353610E4BC2
:102600001B680D4A43F44013136027E08441002007
:10261000001002400064004000127A0000366E0193
:1026200001001C0004001C000100090002001C0045
:1026300005001C000E001C0000E100E0224A536966
:102640006FF341035361204A53696FF304135361DD
:102650001E4B1B681D4A43F4401313601A4A53690A
:1026600043F480635361184A536943F40043536150
:10267000174B1B68164A43F480031360124B5B68C8
:10268000C3F30003DBB2012B18D10F4B5B68C3F31C
:102690004003DBB2002B11D10B4A13686FF34103E7
:1026A0001360094A13686FF30003136000BF064B01
:1026B0005B68C3F30003DBB2012BF8D0002318469C
:1026C0000837BD4680BD00BF0064004080E100E0E7
:1026D00000E100E080B400AF074B1B69064A43F0FD
:1026E00000731361044B1B69034A23F000731361E9
:1026F00000BFBD4680BC70470010024080B500AFEF
:10270000024B9B68984700BF80BD00BF84410020FA
:1027100080B500AF024B9B68984700BF80BD00BFEB
:102720008441002080B500AFFFF7D4FF0248FFF7D7
:102730005FFE00BF80BD00BF8441002080B483B035
:1027400000AF0346FB71FB790F2B54D801A252F85E
:1027500023F000BF95270008A3270008B127000831
:10276000BF270008CD270008DB270008DB2700086B
:10277000DB270008DB270008DB270008E927000823
:10278000E9270008E9270008E9270008E9270008E9
:10279000E92700081A4B1B68194A43F040031360ED
:1027A00029E0174B1B68164A43F08003136022E0B0
:1027B000134B1B68124A43F4807313601BE0104BE9
:1027C0001B680F4A43F40073136014E00C4B1B6842
:1027D0000B4A43F4806313600DE0094B1B68084A01
:1027E00043F40003136006E0064B1B68054A43F4FC
:1027F0008073136000BF00BF0C37BD4680BC7047BC
:1028000000E100E004E100E080B483B000AF0346E3
:10281000FB71FB790F2B54D801A252F823F000BFB3
:10282000612800086F2800087D2800088B28000810
:1028300099280008A7280008A7280008A72800084A
:10284000A7280008A7280008B5280008B528000810
:10285000B5280008B5280008B5280008B5280008E4
:102860001A4B1B68194A23F04003136029E0174BE9
:102870001B68164A23F08003136022E0134B1B6889
:10288000124A23F4807313601BE0104B1B680F4A3D
:1028900023F40073136014E00C4B1B680B4A23F401
:1028A000806313600DE0094B1B68084A23F40003A2
:1028B000136006E0064B1B68054A23F4807313601F
:1028C00000BF00BF0C37BD4680BC704700E100E090
:1028D00004E100E080B584B000AF7860654B9B698F
:1028E000644A43F0010393617B681B889B089BB299
:1028F000FB737B681B88DBB203F00303DBB29B0036
:10290000BB730023BB607B681B893B810123BB72C7
:102910007B685B6807F108021146184600F0E2F98F
:102920007B681B7B002B0BD1534BDB687A681288CA
:10293000114601228A4011464F4A0B43D36029E0D9
:102940007B681B7B012B0BD14B4B9B687A681288F1
:10295000114601228A401146474A0B43936019E011
:102960007B681B7B022B15D1434BDB687A6812888E
:10297000114601228A4011463F4A0B43D3603E4B29
:102980009B687A681288114601228A4011463A4AA9
:102990000B439360394AFB7B023352F82320BB7B05
:1029A0000F2101FA03F3DB4318463449FB7B024055
:1029B000023341F82320314AFB7B023352F82320B3
:1029C0007B685B682E498B4216D07B685B682D491B
:1029D0008B420FD07B685B682B498B4208D07B68A9
:1029E0005B682A498B4201D1042306E0002304E0FE
:1029F000032302E0012300E00023B97B8B4018464B
:102A00001E49FB7B0243023341F823207B681B886D
:102A100019467B681B691E4A42F821307B685B7B44
:102A2000012B11D1144B1B687A68128811460122C0
:102A30008A401146104A0B4313607B681B88DBB247
:102A40001846FFF77BFE11E00B4B1B687A68128873
:102A5000114601228A40D2431146074A0B401360B7
:102A60007B681B88DBB21846FFF7CEFE00BF10372D
:102A7000BD4680BD0010024000040140000001403E
:102A800000080140000C014000100140001401400A
:102A90009041002080B500AF054B1B689847054B5F
:102AA0005B69044A43F00103536100BF80BD00BF6E
:102AB000904100200004014080B500AF054B5B68E9
:102AC0009847054B5B69044A43F00203536100BF1A
:102AD00080BD00BF904100200004014080B500AFE0
:102AE000054B9B689847054B5B69044A43F0040318
:102AF000536100BF80BD00BF904100200004014031
:102B000080B500AF054BDB689847054B5B69044A0D
:102B100043F00803536100BF80BD00BF9041002017
:102B20000004014080B500AF054B1B699847054B79
:102B30005B69044A43F01003536100BF80BD00BFCE
:102B4000904100200004014080B500AF264B5B6936
:102B500003F02003002B08D0234B5B69224A43F08B
:102B600020035361214B5B6998471F4B5B6903F05E
:102B70004003002B08D01C4B5B691B4A43F0400309
:102B800053611A4B9B699847174B5B6903F08003AD
:102B9000002B08D0144B5B69134A43F08003536148
:102BA000124BDB699847104B5B6903F48073002B71
:102BB00008D00D4B5B690C4A43F4807353610B4B97
:102BC0001B6A9847084B5B6903F40073002B08D01D
:102BD000054B5B69044A43F400735361034B5B6A22
:102BE000984700BF80BD00BF000401409041002015
:102BF00080B500AF2D4B5B6903F48063002B08D0D8
:102C00002A4B5B69294A43F480635361284B9B6AD2
:102C10009847264B5B6903F40063002B08D0234BD5
:102C20005B69224A43F400635361214BDB6A984796
:102C30001E4B5B6903F48053002B08D01B4B5B6970
:102C40001A4A43F480535361194B1B6B9847174B37
:102C50005B6903F40053002B08D0144B5B69134AE3
:102C600043F400535361124B5B6B98470F4B5B6906
:102C700003F48043002B08D00C4B5B690B4A43F4F0
:102C8000804353610A4B9B6B9847084B5B6903F485
:102C90000043002B08D0054B5B69044A43F4004312
:102CA0005361034BDB6B984700BF80BD00040140BC
:102CB0009041002080B485B000AF0346FB80FB88C4
:102CC000072B03D8FB889B009BB204E0FB88083BE2
:102CD0009BB29B009BB2FB81FB8918461437BD4613
:102CE00080BC704790B585B000AF786039607B6874
:102CF0006B4A934206D16B4B9B696A4A43F00403CB
:102D000093612AE07B68684A934206D1654B9B69D0
:102D1000644A43F0080393611FE07B68634A93426F
:102D200006D1604B9B695F4A43F01003936114E046
:102D30007B685F4A934206D15A4B9B69594A43F0DC
:102D40002003936109E07B685A4A934205D1554BB1
:102D50009B69544A43F0400393613B681B889BB2D4
:102D6000072B01D87B6801E07B680433FB603B687C
:102D70001B889BB21846FFF79DFF03461A460F2398
:102D80009340DA43FB681B681A40FB681A603B6893
:102D90009B78DBB2002B0ED03B689B78DBB2012B1B
:102DA00009D03B689B78DBB2022B04D03B689B7850
:102DB000DBB2032B56D13B689B78DBB2032B1CD1D3
:102DC0003B681B889BB21846FFF774FF03461A4600
:102DD000082303FA02F2FB681B681A43FB681A60B7
:102DE0003B681B889BB21A4601239340DA437B68F9
:102DF000DB681A407B68DA604DE03B689B78DBB2A9
:102E0000022B1CD13B681B889BB21846FFF752FF70
:102E100003461A46082303FA02F2FB681B681A43AA
:102E2000FB681A603B681B889BB21A46012303FAB1
:102E300002F27B68DB681A437B68DA602BE03B6850
:102E40009B78DBB29C003B681B889BB21846FFF75F
:102E500031FF034604FA03F2FB681B681A43FB6860
:102E60001A6018E03B689B78DBB2043B9B003A6831
:102E7000D278D2B243EA02043B681B889BB2184660
:102E8000FFF718FF034604FA03F2FB681B681A43B6
:102E9000FB681A6000BF00BF1437BD4690BD00BF7D
:102EA0000008014000100240000C014000100140E9
:102EB000001401400018014080B483B000AF786076
:102EC0000B467B8013467B707B78DBB2012B0BD1EA
:102ED0007B889BB21A46012303FA02F27B68DB6807
:102EE0001A437B68DA600AE07B889BB21A460123AA
:102EF0009340DA437B68DB681A407B68DA6000BF86
:102F00000C37BD4680BC704780B483B000AF78609A
:102F10000B467B807B689B687A8892B2D3409BB2D9
:102F200003F001039BB218460C37BD4680BC7047C6
:102F300080B400AFFEE7000080B584B000AF7860D9
:102F40000B46FB701346BB707B68B3F1804F40F0BB
:102F50008480FB78012B05D0022B3FD0002B00F0A2
:102F6000AB81B0E1BB78013B032B33D801A252F80F
:102F700023F000BF852F0008992F0008AD2F00080F
:102F8000C12F0008AF4B1B68FB6007F10C0319460B
:102F9000AD48FFF7A7FE20E0AC4B1B68FB6007F1D4
:102FA0000C031946A848FFF79DFE16E0A84B1B68C6
:102FB000FB6007F10C031946A348FFF793FE0CE0F2
:102FC000A44B1B68FB6007F10C0319469E48FFF7F2
:102FD00089FE02E0FFF7ACFF75E174E1BB78013BCD
:102FE000032B36D801A252F823F000BFFD2F0008B2
:102FF000173000082B3000083F3000080023BB8149
:103000000123BB730023FB7307F10C0319468E48A1
:10301000FFF768FE20E0904B1B68FB6007F10C0394
:1030200019468948FFF75EFE16E08C4B1B68FB6073
:1030300007F10C0319468448FFF754FE0CE0884B57
:103040001B68FB6007F10C0319467F48FFF74AFE37
:1030500002E0FFF76DFF36E135E17B68814A93427C
:1030600040F08380FB78012B05D0022B3ED0002B53
:1030700000F0248127E1BB78013B032B32D801A269
:1030800052F823F095300008A9300008BD30000840
:10309000D1300008744B1B68FB6007F10C03194624
:1030A0006948FFF71FFE20E0704B1B68FB6007F1CB
:1030B0000C0319466448FFF715FE16E0614B1B68C8
:1030C000FB6007F10C0319466948FFF70BFE0CE0A3
:1030D0005E4B1B68FB6007F10C0319466448FFF761
:1030E00001FE02E0FFF724FFEDE0ECE0BB78013BDE
:1030F000032B36D801A252F823F000BF0D3100088F
:1031000021310008353100084F310008594B1B6848
:10311000FB6007F10C0319464B48FFF7E3FD23E082
:10312000554B1B68FB6007F10C0319464648FFF737
:10313000D9FD19E00023BB810123BB730023FB737E
:1031400007F10C0319464A48FFF7CCFD0CE0424B4F
:103150001B68FB6007F10C0319464548FFF7C2FDE9
:1031600002E0FFF7E5FEAEE0ADE07B68434A934244
:1031700040F0A680FB78012B05D0022B3ED0002B1F
:1031800000F0A0809FE0BB78013B032B32D801A266
:1031900052F823F0A5310008B9310008CD310008FC
:1031A000E1310008304B1B68FB6007F10C03194646
:1031B0002F48FFF797FD20E02C4B1B68FB6007F1C1
:1031C0000C0319462A48FFF78DFD16E02C4B1B68AF
:1031D000FB6007F10C0319462548FFF783FD0CE05F
:1031E000284B1B68FB6007F10C0319462048FFF7CA
:1031F00079FD02E0FFF79CFE65E064E0BB78013BEF
:10320000032B55D801A252F823F000BF1D3200084D
:1032100031320008893200089D320008154B1B68C6
:10322000FB6007F10C0319461148FFF75BFD42E014
:10323000114B1B68FB6007F10C0319460C48FFF7A4
:1032400051FD38E06454000800080140685400084B
:103250006C54000870540008745400087854000836
:103260007C54000800040040805400088454000886
:10327000000C0140885400088C54000800080040ED
:103280009054000894540008114B1B68FB6007F130
:103290000C0319460F48FFF725FD0CE00E4B1B6889
:1032A000FB6007F10C0319460A48FFF71BFD02E01B
:1032B000FFF73EFE07E006E000BF04E000BF02E0CB
:1032C00000BF00E000BF00BF1037BD4680BD00BF9B
:1032D00098540008000C01409C54000890B585B03B
:1032E00000AFF860B9607A60BB685B7A002B40F091
:1032F000BE80F86800F0CEF8604AFB681360FB6897
:10330000B3F1804F0CD15E4BDB695D4A43F00103A2
:10331000D3615C4ABB6814460FCB84E80F0024E0FD
:10332000FB68594A93420ED1554BDB69544A43F02E
:103330000203D361534BBA6803F1100413460FCB59
:1033400084E80F0011E0FB68504A93420DD14C4BCA
:10335000DB694B4A43F00403D3614A4BBA6803F17B
:10336000200413460FCB84E80F00BB681B88013B89
:103370001A46FB689A62BB685B881A46FB68DA6289
:10338000BB689B881A46FB681A63BB689B88002B46
:1033900004D0FA68136843F0800313607B681B78DD
:1033A000012B0ED0022B17D0002B1BD1FA6813680B
:1033B0006FF346131360FA6813686FF30413136016
:1033C00013E0FA6813686FF346131360FA68136822
:1033D00043F01003136008E0FA68136843F06003D9
:1033E000136002E0FFF7A4FD00BF00220021F8688F
:1033F000FFF7A2FDFA68136843F001031360BB688E
:103400001B7A002B25D1FA68D36843F00103D360FF
:10341000FB68B3F1804F06D11D4B1B681C4A43F07B
:103420008053136025E0FB68174A934206D1184B7E
:103430001B68174A43F0005313601AE0FB68134AF5
:10344000934216D1124B1B68114A43F0804313601C
:103450000FE000BFFB681B69C3F30003DBB2002B66
:10346000F8D0FA6813696FF30003136101E0FFF706
:103470005FFD00BF1437BD4690BD00BF7042002005
:1034800000100240384200200004004000080040C4
:1034900000E100E080B483B000AF78607B68B3F1F6
:1034A000804F06D13B4BDB693A4A43F00103D361BD
:1034B00014E07B68384A934206D1364BDB69354AC3
:1034C00043F00203D36109E07B68344A934205D19B
:1034D000304BDB692F4A43F00403D3617B68002241
:1034E0001A607B680022DA627B6800221A627B68BD
:1034F00000229A617B680022DA617B6800225A63AD
:103500007B6800229A637B680022DA637B68002272
:103510001A647B6800225A627B6800225A607B68CA
:1035200000229A627B68B3F1804F0CD1194B1B6962
:10353000184A43F001031361164B1B69154A23F027
:103540000103136120E07B68134A93420CD1114BB5
:103550001B69104A43F0020313610E4B1B690D4AAD
:1035600023F0020313610FE07B680C4A93420BD1F6
:10357000084B1B69074A43F004031361054B1B69A1
:10358000044A23F00403136100BF0C37BD4680BC1E
:10359000704700BF001002400004004000080040D7
:1035A00080B582B000AF4FF080431B69C3F30003C6
:1035B000DBB2002B0BD07A68137843F00103137051
:1035C0004FF0804213696FF3000313614EE04FF038
:1035D00080431B69C3F34003DBB2002B0BD07A6836
:1035E000137843F0020313704FF0804213696FF3B6
:1035F000410313613AE04FF080431B69C3F380033A
:10360000DBB2002B0BD07A68137843F004031370FD
:103610004FF0804213696FF38203136126E04FF08D
:1036200080431B69C3F3C003DBB2002B0BD07A6865
:10363000137843F0080313704FF0804213696FF35F
:10364000C303136112E04FF080431B69C3F30013FF
:10365000DBB2002B0AD07A68137843F010031370A2
:103660004FF0804213696FF304131361034BDB685F
:103670007868984700BF0837BD4680BD38420020B3
:1036800080B582B000AF304B1B69C3F30003DBB2DF
:10369000002B0AD07A68137843F0010313702A4A8A
:1036A00013696FF30003136146E0274B1B69C3F3F3
:1036B0004003DBB2002B0AD07A68137843F0020390
:1036C0001370214A13696FF34103136134E01E4BF9
:1036D0001B69C3F38003DBB2002B0AD07A6813782E
:1036E00043F004031370184A13696FF382031361E4
:1036F00022E0154B1B69C3F3C003DBB2002B0AD0D9
:103700007A68137843F0080313700F4A13696FF354
:10371000C303136110E00C4B1B69C3F30013DBB24E
:10372000002B09D07A68137843F010031370064A0F
:1037300013696FF304131361044BDB6978689847CE
:1037400000BF0837BD4680BD00040040384200205D
:1037500080B582B000AF334B1B69C3F30003DBB20B
:10376000002B0AD07A68137843F0010313702D4AB6
:1037700013696FF3000313614BE02A4B1B69C3F31A
:103780004003DBB2002B0AD07A68137843F00203BF
:103790001370244A13696FF34103136139E0214B1D
:1037A0001B69C3F38003DBB2002B0FD07A68137858
:1037B00043F0040313701B4A13696FF38203136110
:1037C0007A68137843F00103137022E0154B1B69EC
:1037D000C3F3C003DBB2002B0AD07A68137843F03E
:1037E000080313700F4A13696FF3C303136110E0EA
:1037F0000C4B1B69C3F30013DBB2002B09D07A68B2
:10380000137843F010031370064A13696FF304131F
:103810001361054BDB6A7868984700BF0837BD46DF
:1038200080BD00BF000800403842002080B400AFD7
:103830000B4B5B689B0803F00303022B0AD0022B9F
:103840000AD8002B02D0012B02D005E0054B03E083
:10385000054B01E0054BFFE71846BD4680BC7047AD
:103860000010024000127A000024F400003FAB0177
:1038700080B500AFFFF7DAFF0246054B5B681B0916
:1038800003F00F030349CB5C22FA03F3184680BD13
:10389000001002403800002080B500AFFFF7E8FFBD
:1038A0000246054B5B681B0A03F007030349CB5C28
:1038B00022FA03F3184680BD0010024030000020B9
:1038C00080B500AFFFF7D4FF0246054B5B68DB0A0B
:1038D00003F007030349CB5C22FA03F3184680BDCB
:1038E000001002403000002090B583B000AF786037
:1038F00039607B68574A93420CD1574A3B6814465B
:103900000FCB84E80F00554B9B69544A43F4805316
:10391000936111E07B68524A93420DD14E4B3A6855
:1039200003F1100413460FCB84E80F004B4BDB6907
:103930004A4A43F48043D3613B689B7803F0010318
:10394000D9B27A68138861F3CB2313803B689B79E3
:1039500003F00103D9B27A68138861F3410313803D
:103960003B68DB7903F00103D9B27A68138861F30D
:10397000000313803B68DB7803F00103D9B27A6857
:10398000138861F3C71313803B681B79002B05D1A3
:103990007A68138843F4007313801CE03B681B793A
:1039A000012B0AD17A6813886FF3492313807A6850
:1039B000137943F0040313710DE03B681B79022B6C
:1039C00009D17A6813886FF3492313807A681379D1
:1039D0006FF3820313713B685B7803F00103D9B284
:1039E0007A68138861F3820313803B685B7903F084
:1039F0000703D9B27A68138861F3C50313803B6863
:103A00001B7A012B14D17B68124A934206D1154BC5
:103A10001B68144A43F00803136009E07B68104AEE
:103A2000934205D10F4B1B680E4A43F010031360FD
:103A3000786800F053F83B681B7803F00103D9B2B3
:103A40007A68138861F38613138000BF0C37BD4674
:103A500090BD00BF00300140CC410020001002406A
:103A60000038004004E100E080B485B000AF786029
:103A70000B46FB700023FB607B68144A934202D123
:103A8000134BFB6005E07B68124A934201D1124B55
:103A9000FB60FB681B7A012B05D17A68137943F030
:103AA0008003137107E000BF7B689B68C3F340038A
:103AB000DBB2002BF8D0FA787B68DA607B68DB68D1
:103AC000DBB218461437BD4680BC70470030014059
:103AD000CC41002000380040DC41002080B596B089
:103AE00000AF786000237B657B686C4A934269D1A4
:103AF0006B4B7B656B4B9B696A4A43F00403936194
:103B00007B6D1B79002B08D1674B1B683B65634AB3
:103B1000138843F4807313800EE07B6D1B79012BB7
:103B200003D1624B1B683B6506E07B6D1B79022B62
:103B300002D15F4B1B683B6507F1500319465D4896
:103B4000FFF7D0F87B6D5B78012B03D15A4B1B68D4
:103B50003B6506E07B6D5B78002B02D1574B1B6801
:103B60003B6507F1500319465248FFF7BBF87B6DE0
:103B70005B78012B03D1524B1B683B6506E07B6DE4
:103B80005B78002B02D14F4B1B683B6507F150035C
:103B900019464848FFF7A6F87B6D5B78012B03D1E7
:103BA000494B1B683B6506E07B6D5B78002B02D1BF
:103BB000464B1B683B6507F1500319463D48FFF72C
:103BC00091F867E07B68424A934263D1414B7B6541
:103BD000344B9B69334A43F0080393617B6D1B7937
:103BE000002B03D13C4B1B683B650EE07B6D1B79C2
:103BF000012B03D1384B1B683B6506E07B6D1B79BD
:103C0000022B02D1354B1B683B6507F15003194667
:103C10002848FFF767F87B6D5B78012B03D1304BA9
:103C20001B683B6506E07B6D5B78002B02D12D4B5A
:103C30001B683B6507F1500319461E48FFF752F811
:103C40007B6D5B78012B03D1274B1B683B6506E03E
:103C50007B6D5B78002B02D1244B1B683B6507F121
:103C6000500319461348FFF73DF87B6D5B78012B35
:103C700003D11F4B1B683B6506E07B6D5B78002B17
:103C800002D11C4B1B683B6507F1500319460948DC
:103C9000FFF728F800BF5837BD4680BD003001400F
:103CA000CC41002000100240A0540008A454000899
:103CB000A854000800080140AC540008B0540008A3
:103CC000B4540008B8540008BC540008C05400089C
:103CD00000380040DC410020C4540008C8540008EB
:103CE000CC540008D0540008D4540008D85400081C
:103CF000DC540008E054000880B582B000AF3B1DE2
:103D00000549184600F00CF8044BDB6838799847F1
:103D100000BF0837BD4680BD00300140CC410020C7
:103D200080B483B000AF786039603B689B68C3F3B0
:103D30000003DBB2002B0FD07A6813786FF3000317
:103D400013707A68137843F0020313703A6813799A
:103D50006FF38613137115E03B689B68C3F3400350
:103D6000DBB2002B0ED07A68137843F00103137096
:103D70007A6813786FF3410313703A6813796FF31D
:103D8000C713137100BF0C37BD4680BC70470000DD
:103D900080B584B000AF7860064B1B68FB6007F10C
:103DA0000C0319460448FEF79DFF00BF1037BD46BF
:103DB00080BD00BFE45400080008014090B583B006
:103DC00000AF786039603D4A3B6814460FCB84E809
:103DD0000F003B4A7B6813607B683A4A934205D1E7
:103DE000394B9B69384A43F4006393613B681B88F5
:103DF0001A467B689A627A68136843F080031360FE
:103E00003B685B881A467B68DA623B689B881A4687
:103E10007B681A633B685B7A022B1CD0022B20DC88
:103E2000002B02D0012B0BD01BE07A6813686FF3D4
:103E3000461313607A6813686FF30413136013E07A
:103E40007A6813686FF3461313607A68136843F057
:103E50001003136008E07A68136843F0600313608E
:103E600002E0FEF7A3FA00BF7868FFF791FF7A68D7
:103E7000136843F0010313603B681B7A002B0BD1DE
:103E80007A68D36843F00103D360104B1B680F4A74
:103E900043F0007313600CE000BF7B681B69C3F341
:103EA0000003DBB2002BF8D07A6813696FF30003CC
:103EB000136100BF0C37BD4690BD00BFEC41002030
:103EC000FC410020002C01400010024000E100E015
:103ED00080B500AF054BDB689847054B1A6813693E
:103EE0006FF30003136100BF80BD00BFEC410020F1
:103EF000FC41002080B500AF054BDB689847054BBF
:103F00001A6813696FF34103136100BF80BD00BFDE
:103F1000EC410020FC41002080B500AF054BDB6880
:103F20009847054B1A6813696FF30003136100BFCC
:103F300080BD00BFEC410020FC41002080B500AFF7
:103F4000054BDB689847054B1A6813696FF300034C
:103F5000136100BF80BD00BFEC410020FC41002088
:103F600080B586B000AF0346FB80FFF7A9FC03468F
:103F70000F4AA2FB03239B0C9BB2013B9BB23B81EC
:103F8000FB88013B9BB27B810023BB810023FB812B
:103F900001233B7400237B7400237B6107F108033A
:103FA00019460448FFF70AFF00BF1837BD4680BD19
:103FB00083DE1B43002C014080B584B000AF034674
:103FC000FB800023FB6006E04FF47A70FFF7C8FF28
:103FD000FB680133FB60FB88FA689A42F4D300BFA8
:103FE00000BF1037BD4680BDB0B582B000AF78606D
:103FF00039607B68A94A93420CD1A94A3B681446B0
:104000000FCB84E80F00A74B9B69A64A43F480437B
:10401000936124E07B68A44A93420ED1A04B3A6896
:1040200003F1100413460FCB84E80F009D4BDB69AE
:104030009C4A43F40033D36111E07B689B4A93426E
:104040000DD1974B3A6803F1200413460FCB84E857
:104050000F00944BDB69934A43F48023D3617B6860
:10406000DB6843F400527B68DA607B68DB683A689F
:10407000127912031A437B68DA607B681B693A681D
:10408000D27912031A437B681A613B685B7A002B72
:104090000BD17B68DB6843F008027B68DA607B68E1
:1040A000DB6843F004027B68DA603B681B7A032B11
:1040B00026D801A252F823F0C9400008D7400008D2
:1040C000E5400008F34000087B685B6923F4407218
:1040D0007B685A6114E07B685B6943F480727B689B
:1040E0005A610DE07B685B6943F400727B685A613A
:1040F00006E07B685B6943F440727B685A6100BFED
:104100007B68DB683A68527952021A437B68DA604E
:104110003B689B79012B25D17B68604A934206D18D
:10412000634B1B68624A43F02003136014E07B6812
:104130005D4A934206D15E4B1B685D4A43F04003E3
:10414000136009E07B68594A934205D1584B1B68BC
:10415000574A43F0800313607B68DB6843F020021A
:104160007B68DA607B684D4A93422DD1FFF7A8FB4C
:1041700002463B681B681B01B2FBF3F31C01FFF70F
:104180009FFB024613469B0013449A001A443B6867
:104190001B689B00B2FBF3F5FFF792FB02463B68FE
:1041A0001B681B01B2FBF3F3642202FB03F3EB1A5F
:1041B0001B01404AA2FB03235B0903F00F0344EAFF
:1041C00003027B689A6062E07B68374A93422DD194
:1041D000FFF762FB02463B681B681B01B2FBF3F36F
:1041E0001C01FFF759FB024613469B0013449A003B
:1041F0001A443B681B689B00B2FBF3F5FFF74CFBCE
:1042000002463B681B681B01B2FBF3F3642202FB0E
:1042100003F3EB1A1B01274AA2FB03235B0903F0FC
:104220000F0344EA03027B689A6030E07B681F4A10
:1042300093422CD1FFF730FB02463B681B681B0101
:10424000B2FBF3F31C01FFF727FB024613469B006A
:1042500013449A001A443B681B689B00B2FBF3F5B9
:10426000FFF71AFB02463B681B681B01B2FBF3F326
:10427000642202FB03F3EB1A1B010E4AA2FB032389
:104280005B0903F00F0344EA03027B689A607868D5
:1042900000F09CF800BF0837BD46B0BD00380140B3
:1042A00074420020001002400044004000480040DA
:1042B00004E100E01F85EB5180B485B000AF786069
:1042C0000B46FB700023FB607B68154A934202D1CA
:1042D000144BFB600CE07B68134A934202D1134BF2
:1042E000FB6005E07B68124A934201D1114BFB60F1
:1042F00000BF7B681B6803F08003002BF9D0FB68CC
:104300001B79012B03D1FA787B685A6002E0FA78B6
:104310007B685A6000BF1437BD4680BC704700BF41
:1043200000380140744200200044004084420020D4
:10433000004800409442002080B485B000AF78600F
:104340000023FB607B681B4A934202D11A4BFB603F
:104350000CE07B68194A934202D1194BFB6005E0DF
:104360007B68184A934201D1174BFB60FB689B792D
:10437000002B07D100BF7B681B6803F02003002BD4
:10438000F9D002E0FB689B79012BFB685B79002B7D
:1043900004D17B685B68DBB29BB206E07B685B683C
:1043A000DBB29BB203F07F039BB218461437BD46C5
:1043B00080BC704700380140744200200044004037
:1043C00084420020004800409442002080B584B020
:1043D00000AF78602C4B1B68FB607B682B4A9342D4
:1043E00015D12B4B9B692A4A43F00403936107F1D3
:1043F0000C0319462748FEF775FC274B1B68FB602A
:1044000007F10C0319462348FEF76CFC38E07B6883
:10441000224A934218D11E4B9B691D4A43F0040364
:1044200093611F4B1B68FB6007F10C031946194889
:10443000FEF758FC1B4B1B68FB6007F10C03194689
:104440001448FEF74FFC1BE07B68174A934217D1D4
:104450000F4B9B690E4A43F008039361134B1B6893
:10446000FB6007F10C0319461148FEF73BFC114BAA
:104470001B68FB6007F10C0319460D48FEF732FC80
:1044800000BF1037BD4680BDE85400080038014029
:104490000010024000080140EC54000800440040B5
:1044A000F0540008F454000800480040F854000894
:1044B000000C0140FC54000880B500AF054B1B68A0
:1044C00003F02003002B02D0034BDB68984700BFAA
:1044D00080BD00BF003801407442002080B500AFAD
:1044E000054B1B6803F02003002B02D0034BDB6954
:1044F000984700BF80BD00BF0044004074420020C8
:1045000080B500AF054B1B6803F02003002B02D0E1
:10451000034BDB6A984700BF80BD00BF00480040E6
:104520007442002080B400AFFEE7000080B400AF0A
:104530000A4B5B68094A43F4A0135360074B1B689E
:10454000064A43F080731360044B5B68034A43F0F0
:104550000203536000BFBD4680BC7047001002409C
:1045600080B400AF054B1B7883F00103DAB2034B34
:104570001A7000BFBD4680BC704700BF00420020DB
:1045800080B500AF1B4B1B78002B05D01A4B1B6866
:104590000133194A13602AE0174B1B68002B26D001
:1045A000154B1B68154A1360144B1B689B08144A73
:1045B000A2FB03231A46134B1A60124B1A681346C8
:1045C0001B019B1A9B001A460F4B1A600E4B1B686F
:1045D0000E4A02FB03F30E4AA2FB03231B0D0D4AF6
:1045E00013600120FFF7E8FC034B00221A6000BFB4
:1045F00080BD00BF0042002004420020084200208D
:10460000254992240C42002010420020FA13010098
:104610006BCA5F6B1442002080B58AB000AFFFF711
:1046200027F902461A4BA3FB02239B099BB23B834B
:104630004FF47A737B830023BB830023FB83002327
:1046400087F82030002387F82130124B7B6200234B
:104650003B7507F1140207F1180319460E48FEF7DF
:104660003DFE0C233B800D4B7B600C233B812823BC
:104670007B8101233B7301237B73094B3B613B46E9
:104680001846FEF727F900BF2837BD4680BD00BF9A
:10469000D34D62106145000800040040000C014049
:1046A0008145000880B500AFFCF7F0FD03461A46CF
:1046B0001C4B1A701C4B1B78012B0AD121211B4863
:1046C000FFF7FAFD1A4B00221A701A4B00221A70DB
:1046D000EAE7144B1B78002B11D1154B00221A70FE
:1046E000144B1B78002BDFD166211048FFF7E4FD47
:1046F000104B1B780133DAB20E4B1A70D4E70D4B16
:1047000000221A700A4B1B78002BCDD15521074887
:10471000FFF7D2FD064B1B780133DAB2044B1A7057
:10472000C2E700BF30420020314200200038014083
:104730002F4200202E42002080B485B000AF0346F7
:10474000FB80FB88A3F5966213465B0013449B0134
:104750009B1A084A82FB03121A449212DB17D31ADF
:10476000DBB24033FB73FB7B18461437BD4680BC7D
:10477000704700BFA16F2AEC80B500AF034A00214B
:104780000348FDF773FD00BF80BD00BF2642002037
:104790000024014080B586B000AF07F1100300226D
:1047A0001A609A8000233B7101237B710023BB7147
:1047B0000023FB7107F11003BB600B4BFB603B1D3B
:1047C00019460A48FDF7C6FB00233B800323BB7054
:1047D0000023FB703B4619460548FEF783FA00BFED
:1047E0001837BD4680BD00BF79470008002401404E
:1047F000000C014080B582B000AF224B1B687B608B
:104800003B1D19462048FEF76DFA204B1B687B6064
:104810003B1D19461E48FEF765FA1E4B1B687B6060
:104820003B1D19461A48FEF75DFA1B4B1B687B605F
:104830003B1D19461648FEF755FA184B1B687B605E
:104840003B1D19461248FEF74DFA154B1B687B605D
:104850003B1D19460E48FEF745FA124B1B687B605C
:104860003B1D19460A48FEF73DFA0F4B1B687B605B
:104870003B1D19460648FEF735FA00BF0837BD460E
:1048800080BD00BF00550008000801400455000825
:10489000000C0140085500080C5500081055000890
:1048A00014550008185500081C55000880B582B042
:1048B00000AF0346FB80FB88DBB203F00103DBB2F1
:1048C0001A460F212D48FEF7F7FAFB885B089BB2CA
:1048D000DBB203F00103DBB21A4603212848FEF7DE
:1048E000EBFAFB889B089BB2DBB203F00103DBB25F
:1048F0001A4604212248FEF7DFFAFB88DB089BB248
:10490000DBB203F00103DBB21A4605211C48FEF7B7
:10491000D3FAFB881B099BB2DBB203F00103DBB2C5
:104920001A4606211648FEF7C7FAFB885B099BB2B8
:10493000DBB203F00103DBB21A4607211048FEF791
:10494000BBFAFB889B099BB2DBB203F00103DBB22D
:104950001A4608210A48FEF7AFFAFB88DB099BB22A
:10496000DBB203F00103DBB21A4609210448FEF76B
:10497000A3FA00BF0837BD4680BD00BF0008014054
:10498000000C014080B400AF224B1B88632B31D94F
:10499000214B1B88002B0BD1204B1B78072B03D1FD
:1049A0001F4B01221A70EFE71D4B00221A70EBE734
:1049B0001A4B1B78072B05D0174B1A88194B1B88ED
:1049C0009A4203D8164B01221A7022E0124B1A8821
:1049D000144B1B889A4209D90F4B1A88124B1B881B
:1049E0009A4203D20E4B02221A7012E00C4B0022A4
:1049F0001A70C9E7084B1B88002BC5D1074B1B78E1
:104A0000072B03D1064B01221A70BDE7044B00228D
:104A10001A70B9E7FA3F0020F83F00203642002024
:104A2000490000204A0000204C00002080B500AF63
:104A3000364B1B78012B3ED1354B1B78002B0ED10A
:104A4000344B1B881846FFF777FE03469AB2324B69
:104A50001A802F4B1B780133DAB22D4B1A702F4B73
:104A60001B789AB22C4B1B889A4206D32B4B1B788F
:104A70009BB21846FFF71AFFDAE7294B1B78012B88
:104A800003D14020FFF712FFD2E7254B1B78022B02
:104A900007D1214B1B885B089BB21846FFF706FF26
:104AA000C6E71F4B1B78002BC2D11B4B1B88184637
:104AB000FFF7FCFEBCE7154B1B78002BB8D1144B5D
:104AC00000221A70144B00221A80154B1B78012B00
:104AD00003D14020FFF7EAFEAAE7114B1B78022B17
:104AE00008D10E4B1B785B08DBB29BB21846FFF770
:104AF000DDFE9DE70A4B1B78002B99D1074B1B78F5
:104B00009BB21846FFF7D2FE92E700BF2542002075
:104B100029420020264200202A420020284200206C
:104B20004900002080B500AF00214648FEF7ECF9AF
:104B30000346002B0DD01E20FFF73EFA002141480E
:104B4000FEF7E2F90346002B06D03F4B01221A7014
:104B500002E03D4B00221A703C4A00213C48FDF720
:104B600085FB3A4B1B88B3F5966F03D3394B1B7803
:104B7000072B16D1384B40221A70384B1B88002B5C
:104B800034D1374B00221A60364B00221A60364B64
:104B900000221A60354B00221A60354B01221A7030
:104BA00024E02A4B1B8840F60612934206D9304B6C
:104BB00000221A70284BFF221A7017E0234B1B8823
:104BC000A3F5966213465B0013449B019B1A294A86
:104BD00082FB03121A449212DB17D31ADBB2403362
:104BE000DAB21D4B1A70224B00221A701C4B1B6844
:104BF0000A2B07D8204BC8221A80204B4FF49672FC
:104C00001A8091E7164B1B680A2B0CD9144B1B68B2
:104C1000282B08D8184B4FF4FA721A80174B4FF410
:104C20002F721A800CE00E4B1B683C2B7FF67CAF7A
:104C3000114B40F252321A80104B4FF461721A80BD
:104C400072E700BF000C01402542002026420020F0
:104C50000024014036420020284200202A42002041
:104C600014420020084200200C4200201042002084
:104C700031420020A16F2AEC4A0000204C000020A5
:104C800080B500AF254B1B6804211846FBF728FCB4
:104C9000234B1B68DBB21846FCF7B6FF1F4B1B68A3
:104CA00002211846FBF71CFC1C4B1B68042118460C
:104CB000FBF716FC1B4B1B781846FCF741FF174B04
:104CC0001B6802211846FBF70BFC144B1B680421E0
:104CD0001846FBF705FC144B1B781846FCF7E8FE5A
:104CE0000E4B1B6802211846FBF7FAFB0B4B1B68A7
:104CF00004211846FBF7F4FB0C4B1B78002B0CBF70
:104D000001230023DBB21846FCF7F6FE034B1B68B9
:104D100002211846FBF7E4FBB4E700BFA8420020DD
:104D2000144200201A420020254200203042002078
:104D300080B500AFA648FFF7FFFA0346DAB2A54BED
:104D40001A70A44B1B78233B1D2B60D801A252F88C
:104D500023F000BFCD4D00080F4E00080F4E000895
:104D6000074E00080F4E00080F4E00080F4E0008B7
:104D7000DB4D0008F14D00080F4E00080F4E0008F3
:104D80000F4E0008E34D00080F4E00080F4E0008BC
:104D90000F4E00080F4E00080F4E00080F4E00087F
:104DA0000F4E00080F4E00080F4E00080F4E00086F
:104DB0000F4E00080F4E00080F4E00080F4E00085F
:104DC0000F4E00080F4E0008F94D0008824B0122DB
:104DD0001A70824B00221A7019E0804B01221A705F
:104DE00015E07F4B01221A707E4B00221A700EE0F4
:104DF0007C4B01221A700AE07B4B01221A707B4B1C
:104E000000221A7003E0794B01221A7000BF744B24
:104E10001B78002B43D0764B1B78002B02D16D4BB7
:104E200000221A706F4B1B78002B12D1714B1B881C
:104E30001B021AB2674B1B781BB213431BB29AB208
:104E40006C4B1A806A4B1B780133DAB2684B1A70CC
:104E500025E0684B1A8840F60F7313409AB2654BF1
:104E60001A80644B1B881B115BB223F00F035AB2EC
:104E7000604B1B885BB203F00F035BB213435BB262
:104E8000DAB25D4B1A705B4B00221A80544B002241
:104E90001A70544B00221A70554B00221A704E4B58
:104EA0001B78002B43D0524B1B78002B02D1494B6F
:104EB00000221A70494B1B78002B12D14F4B1B88D4
:104EC0001B021AB2434B1B781BB213431BB29AB29C
:104ED0004A4B1A80464B1B780133DAB2444B1A70A6
:104EE00025E0464B1A8840F60F7313409AB2434BA5
:104EF0001A80424B1B881B115BB223F00F035AB27E
:104F00003E4B1B885BB203F00F035BB213435BB2F3
:104F1000DAB23B4B1A70394B00221A802F4B002219
:104F20001A702D4B00221A70314B00221A702E4B32
:104F30001B78002B49D02E4B1B78002B02D1254B20
:104F400000221A70294B1B78002B12D12D4B1B8885
:104F50001B021AB21F4B1B781BB213431BB29AB22F
:104F6000284B1A80224B1B780133DAB2204B1A707F
:104F70002BE0244B1A8840F60F7313409AB2214B52
:104F80001A80204B1B881B115BB223F00F035AB20F
:104F90001C4B1B885BB203F00F035BB213435BB285
:104FA000DAB2194B1A70174B00221A80164B1B7875
:104FB00019460748FFF780F90B4B00221A700B4B7C
:104FC00000221A700A4B00221A7000BF80BD00BF79
:104FD000003801401C4200201D4200201E420020DB
:104FE0001F42002020420020324200203342002095
:104FF0001B420020224200202442002018420020B0
:105000001A420020344200203642002090B585B07C
:1050100000AF074B3C460FCB84E80F003B461946D8
:105020000448FEF7E1FF00BF1437BD4690BD00BF46
:10503000205500080038014080B584B004AF294BEA
:1050400000221A7001212848FDF75EFF0346002B5D
:1050500045D11E20FEF7B0FF01212348FDF754FF84
:105060000346002B3BD1214B1B78012B37D1204B22
:105070001B78992B33D01E4B1B78002B2FD01B4B4A
:1050800000221A701A4B00221A70164B00221A7056
:10509000184B00221A70184B00221A70174B00226E
:1050A0001A700120FEF788FF4020FFF7FFFB332135
:1050B0001348FFF701F91E20FEF77EFFFF2302933E
:1050C000FF230193FF2300937F2300229F210020D1
:1050D000FCF70FFC0B4B1B681846FBF775FB00BF7A
:1050E000BD4680BD2D420020000C01402C42002016
:1050F000244200202E4200202F4200203142002076
:1051000000380140A442002080B586B000AF0123E2
:10511000BB800F4BBB600123BB810723FB810023B6
:105120003B7401237B740B4B7B613B1D1846FDF7E1
:10513000D1FB00233B6001233B800323BB703B4634
:1051400019460348FDF7CEFD00BF1837BD4680BDA8
:10515000000C01403950000880B500AF0121204803
:10516000FDF7D2FE0346012BF8D11E20FEF724FFE7
:1051700001211B48FDF7C8FE0346012BEED1194B58
:105180001B78002B09D122211748FFF795F8154B02
:105190001B780133DAB2134B1A70144B1B78992B1E
:1051A000DCD0124B1B78002BD8D0114B01221A7087
:1051B0000C4B00221A70FCF73FFC0120FEF7FCFEAE
:1051C000FCF71EFC0120FEF7F7FEFCF761FC012056
:1051D000FEF7F2FE074B1B681846FBF745FABDE7E2
:1051E000000C01402D4200200038014024420020E4
:1051F0002C420020A442002080B500AFFFF796F9B2
:105200006420FEF7D9FE5520FCF75AFA6420FEF719
:10521000D3FEFFF7FBFE6420FEF7CEFEFFF7BAFADF
:105220006420FEF7C9FEFFF7E5FA6420FEF7C4FE2E
:10523000FBF7FAFF6420FEF7BFFEFFF765FF64206F
:10524000FEF7BAFEFFF7E8F96420FEF7B5FE00218D
:105250000020FCF70DF96420FEF7AEFE00BF80BD14
:1052600080B582B002AFFFF7C7FF0023019302238E
:10527000009300234FF480722D492E48FAF7EFFF78
:105280000346012B01D0FFF74DF9002301930223C0
:10529000009300234FF4807227492848FAF7DFFF74
:1052A0000346012B01D0FFF73DF9254B0193022363
:1052B000009300234FF4807222492348FAF7CFFF6E
:1052C0000346012B01D0FFF72DF9204B0193022358
:1052D000009300234FF480721D491E48FAF7BFFF68
:1052E0000346012B01D0FFF71DF900230193022390
:1052F000009300234FF4807217491848FAF7AFFF64
:105300000346012B01D0FFF70DF9154B019305233F
:10531000009300234FF4807212491348FAF79FFF5D
:105320000346012B01D0FFF7FDF8FBF7C5FAFEE7B6
:10533000305500082D4A00084C55000885490008E2
:10534000AC42002060550008254B0008A842002010
:105350006C550008814C000880550008A5460008DF
:10536000A442002094550008595100080D48854674
:10537000AFF300800C480D490D4A002302E0D458D9
:10538000C4500433C4188C42F9D30A4A0A4C00238F
:1053900001E013600432A242FBD300F011F8FFF7E2
:1053A0005FFFFEE7005000200000002050000020BA
:1053B0003C98010850000020B0420020FEE70000A9
:1053C00070B500250C4E0D4CA41BA410A54209D1AC
:1053D00000F022F800250A4E0A4CA41BA410A54296
:1053E00005D170BD56F8253098470135EEE756F8DF
:1053F000253098470135F2E73498010834980108C0
:10540000349801083898010803460244934200D1B9
:10541000704703F8011BF9E7F8B500BFF8BC08BCFA
:105420009E467047F8B500BFF8BC08BC9E46704762
:1054300049444C4500000000010001000C0001003F
:105440000B0001000800010000C201000000010083
:1054500000000000D9120008020004010C0006013F
:105460000B00010000000601010006010200060118
:105470000300060101000100020001000300010019
:1054800006000601070006010600010007000100F2
:1054900008000601090006010800010009000100DA
:1054A00004000401040006010400010005000601D7
:1054B00005000100060001000600060107000601C4
:1054C000070001000C0006010C0001000D000601A0
:1054D0000D0001000E0001000E0006010F00060184
:1054E0000F00010008000601090006020A00010081
:1054F00002000602030001000A0006020B00010080
:105500000F0004010300040104000401050004016C
:105510000600040107000401080004010900040159
:1055200000C201000000010000000000314D000831
:105530004143435F7468726F7474656C5F48616E59
:10554000646C6C65725F5441534B00004143435F90
:1055500048616E646C6C65725F5441534B0000008F
:10556000424F54544F4E5F52454144005446545F9D
:1055700048616E646C6C65725F5441534B0000006F
:10558000444D535F48616E646C6C65725F54415367
:105590004B000000464143455F49445F5441534B33
:1055A00000000000FFFFFFFFFFFFFFFFFFFFFFFF07
:1055B000FFFFFFFFFFFFFFFFFFFFFFFFFFFFFFFFFB
:1055C000FFFFFFFFFFFFFFFFFFFFFFFFFFFFFFFFEB
:1055D000FFFFFFFFFFFFFFFFDED7DEC7DEC75A4733
:1055E0003917391F391F391F391F391F391F391F03
:1055F000391F391F391F391F391F391F39175A47AA
:10560000DEC7DEC7DED7FFFFFFFFFFFFFFFFFFFFA5
:10561000FFFFFFFFFFFFFFFFFFFFFFFFFFFFFFFF9A
:10562000FFFFFFFFFFFFFFFFFFFFFFFFFFFFFFFF8A
:10563000FFFFFFFFFFFFFFFFFFFFFFFFFFFFFFFF7A
:10564000FFFFFFFFFFFFFFFFFFFFFFFFFFFFFFFF6A
:10565000FFFFFFFFFFFFFFFFFFFFFFFFFFFFFFFF5A
:10566000FFFFFFFFFFFFFFFFFFFF7D979C8F3927A5
:10567000380F380F3917391F391F391F391F391F94
:10568000391F391F391F391F391F391F391F391F5A
:10569000391F391F3917380F380F38279C8F7D97DE
:1056A000FFFFFFFFFFFFFFFFFFFFFFFFFFFFFFFF0A
:1056B000FFFFFFFFFFFFFFFFFFFFFFFFFFFFFFFFFA
:1056C000FFFFFFFFFFFFFFFFFFFFFFFFFFFFFFFFEA
:1056D000FFFFFFFFFFFFFFFFFFFFFFFFFFFFFFFFDA
:1056E000FFFFFFFFFFFFFFFFFFFFFFFFFFFFFFFFCA
:1056F000FFFFFFFFFFFFFFFFFFFFFFF7BDA75A47B9
:105700001917380F3917391F391F391F391F391F1A
:10571000391F391F391F391F391F391F391F391FC9
:10572000391F391F391F391F391F391F391F391FB9
:105730003917380F19175A47BDA7FFF7FFFFFFFFAB
:10574000FFFFFFFFFFFFFFFFFFFFFFFFFFFFFFFF69
:10575000FFFFFFFFFFFFFFFFFFFFFFFFFFFFFFFF59
:10576000FFFFFFFFFFFFFFFFFFFFFFFFFFFFFFFF49
:10577000FFFFFFFFFFFFFFFFFFFFFFFFFFFFFFFF39
:10578000FFFFFFFFFFFFFFFFFFFFFFFFFFEFDEBF9A
:105790005927391F380F391F391F391F391F391F32
:1057A000391F391F391F391F391F391F391F391F39
:1057B000391F391F391F391F391F391F391F391F29
:1057C000391F391F391F391F391F391F380F391F2A
:1057D0005927DEBFFFEFFFFFFFFFFFFFFFFFFFFFC8
:1057E000FFFFFFFFFFFFFFFFFFFFFFFFFFFFFFFFC9
:1057F000FFFFFFFFFFFFFFFFFFFFFFFFFFFFFFFFB9
:10580000FFFFFFFFFFFFFFFFFFFFFFFFFFFFFFFFA8
:10581000FFFFFFFFFFFFFFFFFFFFFFFFFFFFFFFF98
:10582000BC977A4F38073917391F391F391F391F6D
:10583000391F391F391F391F391F391F391F391FA8
:10584000391F391F391F391F391F391F391F391F98
:10585000391F391F391F391F391F391F391F391F88
:10586000391F391F391F391738077A4FBC97FFFF87
:10587000FFFFFFFFFFFFFFFFFFFFFFFFFFFFFFFF38
:10588000FFFFFFFFFFFFFFFFFFFFFFFFFFFFFFFF28
:10589000FFFFFFFFFFFFFFFFFFFFFFFFFFFFFFFF18
:1058A000FFFFFFFFFFFFFFFFFFFFFFFFFFFFFFFF08
:1058B000FFFFFDAF9A4F380F3817391F391F391FB7
:1058C000391F391F391F391F391F391F391F391F18
:1058D000391F391F391F391F391F391F391F391F08
:1058E000391F391F391F391F391F391F391F391FF8
:1058F000391F391F391F391F391F391F391F391FE8
:105900003817380F9A4FFDAFFFFFFFFFFFFFFFFF74
:10591000FFFFFFFFFFFFFFFFFFFFFFFFFFFFFFFF97
:10592000FFFFFFFFFFFFFFFFFFFFFFFFFFFFFFFF87
:10593000FFFFFFFFFFFFFFFFFFFFFFFFFFFFFFFF77
:10594000FFFFFFFFFFFFBDA73817380F391F391FB3
:10595000391F391F391F391F391F391F391F391F87
:10596000391F391F391F59175917591759175917FF
:1059700059175917591759175917591759175917A7
:10598000391F391F391F391F391F391F391F391F57
:10599000391F391F391F391F391F380F3817BDA755
:1059A000FFFFFFFFFFFFFFFFFFFFFFFFFFFFFFFF07
:1059B000FFFFFFFFFFFFFFFFFFFFFFFFFFFFFFFFF7
:1059C000FFFFFFFFFFFFFFFFFFFFFFFFFFFFFFFFE7
:1059D000FFFFFFFFFFFFFFFFFECF9C873817391740
:1059E000391F391F391F391F391F391F391F391FF7
:1059F000391F391F391F59175917391FF72E954E5F
:105A00003366F27DB08DB0959095B095B08DF27DF6
:105A10003366954EF72E391F59175917391F391FFD
:105A2000391F391F391F391F391F391F391F391FB6
:105A3000391F391738179C87FECFFFFFFFFFFFFF85
:105A4000FFFFFFFFFFFFFFFFFFFFFFFFFFFFFFFF66
:105A5000FFFFFFFFFFFFFFFFFFFFFFFFFFFFFFFF56
:105A6000FFFFFFFFFFFFFFFFFFFFFFFFDED7392F25
:105A70003807391F391F391F391F391F391F391F7F
:105A8000391F391F391F59175917381F954ED1859E
:105A90000CBDAADC48EC27F427FC07FC07FC07FC3C
:105AA00007FC07FC27FC27F448ECAADC0CBDD185D9
:105AB000954E381F59175917391F391F391F391F6C
:105AC000391F391F391F391F391F391F3807392F1F
:105AD000DED7FFFFFFFFFFFFFFFFFFFFFFFFFFFF1F
